{
	"lesson_4_enum_array_byte_struct/Demo.sol": {
		"Demo": {
			"abi": [
				{
					"inputs": [
						{
							"internalType": "address",
							"name": "",
							"type": "address"
						}
					],
					"name": "balances",
					"outputs": [
						{
							"internalType": "uint256",
							"name": "totalPayments",
							"type": "uint256"
						}
					],
					"stateMutability": "view",
					"type": "function"
				},
				{
					"inputs": [],
					"name": "currentStatus",
					"outputs": [
						{
							"internalType": "enum Demo.Status",
							"name": "",
							"type": "uint8"
						}
					],
					"stateMutability": "view",
					"type": "function"
				},
				{
					"inputs": [
						{
							"internalType": "address",
							"name": "_addr",
							"type": "address"
						},
						{
							"internalType": "uint256",
							"name": "_index",
							"type": "uint256"
						}
					],
					"name": "getPayment",
					"outputs": [
						{
							"components": [
								{
									"internalType": "uint256",
									"name": "amount",
									"type": "uint256"
								},
								{
									"internalType": "uint256",
									"name": "timestamp",
									"type": "uint256"
								},
								{
									"internalType": "address",
									"name": "from",
									"type": "address"
								},
								{
									"internalType": "string",
									"name": "message",
									"type": "string"
								}
							],
							"internalType": "struct Demo.Payment",
							"name": "",
							"type": "tuple"
						}
					],
					"stateMutability": "view",
					"type": "function"
				},
				{
					"inputs": [
						{
							"internalType": "uint256",
							"name": "",
							"type": "uint256"
						},
						{
							"internalType": "uint256",
							"name": "",
							"type": "uint256"
						}
					],
					"name": "items",
					"outputs": [
						{
							"internalType": "uint256",
							"name": "",
							"type": "uint256"
						}
					],
					"stateMutability": "view",
					"type": "function"
				},
				{
					"inputs": [],
					"name": "itemsAdd",
					"outputs": [],
					"stateMutability": "nonpayable",
					"type": "function"
				},
				{
					"inputs": [
						{
							"internalType": "uint256",
							"name": "",
							"type": "uint256"
						}
					],
					"name": "itemsDynamic",
					"outputs": [
						{
							"internalType": "uint256",
							"name": "",
							"type": "uint256"
						}
					],
					"stateMutability": "view",
					"type": "function"
				},
				{
					"inputs": [],
					"name": "itemsDynamicAdd",
					"outputs": [],
					"stateMutability": "nonpayable",
					"type": "function"
				},
				{
					"inputs": [],
					"name": "itemsMatrixAdd",
					"outputs": [],
					"stateMutability": "nonpayable",
					"type": "function"
				},
				{
					"inputs": [
						{
							"internalType": "uint256",
							"name": "",
							"type": "uint256"
						}
					],
					"name": "itemsOne",
					"outputs": [
						{
							"internalType": "uint256",
							"name": "",
							"type": "uint256"
						}
					],
					"stateMutability": "view",
					"type": "function"
				},
				{
					"inputs": [
						{
							"internalType": "uint256",
							"name": "",
							"type": "uint256"
						}
					],
					"name": "itemsTwo",
					"outputs": [
						{
							"internalType": "uint256",
							"name": "",
							"type": "uint256"
						}
					],
					"stateMutability": "view",
					"type": "function"
				},
				{
					"inputs": [],
					"name": "len",
					"outputs": [
						{
							"internalType": "uint256",
							"name": "",
							"type": "uint256"
						}
					],
					"stateMutability": "view",
					"type": "function"
				},
				{
					"inputs": [],
					"name": "lengthBytesArray",
					"outputs": [
						{
							"internalType": "uint256",
							"name": "",
							"type": "uint256"
						}
					],
					"stateMutability": "view",
					"type": "function"
				},
				{
					"inputs": [],
					"name": "myDynKirilVar",
					"outputs": [
						{
							"internalType": "bytes",
							"name": "",
							"type": "bytes"
						}
					],
					"stateMutability": "view",
					"type": "function"
				},
				{
					"inputs": [],
					"name": "myDynVar",
					"outputs": [
						{
							"internalType": "bytes",
							"name": "",
							"type": "bytes"
						}
					],
					"stateMutability": "view",
					"type": "function"
				},
				{
					"inputs": [],
					"name": "myVar",
					"outputs": [
						{
							"internalType": "bytes32",
							"name": "",
							"type": "bytes32"
						}
					],
					"stateMutability": "view",
					"type": "function"
				},
				{
					"inputs": [],
					"name": "pay",
					"outputs": [],
					"stateMutability": "nonpayable",
					"type": "function"
				},
				{
					"inputs": [
						{
							"internalType": "string",
							"name": "message",
							"type": "string"
						}
					],
					"name": "pay",
					"outputs": [],
					"stateMutability": "payable",
					"type": "function"
				},
				{
					"inputs": [],
					"name": "recieve",
					"outputs": [],
					"stateMutability": "nonpayable",
					"type": "function"
				},
				{
					"inputs": [],
					"name": "sampleMemory",
					"outputs": [
						{
							"internalType": "uint256[]",
							"name": "",
							"type": "uint256[]"
						}
					],
					"stateMutability": "view",
					"type": "function"
				},
				{
					"inputs": [],
					"name": "transferTo",
					"outputs": [],
					"stateMutability": "nonpayable",
					"type": "function"
				}
			],
			"devdoc": {
				"kind": "dev",
				"methods": {},
				"version": 1
			},
			"evm": {
				"assembly": "    /* \"lesson_4_enum_array_byte_struct/Demo.sol\":62:2707  contract Demo {... */\n  mstore(0x40, 0x80)\n    /* \"lesson_4_enum_array_byte_struct/Demo.sol\":486:524  uint[7] public itemsTwo = [1, 2, 3, 7] */\n  mload(0x40)\n  dup1\n  0x80\n  add\n  0x40\n  mstore\n  dup1\n    /* \"lesson_4_enum_array_byte_struct/Demo.sol\":513:514  1 */\n  0x01\n    /* \"lesson_4_enum_array_byte_struct/Demo.sol\":486:524  uint[7] public itemsTwo = [1, 2, 3, 7] */\n  0xff\n  and\n  dup2\n  mstore\n  0x20\n  add\n    /* \"lesson_4_enum_array_byte_struct/Demo.sol\":516:517  2 */\n  0x02\n    /* \"lesson_4_enum_array_byte_struct/Demo.sol\":486:524  uint[7] public itemsTwo = [1, 2, 3, 7] */\n  0xff\n  and\n  dup2\n  mstore\n  0x20\n  add\n    /* \"lesson_4_enum_array_byte_struct/Demo.sol\":519:520  3 */\n  0x03\n    /* \"lesson_4_enum_array_byte_struct/Demo.sol\":486:524  uint[7] public itemsTwo = [1, 2, 3, 7] */\n  0xff\n  and\n  dup2\n  mstore\n  0x20\n  add\n    /* \"lesson_4_enum_array_byte_struct/Demo.sol\":522:523  7 */\n  0x07\n    /* \"lesson_4_enum_array_byte_struct/Demo.sol\":486:524  uint[7] public itemsTwo = [1, 2, 3, 7] */\n  0xff\n  and\n  dup2\n  mstore\n  pop\n  0x08\n  swap1\n  0x04\n  tag_1\n  swap3\n  swap2\n  swap1\n  tag_2\n  jump\t// in\ntag_1:\n  pop\n    /* \"lesson_4_enum_array_byte_struct/Demo.sol\":1453:1487  bytes32 public myVar = \"test here\" */\n  sstore(0x2f, 0x7465737420686572650000000000000000000000000000000000000000000000)\n    /* \"lesson_4_enum_array_byte_struct/Demo.sol\":1548:1583  bytes public myDynVar = \"test here\" */\n  mload(0x40)\n  dup1\n  0x40\n  add\n  0x40\n  mstore\n  dup1\n  0x09\n  dup2\n  mstore\n  0x20\n  add\n  0x7465737420686572650000000000000000000000000000000000000000000000\n  dup2\n  mstore\n  pop\n  0x30\n  swap1\n  dup2\n  tag_3\n  swap2\n  swap1\n  tag_4\n  jump\t// in\ntag_3:\n  pop\n    /* \"lesson_4_enum_array_byte_struct/Demo.sol\":1590:1648  bytes public myDynKirilVar = unicode\"привет мир!\" */\n  mload(0x40)\n  dup1\n  0x40\n  add\n  0x40\n  mstore\n  dup1\n  0x14\n  dup2\n  mstore\n  0x20\n  add\n  0xd0bfd180d0b8d0b2d0b5d18220d0bcd0b8d18021000000000000000000000000\n  dup2\n  mstore\n  pop\n  0x31\n  swap1\n  dup2\n  tag_5\n  swap2\n  swap1\n  tag_4\n  jump\t// in\ntag_5:\n  pop\n    /* \"lesson_4_enum_array_byte_struct/Demo.sol\":62:2707  contract Demo {... */\n  callvalue\n  dup1\n  iszero\n  tag_6\n  jumpi\n  0x00\n  dup1\n  revert\ntag_6:\n  pop\n  jump(tag_7)\ntag_2:\n  dup3\n  0x07\n  dup2\n  add\n  swap3\n  dup3\n  iszero\n  tag_8\n  jumpi\n  swap2\n  0x20\n  mul\n  dup3\n  add\ntag_9:\n  dup3\n  dup2\n  gt\n  iszero\n  tag_10\n  jumpi\n  dup3\n  mload\n  dup3\n  swap1\n  0xff\n  and\n  swap1\n  sstore\n  swap2\n  0x20\n  add\n  swap2\n  swap1\n  0x01\n  add\n  swap1\n  jump(tag_9)\ntag_10:\ntag_8:\n  pop\n  swap1\n  pop\n  tag_11\n  swap2\n  swap1\n  tag_12\n  jump\t// in\ntag_11:\n  pop\n  swap1\n  jump\t// out\ntag_12:\ntag_13:\n  dup1\n  dup3\n  gt\n  iszero\n  tag_14\n  jumpi\n  0x00\n  dup2\n  0x00\n  swap1\n  sstore\n  pop\n  0x01\n  add\n  jump(tag_13)\ntag_14:\n  pop\n  swap1\n  jump\t// out\n    /* \"#utility.yul\":7:106   */\ntag_15:\n    /* \"#utility.yul\":59:65   */\n  0x00\n    /* \"#utility.yul\":93:98   */\n  dup2\n    /* \"#utility.yul\":87:99   */\n  mload\n    /* \"#utility.yul\":77:99   */\n  swap1\n  pop\n    /* \"#utility.yul\":7:106   */\n  swap2\n  swap1\n  pop\n  jump\t// out\n    /* \"#utility.yul\":112:292   */\ntag_16:\n    /* \"#utility.yul\":160:237   */\n  0x4e487b7100000000000000000000000000000000000000000000000000000000\n    /* \"#utility.yul\":157:158   */\n  0x00\n    /* \"#utility.yul\":150:238   */\n  mstore\n    /* \"#utility.yul\":257:261   */\n  0x41\n    /* \"#utility.yul\":254:255   */\n  0x04\n    /* \"#utility.yul\":247:262   */\n  mstore\n    /* \"#utility.yul\":281:285   */\n  0x24\n    /* \"#utility.yul\":278:279   */\n  0x00\n    /* \"#utility.yul\":271:286   */\n  revert\n    /* \"#utility.yul\":298:478   */\ntag_17:\n    /* \"#utility.yul\":346:423   */\n  0x4e487b7100000000000000000000000000000000000000000000000000000000\n    /* \"#utility.yul\":343:344   */\n  0x00\n    /* \"#utility.yul\":336:424   */\n  mstore\n    /* \"#utility.yul\":443:447   */\n  0x22\n    /* \"#utility.yul\":440:441   */\n  0x04\n    /* \"#utility.yul\":433:448   */\n  mstore\n    /* \"#utility.yul\":467:471   */\n  0x24\n    /* \"#utility.yul\":464:465   */\n  0x00\n    /* \"#utility.yul\":457:472   */\n  revert\n    /* \"#utility.yul\":484:804   */\ntag_18:\n    /* \"#utility.yul\":528:534   */\n  0x00\n    /* \"#utility.yul\":565:566   */\n  0x02\n    /* \"#utility.yul\":559:563   */\n  dup3\n    /* \"#utility.yul\":555:567   */\n  div\n    /* \"#utility.yul\":545:567   */\n  swap1\n  pop\n    /* \"#utility.yul\":612:613   */\n  0x01\n    /* \"#utility.yul\":606:610   */\n  dup3\n    /* \"#utility.yul\":602:614   */\n  and\n    /* \"#utility.yul\":633:651   */\n  dup1\n    /* \"#utility.yul\":623:704   */\n  tag_40\n  jumpi\n    /* \"#utility.yul\":689:693   */\n  0x7f\n    /* \"#utility.yul\":681:687   */\n  dup3\n    /* \"#utility.yul\":677:694   */\n  and\n    /* \"#utility.yul\":667:694   */\n  swap2\n  pop\n    /* \"#utility.yul\":623:704   */\ntag_40:\n    /* \"#utility.yul\":751:753   */\n  0x20\n    /* \"#utility.yul\":743:749   */\n  dup3\n    /* \"#utility.yul\":740:754   */\n  lt\n    /* \"#utility.yul\":720:738   */\n  dup2\n    /* \"#utility.yul\":717:755   */\n  sub\n    /* \"#utility.yul\":714:798   */\n  tag_41\n  jumpi\n    /* \"#utility.yul\":770:788   */\n  tag_42\n  tag_17\n  jump\t// in\ntag_42:\n    /* \"#utility.yul\":714:798   */\ntag_41:\n    /* \"#utility.yul\":535:804   */\n  pop\n    /* \"#utility.yul\":484:804   */\n  swap2\n  swap1\n  pop\n  jump\t// out\n    /* \"#utility.yul\":810:950   */\ntag_19:\n    /* \"#utility.yul\":858:862   */\n  0x00\n    /* \"#utility.yul\":881:884   */\n  dup2\n    /* \"#utility.yul\":873:884   */\n  swap1\n  pop\n    /* \"#utility.yul\":904:907   */\n  dup2\n    /* \"#utility.yul\":901:902   */\n  0x00\n    /* \"#utility.yul\":894:908   */\n  mstore\n    /* \"#utility.yul\":938:942   */\n  0x20\n    /* \"#utility.yul\":935:936   */\n  0x00\n    /* \"#utility.yul\":925:943   */\n  keccak256\n    /* \"#utility.yul\":917:943   */\n  swap1\n  pop\n    /* \"#utility.yul\":810:950   */\n  swap2\n  swap1\n  pop\n  jump\t// out\n    /* \"#utility.yul\":956:1049   */\ntag_20:\n    /* \"#utility.yul\":993:999   */\n  0x00\n    /* \"#utility.yul\":1040:1042   */\n  0x20\n    /* \"#utility.yul\":1035:1037   */\n  0x1f\n    /* \"#utility.yul\":1028:1033   */\n  dup4\n    /* \"#utility.yul\":1024:1038   */\n  add\n    /* \"#utility.yul\":1020:1043   */\n  div\n    /* \"#utility.yul\":1010:1043   */\n  swap1\n  pop\n    /* \"#utility.yul\":956:1049   */\n  swap2\n  swap1\n  pop\n  jump\t// out\n    /* \"#utility.yul\":1055:1162   */\ntag_21:\n    /* \"#utility.yul\":1099:1107   */\n  0x00\n    /* \"#utility.yul\":1149:1154   */\n  dup3\n    /* \"#utility.yul\":1143:1147   */\n  dup3\n    /* \"#utility.yul\":1139:1155   */\n  shl\n    /* \"#utility.yul\":1118:1155   */\n  swap1\n  pop\n    /* \"#utility.yul\":1055:1162   */\n  swap3\n  swap2\n  pop\n  pop\n  jump\t// out\n    /* \"#utility.yul\":1168:1561   */\ntag_22:\n    /* \"#utility.yul\":1237:1243   */\n  0x00\n    /* \"#utility.yul\":1287:1288   */\n  0x08\n    /* \"#utility.yul\":1275:1285   */\n  dup4\n    /* \"#utility.yul\":1271:1289   */\n  mul\n    /* \"#utility.yul\":1310:1407   */\n  tag_47\n    /* \"#utility.yul\":1340:1406   */\n  0xffffffffffffffffffffffffffffffffffffffffffffffffffffffffffffffff\n    /* \"#utility.yul\":1329:1338   */\n  dup3\n    /* \"#utility.yul\":1310:1407   */\n  tag_21\n  jump\t// in\ntag_47:\n    /* \"#utility.yul\":1428:1467   */\n  tag_48\n    /* \"#utility.yul\":1458:1466   */\n  dup7\n    /* \"#utility.yul\":1447:1456   */\n  dup4\n    /* \"#utility.yul\":1428:1467   */\n  tag_21\n  jump\t// in\ntag_48:\n    /* \"#utility.yul\":1416:1467   */\n  swap6\n  pop\n    /* \"#utility.yul\":1500:1504   */\n  dup1\n    /* \"#utility.yul\":1496:1505   */\n  not\n    /* \"#utility.yul\":1489:1494   */\n  dup5\n    /* \"#utility.yul\":1485:1506   */\n  and\n    /* \"#utility.yul\":1476:1506   */\n  swap4\n  pop\n    /* \"#utility.yul\":1549:1553   */\n  dup1\n    /* \"#utility.yul\":1539:1547   */\n  dup7\n    /* \"#utility.yul\":1535:1554   */\n  and\n    /* \"#utility.yul\":1528:1533   */\n  dup5\n    /* \"#utility.yul\":1525:1555   */\n  or\n    /* \"#utility.yul\":1515:1555   */\n  swap3\n  pop\n    /* \"#utility.yul\":1244:1561   */\n  pop\n  pop\n    /* \"#utility.yul\":1168:1561   */\n  swap4\n  swap3\n  pop\n  pop\n  pop\n  jump\t// out\n    /* \"#utility.yul\":1567:1644   */\ntag_23:\n    /* \"#utility.yul\":1604:1611   */\n  0x00\n    /* \"#utility.yul\":1633:1638   */\n  dup2\n    /* \"#utility.yul\":1622:1638   */\n  swap1\n  pop\n    /* \"#utility.yul\":1567:1644   */\n  swap2\n  swap1\n  pop\n  jump\t// out\n    /* \"#utility.yul\":1650:1710   */\ntag_24:\n    /* \"#utility.yul\":1678:1681   */\n  0x00\n    /* \"#utility.yul\":1699:1704   */\n  dup2\n    /* \"#utility.yul\":1692:1704   */\n  swap1\n  pop\n    /* \"#utility.yul\":1650:1710   */\n  swap2\n  swap1\n  pop\n  jump\t// out\n    /* \"#utility.yul\":1716:1858   */\ntag_25:\n    /* \"#utility.yul\":1766:1775   */\n  0x00\n    /* \"#utility.yul\":1799:1852   */\n  tag_52\n    /* \"#utility.yul\":1817:1851   */\n  tag_53\n    /* \"#utility.yul\":1826:1850   */\n  tag_54\n    /* \"#utility.yul\":1844:1849   */\n  dup5\n    /* \"#utility.yul\":1826:1850   */\n  tag_23\n  jump\t// in\ntag_54:\n    /* \"#utility.yul\":1817:1851   */\n  tag_24\n  jump\t// in\ntag_53:\n    /* \"#utility.yul\":1799:1852   */\n  tag_23\n  jump\t// in\ntag_52:\n    /* \"#utility.yul\":1786:1852   */\n  swap1\n  pop\n    /* \"#utility.yul\":1716:1858   */\n  swap2\n  swap1\n  pop\n  jump\t// out\n    /* \"#utility.yul\":1864:1939   */\ntag_26:\n    /* \"#utility.yul\":1907:1910   */\n  0x00\n    /* \"#utility.yul\":1928:1933   */\n  dup2\n    /* \"#utility.yul\":1921:1933   */\n  swap1\n  pop\n    /* \"#utility.yul\":1864:1939   */\n  swap2\n  swap1\n  pop\n  jump\t// out\n    /* \"#utility.yul\":1945:2214   */\ntag_27:\n    /* \"#utility.yul\":2055:2094   */\n  tag_57\n    /* \"#utility.yul\":2086:2093   */\n  dup4\n    /* \"#utility.yul\":2055:2094   */\n  tag_25\n  jump\t// in\ntag_57:\n    /* \"#utility.yul\":2116:2207   */\n  tag_58\n    /* \"#utility.yul\":2165:2206   */\n  tag_59\n    /* \"#utility.yul\":2189:2205   */\n  dup3\n    /* \"#utility.yul\":2165:2206   */\n  tag_26\n  jump\t// in\ntag_59:\n    /* \"#utility.yul\":2157:2163   */\n  dup5\n    /* \"#utility.yul\":2150:2154   */\n  dup5\n    /* \"#utility.yul\":2144:2155   */\n  sload\n    /* \"#utility.yul\":2116:2207   */\n  tag_22\n  jump\t// in\ntag_58:\n    /* \"#utility.yul\":2110:2114   */\n  dup3\n    /* \"#utility.yul\":2103:2208   */\n  sstore\n    /* \"#utility.yul\":2021:2214   */\n  pop\n    /* \"#utility.yul\":1945:2214   */\n  pop\n  pop\n  pop\n  jump\t// out\n    /* \"#utility.yul\":2220:2293   */\ntag_28:\n    /* \"#utility.yul\":2265:2268   */\n  0x00\n    /* \"#utility.yul\":2220:2293   */\n  swap1\n  jump\t// out\n    /* \"#utility.yul\":2299:2488   */\ntag_29:\n    /* \"#utility.yul\":2376:2408   */\n  tag_62\n  tag_28\n  jump\t// in\ntag_62:\n    /* \"#utility.yul\":2417:2482   */\n  tag_63\n    /* \"#utility.yul\":2475:2481   */\n  dup2\n    /* \"#utility.yul\":2467:2473   */\n  dup5\n    /* \"#utility.yul\":2461:2465   */\n  dup5\n    /* \"#utility.yul\":2417:2482   */\n  tag_27\n  jump\t// in\ntag_63:\n    /* \"#utility.yul\":2352:2488   */\n  pop\n    /* \"#utility.yul\":2299:2488   */\n  pop\n  pop\n  jump\t// out\n    /* \"#utility.yul\":2494:2680   */\ntag_30:\n    /* \"#utility.yul\":2554:2674   */\ntag_65:\n    /* \"#utility.yul\":2571:2574   */\n  dup2\n    /* \"#utility.yul\":2564:2569   */\n  dup2\n    /* \"#utility.yul\":2561:2575   */\n  lt\n    /* \"#utility.yul\":2554:2674   */\n  iszero\n  tag_67\n  jumpi\n    /* \"#utility.yul\":2625:2664   */\n  tag_68\n    /* \"#utility.yul\":2662:2663   */\n  0x00\n    /* \"#utility.yul\":2655:2660   */\n  dup3\n    /* \"#utility.yul\":2625:2664   */\n  tag_29\n  jump\t// in\ntag_68:\n    /* \"#utility.yul\":2598:2599   */\n  0x01\n    /* \"#utility.yul\":2591:2596   */\n  dup2\n    /* \"#utility.yul\":2587:2600   */\n  add\n    /* \"#utility.yul\":2578:2600   */\n  swap1\n  pop\n    /* \"#utility.yul\":2554:2674   */\n  jump(tag_65)\ntag_67:\n    /* \"#utility.yul\":2494:2680   */\n  pop\n  pop\n  jump\t// out\n    /* \"#utility.yul\":2686:3227   */\ntag_31:\n    /* \"#utility.yul\":2786:2788   */\n  0x1f\n    /* \"#utility.yul\":2781:2784   */\n  dup3\n    /* \"#utility.yul\":2778:2789   */\n  gt\n    /* \"#utility.yul\":2775:3220   */\n  iszero\n  tag_70\n  jumpi\n    /* \"#utility.yul\":2820:2857   */\n  tag_71\n    /* \"#utility.yul\":2851:2856   */\n  dup2\n    /* \"#utility.yul\":2820:2857   */\n  tag_19\n  jump\t// in\ntag_71:\n    /* \"#utility.yul\":2903:2932   */\n  tag_72\n    /* \"#utility.yul\":2921:2931   */\n  dup5\n    /* \"#utility.yul\":2903:2932   */\n  tag_20\n  jump\t// in\ntag_72:\n    /* \"#utility.yul\":2893:2901   */\n  dup2\n    /* \"#utility.yul\":2889:2933   */\n  add\n    /* \"#utility.yul\":3086:3088   */\n  0x20\n    /* \"#utility.yul\":3074:3084   */\n  dup6\n    /* \"#utility.yul\":3071:3089   */\n  lt\n    /* \"#utility.yul\":3068:3117   */\n  iszero\n  tag_73\n  jumpi\n    /* \"#utility.yul\":3107:3115   */\n  dup2\n    /* \"#utility.yul\":3092:3115   */\n  swap1\n  pop\n    /* \"#utility.yul\":3068:3117   */\ntag_73:\n    /* \"#utility.yul\":3130:3210   */\n  tag_74\n    /* \"#utility.yul\":3186:3208   */\n  tag_75\n    /* \"#utility.yul\":3204:3207   */\n  dup6\n    /* \"#utility.yul\":3186:3208   */\n  tag_20\n  jump\t// in\ntag_75:\n    /* \"#utility.yul\":3176:3184   */\n  dup4\n    /* \"#utility.yul\":3172:3209   */\n  add\n    /* \"#utility.yul\":3159:3170   */\n  dup3\n    /* \"#utility.yul\":3130:3210   */\n  tag_30\n  jump\t// in\ntag_74:\n    /* \"#utility.yul\":2790:3220   */\n  pop\n  pop\n    /* \"#utility.yul\":2775:3220   */\ntag_70:\n    /* \"#utility.yul\":2686:3227   */\n  pop\n  pop\n  pop\n  jump\t// out\n    /* \"#utility.yul\":3233:3350   */\ntag_32:\n    /* \"#utility.yul\":3287:3295   */\n  0x00\n    /* \"#utility.yul\":3337:3342   */\n  dup3\n    /* \"#utility.yul\":3331:3335   */\n  dup3\n    /* \"#utility.yul\":3327:3343   */\n  shr\n    /* \"#utility.yul\":3306:3343   */\n  swap1\n  pop\n    /* \"#utility.yul\":3233:3350   */\n  swap3\n  swap2\n  pop\n  pop\n  jump\t// out\n    /* \"#utility.yul\":3356:3525   */\ntag_33:\n    /* \"#utility.yul\":3400:3406   */\n  0x00\n    /* \"#utility.yul\":3433:3484   */\n  tag_78\n    /* \"#utility.yul\":3481:3482   */\n  0x00\n    /* \"#utility.yul\":3477:3483   */\n  not\n    /* \"#utility.yul\":3469:3474   */\n  dup5\n    /* \"#utility.yul\":3466:3467   */\n  0x08\n    /* \"#utility.yul\":3462:3475   */\n  mul\n    /* \"#utility.yul\":3433:3484   */\n  tag_32\n  jump\t// in\ntag_78:\n    /* \"#utility.yul\":3429:3485   */\n  not\n    /* \"#utility.yul\":3514:3518   */\n  dup1\n    /* \"#utility.yul\":3508:3512   */\n  dup4\n    /* \"#utility.yul\":3504:3519   */\n  and\n    /* \"#utility.yul\":3494:3519   */\n  swap2\n  pop\n    /* \"#utility.yul\":3407:3525   */\n  pop\n    /* \"#utility.yul\":3356:3525   */\n  swap3\n  swap2\n  pop\n  pop\n  jump\t// out\n    /* \"#utility.yul\":3530:3825   */\ntag_34:\n    /* \"#utility.yul\":3606:3610   */\n  0x00\n    /* \"#utility.yul\":3752:3781   */\n  tag_80\n    /* \"#utility.yul\":3777:3780   */\n  dup4\n    /* \"#utility.yul\":3771:3775   */\n  dup4\n    /* \"#utility.yul\":3752:3781   */\n  tag_33\n  jump\t// in\ntag_80:\n    /* \"#utility.yul\":3744:3781   */\n  swap2\n  pop\n    /* \"#utility.yul\":3814:3817   */\n  dup3\n    /* \"#utility.yul\":3811:3812   */\n  0x02\n    /* \"#utility.yul\":3807:3818   */\n  mul\n    /* \"#utility.yul\":3801:3805   */\n  dup3\n    /* \"#utility.yul\":3798:3819   */\n  or\n    /* \"#utility.yul\":3790:3819   */\n  swap1\n  pop\n    /* \"#utility.yul\":3530:3825   */\n  swap3\n  swap2\n  pop\n  pop\n  jump\t// out\n    /* \"#utility.yul\":3830:5222   */\ntag_4:\n    /* \"#utility.yul\":3946:3983   */\n  tag_82\n    /* \"#utility.yul\":3979:3982   */\n  dup3\n    /* \"#utility.yul\":3946:3983   */\n  tag_15\n  jump\t// in\ntag_82:\n    /* \"#utility.yul\":4048:4066   */\n  0xffffffffffffffff\n    /* \"#utility.yul\":4040:4046   */\n  dup2\n    /* \"#utility.yul\":4037:4067   */\n  gt\n    /* \"#utility.yul\":4034:4090   */\n  iszero\n  tag_83\n  jumpi\n    /* \"#utility.yul\":4070:4088   */\n  tag_84\n  tag_16\n  jump\t// in\ntag_84:\n    /* \"#utility.yul\":4034:4090   */\ntag_83:\n    /* \"#utility.yul\":4114:4152   */\n  tag_85\n    /* \"#utility.yul\":4146:4150   */\n  dup3\n    /* \"#utility.yul\":4140:4151   */\n  sload\n    /* \"#utility.yul\":4114:4152   */\n  tag_18\n  jump\t// in\ntag_85:\n    /* \"#utility.yul\":4199:4265   */\n  tag_86\n    /* \"#utility.yul\":4258:4264   */\n  dup3\n    /* \"#utility.yul\":4250:4256   */\n  dup3\n    /* \"#utility.yul\":4244:4248   */\n  dup6\n    /* \"#utility.yul\":4199:4265   */\n  tag_31\n  jump\t// in\ntag_86:\n    /* \"#utility.yul\":4292:4293   */\n  0x00\n    /* \"#utility.yul\":4316:4320   */\n  0x20\n    /* \"#utility.yul\":4303:4320   */\n  swap1\n  pop\n    /* \"#utility.yul\":4348:4350   */\n  0x1f\n    /* \"#utility.yul\":4340:4346   */\n  dup4\n    /* \"#utility.yul\":4337:4351   */\n  gt\n    /* \"#utility.yul\":4365:4366   */\n  0x01\n    /* \"#utility.yul\":4360:4977   */\n  dup2\n  eq\n  tag_88\n  jumpi\n    /* \"#utility.yul\":5021:5022   */\n  0x00\n    /* \"#utility.yul\":5038:5044   */\n  dup5\n    /* \"#utility.yul\":5035:5112   */\n  iszero\n  tag_89\n  jumpi\n    /* \"#utility.yul\":5087:5096   */\n  dup3\n    /* \"#utility.yul\":5082:5085   */\n  dup8\n    /* \"#utility.yul\":5078:5097   */\n  add\n    /* \"#utility.yul\":5072:5098   */\n  mload\n    /* \"#utility.yul\":5063:5098   */\n  swap1\n  pop\n    /* \"#utility.yul\":5035:5112   */\ntag_89:\n    /* \"#utility.yul\":5138:5205   */\n  tag_90\n    /* \"#utility.yul\":5198:5204   */\n  dup6\n    /* \"#utility.yul\":5191:5196   */\n  dup3\n    /* \"#utility.yul\":5138:5205   */\n  tag_34\n  jump\t// in\ntag_90:\n    /* \"#utility.yul\":5132:5136   */\n  dup7\n    /* \"#utility.yul\":5125:5206   */\n  sstore\n    /* \"#utility.yul\":4994:5216   */\n  pop\n    /* \"#utility.yul\":4330:5216   */\n  jump(tag_87)\n    /* \"#utility.yul\":4360:4977   */\ntag_88:\n    /* \"#utility.yul\":4412:4416   */\n  0x1f\n    /* \"#utility.yul\":4408:4417   */\n  not\n    /* \"#utility.yul\":4400:4406   */\n  dup5\n    /* \"#utility.yul\":4396:4418   */\n  and\n    /* \"#utility.yul\":4446:4482   */\n  tag_91\n    /* \"#utility.yul\":4477:4481   */\n  dup7\n    /* \"#utility.yul\":4446:4482   */\n  tag_19\n  jump\t// in\ntag_91:\n    /* \"#utility.yul\":4504:4505   */\n  0x00\n    /* \"#utility.yul\":4518:4726   */\ntag_92:\n    /* \"#utility.yul\":4532:4539   */\n  dup3\n    /* \"#utility.yul\":4529:4530   */\n  dup2\n    /* \"#utility.yul\":4526:4540   */\n  lt\n    /* \"#utility.yul\":4518:4726   */\n  iszero\n  tag_94\n  jumpi\n    /* \"#utility.yul\":4611:4620   */\n  dup5\n    /* \"#utility.yul\":4606:4609   */\n  dup10\n    /* \"#utility.yul\":4602:4621   */\n  add\n    /* \"#utility.yul\":4596:4622   */\n  mload\n    /* \"#utility.yul\":4588:4594   */\n  dup3\n    /* \"#utility.yul\":4581:4623   */\n  sstore\n    /* \"#utility.yul\":4662:4663   */\n  0x01\n    /* \"#utility.yul\":4654:4660   */\n  dup3\n    /* \"#utility.yul\":4650:4664   */\n  add\n    /* \"#utility.yul\":4640:4664   */\n  swap2\n  pop\n    /* \"#utility.yul\":4709:4711   */\n  0x20\n    /* \"#utility.yul\":4698:4707   */\n  dup6\n    /* \"#utility.yul\":4694:4712   */\n  add\n    /* \"#utility.yul\":4681:4712   */\n  swap5\n  pop\n    /* \"#utility.yul\":4555:4559   */\n  0x20\n    /* \"#utility.yul\":4552:4553   */\n  dup2\n    /* \"#utility.yul\":4548:4560   */\n  add\n    /* \"#utility.yul\":4543:4560   */\n  swap1\n  pop\n    /* \"#utility.yul\":4518:4726   */\n  jump(tag_92)\ntag_94:\n    /* \"#utility.yul\":4754:4760   */\n  dup7\n    /* \"#utility.yul\":4745:4752   */\n  dup4\n    /* \"#utility.yul\":4742:4761   */\n  lt\n    /* \"#utility.yul\":4739:4918   */\n  iszero\n  tag_95\n  jumpi\n    /* \"#utility.yul\":4812:4821   */\n  dup5\n    /* \"#utility.yul\":4807:4810   */\n  dup10\n    /* \"#utility.yul\":4803:4822   */\n  add\n    /* \"#utility.yul\":4797:4823   */\n  mload\n    /* \"#utility.yul\":4855:4903   */\n  tag_96\n    /* \"#utility.yul\":4897:4901   */\n  0x1f\n    /* \"#utility.yul\":4889:4895   */\n  dup10\n    /* \"#utility.yul\":4885:4902   */\n  and\n    /* \"#utility.yul\":4874:4883   */\n  dup3\n    /* \"#utility.yul\":4855:4903   */\n  tag_33\n  jump\t// in\ntag_96:\n    /* \"#utility.yul\":4847:4853   */\n  dup4\n    /* \"#utility.yul\":4840:4904   */\n  sstore\n    /* \"#utility.yul\":4762:4918   */\n  pop\n    /* \"#utility.yul\":4739:4918   */\ntag_95:\n    /* \"#utility.yul\":4964:4965   */\n  0x01\n    /* \"#utility.yul\":4960:4961   */\n  0x02\n    /* \"#utility.yul\":4952:4958   */\n  dup9\n    /* \"#utility.yul\":4948:4962   */\n  mul\n    /* \"#utility.yul\":4944:4966   */\n  add\n    /* \"#utility.yul\":4938:4942   */\n  dup9\n    /* \"#utility.yul\":4931:4967   */\n  sstore\n    /* \"#utility.yul\":4367:4977   */\n  pop\n  pop\n  pop\n    /* \"#utility.yul\":4330:5216   */\ntag_87:\n  pop\n    /* \"#utility.yul\":3921:5222   */\n  pop\n  pop\n  pop\n    /* \"#utility.yul\":3830:5222   */\n  pop\n  pop\n  jump\t// out\n    /* \"lesson_4_enum_array_byte_struct/Demo.sol\":62:2707  contract Demo {... */\ntag_7:\n  dataSize(sub_0)\n  dup1\n  dataOffset(sub_0)\n  0x00\n  codecopy\n  0x00\n  return\nstop\n\nsub_0: assembly {\n        /* \"lesson_4_enum_array_byte_struct/Demo.sol\":62:2707  contract Demo {... */\n      mstore(0x40, 0x80)\n      jumpi(tag_1, lt(calldatasize, 0x04))\n      shr(0xe0, calldataload(0x00))\n      dup1\n      0xa34343c9\n      gt\n      tag_22\n      jumpi\n      dup1\n      0xc6b91540\n      gt\n      tag_23\n      jumpi\n      dup1\n      0xc6b91540\n      eq\n      tag_17\n      jumpi\n      dup1\n      0xd9d7d170\n      eq\n      tag_18\n      jumpi\n      dup1\n      0xef8a9235\n      eq\n      tag_19\n      jumpi\n      dup1\n      0xf81e919f\n      eq\n      tag_20\n      jumpi\n      dup1\n      0xffb1e210\n      eq\n      tag_21\n      jumpi\n      jump(tag_1)\n    tag_23:\n      dup1\n      0xa34343c9\n      eq\n      tag_12\n      jumpi\n      dup1\n      0xa9e10bf2\n      eq\n      tag_13\n      jumpi\n      dup1\n      0xaae08573\n      eq\n      tag_14\n      jumpi\n      dup1\n      0xb48329c1\n      eq\n      tag_15\n      jumpi\n      dup1\n      0xc354cef3\n      eq\n      tag_16\n      jumpi\n      jump(tag_1)\n    tag_22:\n      dup1\n      0x2b66d72e\n      gt\n      tag_24\n      jumpi\n      dup1\n      0x2b66d72e\n      eq\n      tag_7\n      jumpi\n      dup1\n      0x31e838dd\n      eq\n      tag_8\n      jumpi\n      dup1\n      0x4206a43d\n      eq\n      tag_9\n      jumpi\n      dup1\n      0x56d88e27\n      eq\n      tag_10\n      jumpi\n      dup1\n      0x977a767c\n      eq\n      tag_11\n      jumpi\n      jump(tag_1)\n    tag_24:\n      dup1\n      0x09f8c2e5\n      eq\n      tag_2\n      jumpi\n      dup1\n      0x1ab5d260\n      eq\n      tag_3\n      jumpi\n      dup1\n      0x1b9265b8\n      eq\n      tag_4\n      jumpi\n      dup1\n      0x209ba484\n      eq\n      tag_5\n      jumpi\n      dup1\n      0x27e235e3\n      eq\n      tag_6\n      jumpi\n    tag_1:\n      0x00\n      dup1\n      revert\n        /* \"lesson_4_enum_array_byte_struct/Demo.sol\":1657:1838  function lengthBytesArray() public view returns(uint) {... */\n    tag_2:\n      callvalue\n      dup1\n      iszero\n      tag_25\n      jumpi\n      0x00\n      dup1\n      revert\n    tag_25:\n      pop\n      tag_26\n      tag_27\n      jump\t// in\n    tag_26:\n      mload(0x40)\n      tag_28\n      swap2\n      swap1\n      tag_29\n      jump\t// in\n    tag_28:\n      mload(0x40)\n      dup1\n      swap2\n      sub\n      swap1\n      return\n        /* \"lesson_4_enum_array_byte_struct/Demo.sol\":263:345  function transferTo() public {... */\n    tag_3:\n      callvalue\n      dup1\n      iszero\n      tag_30\n      jumpi\n      0x00\n      dup1\n      revert\n    tag_30:\n      pop\n      tag_31\n      tag_32\n      jump\t// in\n    tag_31:\n      stop\n        /* \"lesson_4_enum_array_byte_struct/Demo.sol\":187:255  function pay() public {... */\n    tag_4:\n      callvalue\n      dup1\n      iszero\n      tag_33\n      jumpi\n      0x00\n      dup1\n      revert\n    tag_33:\n      pop\n      tag_34\n      tag_35\n      jump\t// in\n    tag_34:\n      stop\n        /* \"lesson_4_enum_array_byte_struct/Demo.sol\":1590:1648  bytes public myDynKirilVar = unicode\"привет мир!\" */\n    tag_5:\n      callvalue\n      dup1\n      iszero\n      tag_36\n      jumpi\n      0x00\n      dup1\n      revert\n    tag_36:\n      pop\n      tag_37\n      tag_38\n      jump\t// in\n    tag_37:\n      mload(0x40)\n      tag_39\n      swap2\n      swap1\n      tag_40\n      jump\t// in\n    tag_39:\n      mload(0x40)\n      dup1\n      swap2\n      sub\n      swap1\n      return\n        /* \"lesson_4_enum_array_byte_struct/Demo.sol\":2091:2135  mapping (address => Balance) public balances */\n    tag_6:\n      callvalue\n      dup1\n      iszero\n      tag_41\n      jumpi\n      0x00\n      dup1\n      revert\n    tag_41:\n      pop\n      tag_42\n      0x04\n      dup1\n      calldatasize\n      sub\n      dup2\n      add\n      swap1\n      tag_43\n      swap2\n      swap1\n      tag_44\n      jump\t// in\n    tag_43:\n      tag_45\n      jump\t// in\n    tag_42:\n      mload(0x40)\n      tag_46\n      swap2\n      swap1\n      tag_29\n      jump\t// in\n    tag_46:\n      mload(0x40)\n      dup1\n      swap2\n      sub\n      swap1\n      return\n        /* \"lesson_4_enum_array_byte_struct/Demo.sol\":2294:2704  function pay(string memory message) public payable {... */\n    tag_7:\n      tag_47\n      0x04\n      dup1\n      calldatasize\n      sub\n      dup2\n      add\n      swap1\n      tag_48\n      swap2\n      swap1\n      tag_49\n      jump\t// in\n    tag_48:\n      tag_50\n      jump\t// in\n    tag_47:\n      stop\n        /* \"lesson_4_enum_array_byte_struct/Demo.sol\":531:554  uint[5][6] public items */\n    tag_8:\n      callvalue\n      dup1\n      iszero\n      tag_51\n      jumpi\n      0x00\n      dup1\n      revert\n    tag_51:\n      pop\n      tag_52\n      0x04\n      dup1\n      calldatasize\n      sub\n      dup2\n      add\n      swap1\n      tag_53\n      swap2\n      swap1\n      tag_54\n      jump\t// in\n    tag_53:\n      tag_55\n      jump\t// in\n    tag_52:\n      mload(0x40)\n      tag_56\n      swap2\n      swap1\n      tag_29\n      jump\t// in\n    tag_56:\n      mload(0x40)\n      dup1\n      swap2\n      sub\n      swap1\n      return\n        /* \"lesson_4_enum_array_byte_struct/Demo.sol\":456:479  uint[7] public itemsOne */\n    tag_9:\n      callvalue\n      dup1\n      iszero\n      tag_57\n      jumpi\n      0x00\n      dup1\n      revert\n    tag_57:\n      pop\n      tag_58\n      0x04\n      dup1\n      calldatasize\n      sub\n      dup2\n      add\n      swap1\n      tag_59\n      swap2\n      swap1\n      tag_60\n      jump\t// in\n    tag_59:\n      tag_61\n      jump\t// in\n    tag_58:\n      mload(0x40)\n      tag_62\n      swap2\n      swap1\n      tag_29\n      jump\t// in\n    tag_62:\n      mload(0x40)\n      dup1\n      swap2\n      sub\n      swap1\n      return\n        /* \"lesson_4_enum_array_byte_struct/Demo.sol\":1031:1046  uint public len */\n    tag_10:\n      callvalue\n      dup1\n      iszero\n      tag_63\n      jumpi\n      0x00\n      dup1\n      revert\n    tag_63:\n      pop\n      tag_64\n      tag_65\n      jump\t// in\n    tag_64:\n      mload(0x40)\n      tag_66\n      swap2\n      swap1\n      tag_29\n      jump\t// in\n    tag_66:\n      mload(0x40)\n      dup1\n      swap2\n      sub\n      swap1\n      return\n        /* \"lesson_4_enum_array_byte_struct/Demo.sol\":2144:2286  function getPayment(address _addr, uint _index) public view returns(Payment memory) {... */\n    tag_11:\n      callvalue\n      dup1\n      iszero\n      tag_67\n      jumpi\n      0x00\n      dup1\n      revert\n    tag_67:\n      pop\n      tag_68\n      0x04\n      dup1\n      calldatasize\n      sub\n      dup2\n      add\n      swap1\n      tag_69\n      swap2\n      swap1\n      tag_70\n      jump\t// in\n    tag_69:\n      tag_71\n      jump\t// in\n    tag_68:\n      mload(0x40)\n      tag_72\n      swap2\n      swap1\n      tag_73\n      jump\t// in\n    tag_72:\n      mload(0x40)\n      dup1\n      swap2\n      sub\n      swap1\n      return\n        /* \"lesson_4_enum_array_byte_struct/Demo.sol\":1234:1433  function sampleMemory() public view returns(uint[] memory) {... */\n    tag_12:\n      callvalue\n      dup1\n      iszero\n      tag_74\n      jumpi\n      0x00\n      dup1\n      revert\n    tag_74:\n      pop\n      tag_75\n      tag_76\n      jump\t// in\n    tag_75:\n      mload(0x40)\n      tag_77\n      swap2\n      swap1\n      tag_78\n      jump\t// in\n    tag_77:\n      mload(0x40)\n      dup1\n      swap2\n      sub\n      swap1\n      return\n        /* \"lesson_4_enum_array_byte_struct/Demo.sol\":353:429  function recieve() public {... */\n    tag_13:\n      callvalue\n      dup1\n      iszero\n      tag_79\n      jumpi\n      0x00\n      dup1\n      revert\n    tag_79:\n      pop\n      tag_80\n      tag_81\n      jump\t// in\n    tag_80:\n      stop\n        /* \"lesson_4_enum_array_byte_struct/Demo.sol\":998:1024  uint[] public itemsDynamic */\n    tag_14:\n      callvalue\n      dup1\n      iszero\n      tag_82\n      jumpi\n      0x00\n      dup1\n      revert\n    tag_82:\n      pop\n      tag_83\n      0x04\n      dup1\n      calldatasize\n      sub\n      dup2\n      add\n      swap1\n      tag_84\n      swap2\n      swap1\n      tag_60\n      jump\t// in\n    tag_84:\n      tag_85\n      jump\t// in\n    tag_83:\n      mload(0x40)\n      tag_86\n      swap2\n      swap1\n      tag_29\n      jump\t// in\n    tag_86:\n      mload(0x40)\n      dup1\n      swap2\n      sub\n      swap1\n      return\n        /* \"lesson_4_enum_array_byte_struct/Demo.sol\":486:524  uint[7] public itemsTwo = [1, 2, 3, 7] */\n    tag_15:\n      callvalue\n      dup1\n      iszero\n      tag_87\n      jumpi\n      0x00\n      dup1\n      revert\n    tag_87:\n      pop\n      tag_88\n      0x04\n      dup1\n      calldatasize\n      sub\n      dup2\n      add\n      swap1\n      tag_89\n      swap2\n      swap1\n      tag_60\n      jump\t// in\n    tag_89:\n      tag_90\n      jump\t// in\n    tag_88:\n      mload(0x40)\n      tag_91\n      swap2\n      swap1\n      tag_29\n      jump\t// in\n    tag_91:\n      mload(0x40)\n      dup1\n      swap2\n      sub\n      swap1\n      return\n        /* \"lesson_4_enum_array_byte_struct/Demo.sol\":563:681  function itemsAdd() public {... */\n    tag_16:\n      callvalue\n      dup1\n      iszero\n      tag_92\n      jumpi\n      0x00\n      dup1\n      revert\n    tag_92:\n      pop\n      tag_93\n      tag_94\n      jump\t// in\n    tag_93:\n      stop\n        /* \"lesson_4_enum_array_byte_struct/Demo.sol\":1453:1487  bytes32 public myVar = \"test here\" */\n    tag_17:\n      callvalue\n      dup1\n      iszero\n      tag_95\n      jumpi\n      0x00\n      dup1\n      revert\n    tag_95:\n      pop\n      tag_96\n      tag_97\n      jump\t// in\n    tag_96:\n      mload(0x40)\n      tag_98\n      swap2\n      swap1\n      tag_99\n      jump\t// in\n    tag_98:\n      mload(0x40)\n      dup1\n      swap2\n      sub\n      swap1\n      return\n        /* \"lesson_4_enum_array_byte_struct/Demo.sol\":1055:1226  function itemsDynamicAdd() public {... */\n    tag_18:\n      callvalue\n      dup1\n      iszero\n      tag_100\n      jumpi\n      0x00\n      dup1\n      revert\n    tag_100:\n      pop\n      tag_101\n      tag_102\n      jump\t// in\n    tag_101:\n      stop\n        /* \"lesson_4_enum_array_byte_struct/Demo.sol\":151:178  Status public currentStatus */\n    tag_19:\n      callvalue\n      dup1\n      iszero\n      tag_103\n      jumpi\n      0x00\n      dup1\n      revert\n    tag_103:\n      pop\n      tag_104\n      tag_105\n      jump\t// in\n    tag_104:\n      mload(0x40)\n      tag_106\n      swap2\n      swap1\n      tag_107\n      jump\t// in\n    tag_106:\n      mload(0x40)\n      dup1\n      swap2\n      sub\n      swap1\n      return\n        /* \"lesson_4_enum_array_byte_struct/Demo.sol\":693:969  function itemsMatrixAdd() public {... */\n    tag_20:\n      callvalue\n      dup1\n      iszero\n      tag_108\n      jumpi\n      0x00\n      dup1\n      revert\n    tag_108:\n      pop\n      tag_109\n      tag_110\n      jump\t// in\n    tag_109:\n      stop\n        /* \"lesson_4_enum_array_byte_struct/Demo.sol\":1548:1583  bytes public myDynVar = \"test here\" */\n    tag_21:\n      callvalue\n      dup1\n      iszero\n      tag_111\n      jumpi\n      0x00\n      dup1\n      revert\n    tag_111:\n      pop\n      tag_112\n      tag_113\n      jump\t// in\n    tag_112:\n      mload(0x40)\n      tag_114\n      swap2\n      swap1\n      tag_40\n      jump\t// in\n    tag_114:\n      mload(0x40)\n      dup1\n      swap2\n      sub\n      swap1\n      return\n        /* \"lesson_4_enum_array_byte_struct/Demo.sol\":1657:1838  function lengthBytesArray() public view returns(uint) {... */\n    tag_27:\n        /* \"lesson_4_enum_array_byte_struct/Demo.sol\":1705:1709  uint */\n      0x00\n        /* \"lesson_4_enum_array_byte_struct/Demo.sol\":1729:1737  myDynVar */\n      0x30\n        /* \"lesson_4_enum_array_byte_struct/Demo.sol\":1729:1744  myDynVar.length */\n      dup1\n      sload\n      tag_116\n      swap1\n      tag_117\n      jump\t// in\n    tag_116:\n      swap1\n      pop\n        /* \"lesson_4_enum_array_byte_struct/Demo.sol\":1722:1744  return myDynVar.length */\n      swap1\n      pop\n        /* \"lesson_4_enum_array_byte_struct/Demo.sol\":1657:1838  function lengthBytesArray() public view returns(uint) {... */\n      swap1\n      jump\t// out\n        /* \"lesson_4_enum_array_byte_struct/Demo.sol\":263:345  function transferTo() public {... */\n    tag_32:\n        /* \"lesson_4_enum_array_byte_struct/Demo.sol\":319:337  Status.Transfering */\n      0x02\n        /* \"lesson_4_enum_array_byte_struct/Demo.sol\":303:316  currentStatus */\n      0x00\n      dup1\n        /* \"lesson_4_enum_array_byte_struct/Demo.sol\":303:337  currentStatus = Status.Transfering */\n      0x0100\n      exp\n      dup2\n      sload\n      dup2\n      0xff\n      mul\n      not\n      and\n      swap1\n      dup4\n      0x03\n      dup2\n      gt\n      iszero\n      tag_119\n      jumpi\n      tag_120\n      tag_121\n      jump\t// in\n    tag_120:\n    tag_119:\n      mul\n      or\n      swap1\n      sstore\n      pop\n        /* \"lesson_4_enum_array_byte_struct/Demo.sol\":263:345  function transferTo() public {... */\n      jump\t// out\n        /* \"lesson_4_enum_array_byte_struct/Demo.sol\":187:255  function pay() public {... */\n    tag_35:\n        /* \"lesson_4_enum_array_byte_struct/Demo.sol\":236:247  Status.Paid */\n      0x01\n        /* \"lesson_4_enum_array_byte_struct/Demo.sol\":220:233  currentStatus */\n      0x00\n      dup1\n        /* \"lesson_4_enum_array_byte_struct/Demo.sol\":220:247  currentStatus = Status.Paid */\n      0x0100\n      exp\n      dup2\n      sload\n      dup2\n      0xff\n      mul\n      not\n      and\n      swap1\n      dup4\n      0x03\n      dup2\n      gt\n      iszero\n      tag_123\n      jumpi\n      tag_124\n      tag_121\n      jump\t// in\n    tag_124:\n    tag_123:\n      mul\n      or\n      swap1\n      sstore\n      pop\n        /* \"lesson_4_enum_array_byte_struct/Demo.sol\":187:255  function pay() public {... */\n      jump\t// out\n        /* \"lesson_4_enum_array_byte_struct/Demo.sol\":1590:1648  bytes public myDynKirilVar = unicode\"привет мир!\" */\n    tag_38:\n      0x31\n      dup1\n      sload\n      tag_125\n      swap1\n      tag_117\n      jump\t// in\n    tag_125:\n      dup1\n      0x1f\n      add\n      0x20\n      dup1\n      swap2\n      div\n      mul\n      0x20\n      add\n      mload(0x40)\n      swap1\n      dup2\n      add\n      0x40\n      mstore\n      dup1\n      swap3\n      swap2\n      swap1\n      dup2\n      dup2\n      mstore\n      0x20\n      add\n      dup3\n      dup1\n      sload\n      tag_126\n      swap1\n      tag_117\n      jump\t// in\n    tag_126:\n      dup1\n      iszero\n      tag_127\n      jumpi\n      dup1\n      0x1f\n      lt\n      tag_128\n      jumpi\n      0x0100\n      dup1\n      dup4\n      sload\n      div\n      mul\n      dup4\n      mstore\n      swap2\n      0x20\n      add\n      swap2\n      jump(tag_127)\n    tag_128:\n      dup3\n      add\n      swap2\n      swap1\n      0x00\n      mstore\n      keccak256(0x00, 0x20)\n      swap1\n    tag_129:\n      dup2\n      sload\n      dup2\n      mstore\n      swap1\n      0x01\n      add\n      swap1\n      0x20\n      add\n      dup1\n      dup4\n      gt\n      tag_129\n      jumpi\n      dup3\n      swap1\n      sub\n      0x1f\n      and\n      dup3\n      add\n      swap2\n    tag_127:\n      pop\n      pop\n      pop\n      pop\n      pop\n      dup2\n      jump\t// out\n        /* \"lesson_4_enum_array_byte_struct/Demo.sol\":2091:2135  mapping (address => Balance) public balances */\n    tag_45:\n      mstore(0x20, 0x32)\n      dup1\n      0x00\n      mstore\n      keccak256(0x00, 0x40)\n      0x00\n      swap2\n      pop\n      swap1\n      pop\n      dup1\n      0x00\n      add\n      sload\n      swap1\n      pop\n      dup2\n      jump\t// out\n        /* \"lesson_4_enum_array_byte_struct/Demo.sol\":2294:2704  function pay(string memory message) public payable {... */\n    tag_50:\n        /* \"lesson_4_enum_array_byte_struct/Demo.sol\":2356:2371  uint paymentNum */\n      0x00\n        /* \"lesson_4_enum_array_byte_struct/Demo.sol\":2374:2382  balances */\n      0x32\n        /* \"lesson_4_enum_array_byte_struct/Demo.sol\":2374:2394  balances[msg.sender] */\n      0x00\n        /* \"lesson_4_enum_array_byte_struct/Demo.sol\":2383:2393  msg.sender */\n      caller\n        /* \"lesson_4_enum_array_byte_struct/Demo.sol\":2374:2394  balances[msg.sender] */\n      0xffffffffffffffffffffffffffffffffffffffff\n      and\n      0xffffffffffffffffffffffffffffffffffffffff\n      and\n      dup2\n      mstore\n      0x20\n      add\n      swap1\n      dup2\n      mstore\n      0x20\n      add\n      0x00\n      keccak256\n        /* \"lesson_4_enum_array_byte_struct/Demo.sol\":2374:2408  balances[msg.sender].totalPayments */\n      0x00\n      add\n      sload\n        /* \"lesson_4_enum_array_byte_struct/Demo.sol\":2356:2408  uint paymentNum = balances[msg.sender].totalPayments */\n      swap1\n      pop\n        /* \"lesson_4_enum_array_byte_struct/Demo.sol\":2429:2437  balances */\n      0x32\n        /* \"lesson_4_enum_array_byte_struct/Demo.sol\":2429:2449  balances[msg.sender] */\n      0x00\n        /* \"lesson_4_enum_array_byte_struct/Demo.sol\":2438:2448  msg.sender */\n      caller\n        /* \"lesson_4_enum_array_byte_struct/Demo.sol\":2429:2449  balances[msg.sender] */\n      0xffffffffffffffffffffffffffffffffffffffff\n      and\n      0xffffffffffffffffffffffffffffffffffffffff\n      and\n      dup2\n      mstore\n      0x20\n      add\n      swap1\n      dup2\n      mstore\n      0x20\n      add\n      0x00\n      keccak256\n        /* \"lesson_4_enum_array_byte_struct/Demo.sol\":2429:2463  balances[msg.sender].totalPayments */\n      0x00\n      add\n      0x00\n        /* \"lesson_4_enum_array_byte_struct/Demo.sol\":2429:2465  balances[msg.sender].totalPayments++ */\n      dup2\n      sload\n      dup1\n      swap3\n      swap2\n      swap1\n      tag_131\n      swap1\n      tag_132\n      jump\t// in\n    tag_131:\n      swap2\n      swap1\n      pop\n      sstore\n      pop\n        /* \"lesson_4_enum_array_byte_struct/Demo.sol\":2478:2503  Payment memory newPayment */\n      0x00\n        /* \"lesson_4_enum_array_byte_struct/Demo.sol\":2506:2625  Payment(... */\n      mload(0x40)\n      dup1\n      0x80\n      add\n      0x40\n      mstore\n      dup1\n        /* \"lesson_4_enum_array_byte_struct/Demo.sol\":2528:2537  msg.value */\n      callvalue\n        /* \"lesson_4_enum_array_byte_struct/Demo.sol\":2506:2625  Payment(... */\n      dup2\n      mstore\n      0x20\n      add\n        /* \"lesson_4_enum_array_byte_struct/Demo.sol\":2552:2567  block.timestamp */\n      timestamp\n        /* \"lesson_4_enum_array_byte_struct/Demo.sol\":2506:2625  Payment(... */\n      dup2\n      mstore\n      0x20\n      add\n        /* \"lesson_4_enum_array_byte_struct/Demo.sol\":2582:2592  msg.sender */\n      caller\n        /* \"lesson_4_enum_array_byte_struct/Demo.sol\":2506:2625  Payment(... */\n      0xffffffffffffffffffffffffffffffffffffffff\n      and\n      dup2\n      mstore\n      0x20\n      add\n        /* \"lesson_4_enum_array_byte_struct/Demo.sol\":2607:2614  message */\n      dup5\n        /* \"lesson_4_enum_array_byte_struct/Demo.sol\":2506:2625  Payment(... */\n      dup2\n      mstore\n      pop\n        /* \"lesson_4_enum_array_byte_struct/Demo.sol\":2478:2625  Payment memory newPayment = Payment(... */\n      swap1\n      pop\n        /* \"lesson_4_enum_array_byte_struct/Demo.sol\":2686:2696  newPayment */\n      dup1\n        /* \"lesson_4_enum_array_byte_struct/Demo.sol\":2642:2650  balances */\n      0x32\n        /* \"lesson_4_enum_array_byte_struct/Demo.sol\":2642:2662  balances[msg.sender] */\n      0x00\n        /* \"lesson_4_enum_array_byte_struct/Demo.sol\":2651:2661  msg.sender */\n      caller\n        /* \"lesson_4_enum_array_byte_struct/Demo.sol\":2642:2662  balances[msg.sender] */\n      0xffffffffffffffffffffffffffffffffffffffff\n      and\n      0xffffffffffffffffffffffffffffffffffffffff\n      and\n      dup2\n      mstore\n      0x20\n      add\n      swap1\n      dup2\n      mstore\n      0x20\n      add\n      0x00\n      keccak256\n        /* \"lesson_4_enum_array_byte_struct/Demo.sol\":2642:2671  balances[msg.sender].payments */\n      0x01\n      add\n        /* \"lesson_4_enum_array_byte_struct/Demo.sol\":2642:2683  balances[msg.sender].payments[paymentNum] */\n      0x00\n        /* \"lesson_4_enum_array_byte_struct/Demo.sol\":2672:2682  paymentNum */\n      dup5\n        /* \"lesson_4_enum_array_byte_struct/Demo.sol\":2642:2683  balances[msg.sender].payments[paymentNum] */\n      dup2\n      mstore\n      0x20\n      add\n      swap1\n      dup2\n      mstore\n      0x20\n      add\n      0x00\n      keccak256\n        /* \"lesson_4_enum_array_byte_struct/Demo.sol\":2642:2696  balances[msg.sender].payments[paymentNum] = newPayment */\n      0x00\n      dup3\n      add\n      mload\n      dup2\n      0x00\n      add\n      sstore\n      0x20\n      dup3\n      add\n      mload\n      dup2\n      0x01\n      add\n      sstore\n      0x40\n      dup3\n      add\n      mload\n      dup2\n      0x02\n      add\n      exp(0x0100, 0x00)\n      dup2\n      sload\n      dup2\n      0xffffffffffffffffffffffffffffffffffffffff\n      mul\n      not\n      and\n      swap1\n      dup4\n      0xffffffffffffffffffffffffffffffffffffffff\n      and\n      mul\n      or\n      swap1\n      sstore\n      pop\n      0x60\n      dup3\n      add\n      mload\n      dup2\n      0x03\n      add\n      swap1\n      dup2\n      tag_133\n      swap2\n      swap1\n      tag_134\n      jump\t// in\n    tag_133:\n      pop\n      swap1\n      pop\n      pop\n        /* \"lesson_4_enum_array_byte_struct/Demo.sol\":2345:2704  {... */\n      pop\n      pop\n        /* \"lesson_4_enum_array_byte_struct/Demo.sol\":2294:2704  function pay(string memory message) public payable {... */\n      pop\n      jump\t// out\n        /* \"lesson_4_enum_array_byte_struct/Demo.sol\":531:554  uint[5][6] public items */\n    tag_55:\n      0x0f\n      dup3\n      0x06\n      dup2\n      lt\n      tag_135\n      jumpi\n      0x00\n      dup1\n      revert\n    tag_135:\n      0x05\n      mul\n      add\n      dup2\n      0x05\n      dup2\n      lt\n      tag_137\n      jumpi\n      0x00\n      dup1\n      revert\n    tag_137:\n      add\n      0x00\n      swap2\n      pop\n      swap2\n      pop\n      pop\n      sload\n      dup2\n      jump\t// out\n        /* \"lesson_4_enum_array_byte_struct/Demo.sol\":456:479  uint[7] public itemsOne */\n    tag_61:\n      0x01\n      dup2\n      0x07\n      dup2\n      lt\n      tag_139\n      jumpi\n      0x00\n      dup1\n      revert\n    tag_139:\n      add\n      0x00\n      swap2\n      pop\n      swap1\n      pop\n      sload\n      dup2\n      jump\t// out\n        /* \"lesson_4_enum_array_byte_struct/Demo.sol\":1031:1046  uint public len */\n    tag_65:\n      sload(0x2e)\n      dup2\n      jump\t// out\n        /* \"lesson_4_enum_array_byte_struct/Demo.sol\":2144:2286  function getPayment(address _addr, uint _index) public view returns(Payment memory) {... */\n    tag_71:\n        /* \"lesson_4_enum_array_byte_struct/Demo.sol\":2212:2226  Payment memory */\n      tag_141\n      tag_142\n      jump\t// in\n    tag_141:\n        /* \"lesson_4_enum_array_byte_struct/Demo.sol\":2246:2254  balances */\n      0x32\n        /* \"lesson_4_enum_array_byte_struct/Demo.sol\":2246:2261  balances[_addr] */\n      0x00\n        /* \"lesson_4_enum_array_byte_struct/Demo.sol\":2255:2260  _addr */\n      dup5\n        /* \"lesson_4_enum_array_byte_struct/Demo.sol\":2246:2261  balances[_addr] */\n      0xffffffffffffffffffffffffffffffffffffffff\n      and\n      0xffffffffffffffffffffffffffffffffffffffff\n      and\n      dup2\n      mstore\n      0x20\n      add\n      swap1\n      dup2\n      mstore\n      0x20\n      add\n      0x00\n      keccak256\n        /* \"lesson_4_enum_array_byte_struct/Demo.sol\":2246:2270  balances[_addr].payments */\n      0x01\n      add\n        /* \"lesson_4_enum_array_byte_struct/Demo.sol\":2246:2278  balances[_addr].payments[_index] */\n      0x00\n        /* \"lesson_4_enum_array_byte_struct/Demo.sol\":2271:2277  _index */\n      dup4\n        /* \"lesson_4_enum_array_byte_struct/Demo.sol\":2246:2278  balances[_addr].payments[_index] */\n      dup2\n      mstore\n      0x20\n      add\n      swap1\n      dup2\n      mstore\n      0x20\n      add\n      0x00\n      keccak256\n        /* \"lesson_4_enum_array_byte_struct/Demo.sol\":2239:2278  return balances[_addr].payments[_index] */\n      mload(0x40)\n      dup1\n      0x80\n      add\n      0x40\n      mstore\n      swap1\n      dup2\n      0x00\n      dup3\n      add\n      sload\n      dup2\n      mstore\n      0x20\n      add\n      0x01\n      dup3\n      add\n      sload\n      dup2\n      mstore\n      0x20\n      add\n      0x02\n      dup3\n      add\n      0x00\n      swap1\n      sload\n      swap1\n      0x0100\n      exp\n      swap1\n      div\n      0xffffffffffffffffffffffffffffffffffffffff\n      and\n      0xffffffffffffffffffffffffffffffffffffffff\n      and\n      0xffffffffffffffffffffffffffffffffffffffff\n      and\n      dup2\n      mstore\n      0x20\n      add\n      0x03\n      dup3\n      add\n      dup1\n      sload\n      tag_144\n      swap1\n      tag_117\n      jump\t// in\n    tag_144:\n      dup1\n      0x1f\n      add\n      0x20\n      dup1\n      swap2\n      div\n      mul\n      0x20\n      add\n      mload(0x40)\n      swap1\n      dup2\n      add\n      0x40\n      mstore\n      dup1\n      swap3\n      swap2\n      swap1\n      dup2\n      dup2\n      mstore\n      0x20\n      add\n      dup3\n      dup1\n      sload\n      tag_145\n      swap1\n      tag_117\n      jump\t// in\n    tag_145:\n      dup1\n      iszero\n      tag_146\n      jumpi\n      dup1\n      0x1f\n      lt\n      tag_147\n      jumpi\n      0x0100\n      dup1\n      dup4\n      sload\n      div\n      mul\n      dup4\n      mstore\n      swap2\n      0x20\n      add\n      swap2\n      jump(tag_146)\n    tag_147:\n      dup3\n      add\n      swap2\n      swap1\n      0x00\n      mstore\n      keccak256(0x00, 0x20)\n      swap1\n    tag_148:\n      dup2\n      sload\n      dup2\n      mstore\n      swap1\n      0x01\n      add\n      swap1\n      0x20\n      add\n      dup1\n      dup4\n      gt\n      tag_148\n      jumpi\n      dup3\n      swap1\n      sub\n      0x1f\n      and\n      dup3\n      add\n      swap2\n    tag_146:\n      pop\n      pop\n      pop\n      pop\n      pop\n      dup2\n      mstore\n      pop\n      pop\n      swap1\n      pop\n        /* \"lesson_4_enum_array_byte_struct/Demo.sol\":2144:2286  function getPayment(address _addr, uint _index) public view returns(Payment memory) {... */\n      swap3\n      swap2\n      pop\n      pop\n      jump\t// out\n        /* \"lesson_4_enum_array_byte_struct/Demo.sol\":1234:1433  function sampleMemory() public view returns(uint[] memory) {... */\n    tag_76:\n        /* \"lesson_4_enum_array_byte_struct/Demo.sol\":1278:1291  uint[] memory */\n      0x60\n        /* \"lesson_4_enum_array_byte_struct/Demo.sol\":1304:1327  uint[] memory tempArray */\n      0x00\n        /* \"lesson_4_enum_array_byte_struct/Demo.sol\":1341:1343  10 */\n      0x0a\n        /* \"lesson_4_enum_array_byte_struct/Demo.sol\":1330:1344  new uint[](10) */\n      0xffffffffffffffff\n      dup2\n      gt\n      iszero\n      tag_150\n      jumpi\n      tag_151\n      tag_152\n      jump\t// in\n    tag_151:\n    tag_150:\n      mload(0x40)\n      swap1\n      dup1\n      dup3\n      mstore\n      dup1\n      0x20\n      mul\n      0x20\n      add\n      dup3\n      add\n      0x40\n      mstore\n      dup1\n      iszero\n      tag_153\n      jumpi\n      dup2\n      0x20\n      add\n      0x20\n      dup3\n      mul\n      dup1\n      calldatasize\n      dup4\n      calldatacopy\n      dup1\n      dup3\n      add\n      swap2\n      pop\n      pop\n      swap1\n      pop\n    tag_153:\n      pop\n        /* \"lesson_4_enum_array_byte_struct/Demo.sol\":1304:1344  uint[] memory tempArray = new uint[](10) */\n      swap1\n      pop\n        /* \"lesson_4_enum_array_byte_struct/Demo.sol\":1370:1371  1 */\n      0x01\n        /* \"lesson_4_enum_array_byte_struct/Demo.sol\":1355:1364  tempArray */\n      dup2\n        /* \"lesson_4_enum_array_byte_struct/Demo.sol\":1365:1366  0 */\n      0x00\n        /* \"lesson_4_enum_array_byte_struct/Demo.sol\":1355:1367  tempArray[0] */\n      dup2\n      mload\n      dup2\n      lt\n      tag_154\n      jumpi\n      tag_155\n      tag_156\n      jump\t// in\n    tag_155:\n    tag_154:\n      0x20\n      mul\n      0x20\n      add\n      add\n        /* \"lesson_4_enum_array_byte_struct/Demo.sol\":1355:1371  tempArray[0] = 1 */\n      dup2\n      dup2\n      mstore\n      pop\n      pop\n        /* \"lesson_4_enum_array_byte_struct/Demo.sol\":1397:1398  1 */\n      0x01\n        /* \"lesson_4_enum_array_byte_struct/Demo.sol\":1382:1391  tempArray */\n      dup2\n        /* \"lesson_4_enum_array_byte_struct/Demo.sol\":1392:1393  2 */\n      0x02\n        /* \"lesson_4_enum_array_byte_struct/Demo.sol\":1382:1394  tempArray[2] */\n      dup2\n      mload\n      dup2\n      lt\n      tag_157\n      jumpi\n      tag_158\n      tag_156\n      jump\t// in\n    tag_158:\n    tag_157:\n      0x20\n      mul\n      0x20\n      add\n      add\n        /* \"lesson_4_enum_array_byte_struct/Demo.sol\":1382:1398  tempArray[2] = 1 */\n      dup2\n      dup2\n      mstore\n      pop\n      pop\n        /* \"lesson_4_enum_array_byte_struct/Demo.sol\":1416:1425  tempArray */\n      dup1\n        /* \"lesson_4_enum_array_byte_struct/Demo.sol\":1409:1425  return tempArray */\n      swap2\n      pop\n      pop\n        /* \"lesson_4_enum_array_byte_struct/Demo.sol\":1234:1433  function sampleMemory() public view returns(uint[] memory) {... */\n      swap1\n      jump\t// out\n        /* \"lesson_4_enum_array_byte_struct/Demo.sol\":353:429  function recieve() public {... */\n    tag_81:\n        /* \"lesson_4_enum_array_byte_struct/Demo.sol\":406:421  Status.Recieved */\n      0x03\n        /* \"lesson_4_enum_array_byte_struct/Demo.sol\":390:403  currentStatus */\n      0x00\n      dup1\n        /* \"lesson_4_enum_array_byte_struct/Demo.sol\":390:421  currentStatus = Status.Recieved */\n      0x0100\n      exp\n      dup2\n      sload\n      dup2\n      0xff\n      mul\n      not\n      and\n      swap1\n      dup4\n      0x03\n      dup2\n      gt\n      iszero\n      tag_160\n      jumpi\n      tag_161\n      tag_121\n      jump\t// in\n    tag_161:\n    tag_160:\n      mul\n      or\n      swap1\n      sstore\n      pop\n        /* \"lesson_4_enum_array_byte_struct/Demo.sol\":353:429  function recieve() public {... */\n      jump\t// out\n        /* \"lesson_4_enum_array_byte_struct/Demo.sol\":998:1024  uint[] public itemsDynamic */\n    tag_85:\n      0x2d\n      dup2\n      dup2\n      sload\n      dup2\n      lt\n      tag_162\n      jumpi\n      0x00\n      dup1\n      revert\n    tag_162:\n      swap1\n      0x00\n      mstore\n      keccak256(0x00, 0x20)\n      add\n      0x00\n      swap2\n      pop\n      swap1\n      pop\n      sload\n      dup2\n      jump\t// out\n        /* \"lesson_4_enum_array_byte_struct/Demo.sol\":486:524  uint[7] public itemsTwo = [1, 2, 3, 7] */\n    tag_90:\n      0x08\n      dup2\n      0x07\n      dup2\n      lt\n      tag_164\n      jumpi\n      0x00\n      dup1\n      revert\n    tag_164:\n      add\n      0x00\n      swap2\n      pop\n      swap1\n      pop\n      sload\n      dup2\n      jump\t// out\n        /* \"lesson_4_enum_array_byte_struct/Demo.sol\":563:681  function itemsAdd() public {... */\n    tag_94:\n        /* \"lesson_4_enum_array_byte_struct/Demo.sol\":615:617  10 */\n      0x0a\n        /* \"lesson_4_enum_array_byte_struct/Demo.sol\":601:609  itemsOne */\n      0x01\n        /* \"lesson_4_enum_array_byte_struct/Demo.sol\":610:611  0 */\n      0x00\n        /* \"lesson_4_enum_array_byte_struct/Demo.sol\":601:612  itemsOne[0] */\n      0x07\n      dup2\n      lt\n      tag_167\n      jumpi\n      tag_168\n      tag_156\n      jump\t// in\n    tag_168:\n    tag_167:\n      add\n        /* \"lesson_4_enum_array_byte_struct/Demo.sol\":601:617  itemsOne[0] = 10 */\n      dup2\n      swap1\n      sstore\n      pop\n        /* \"lesson_4_enum_array_byte_struct/Demo.sol\":642:645  100 */\n      0x64\n        /* \"lesson_4_enum_array_byte_struct/Demo.sol\":628:636  itemsOne */\n      0x01\n        /* \"lesson_4_enum_array_byte_struct/Demo.sol\":637:638  1 */\n      dup1\n        /* \"lesson_4_enum_array_byte_struct/Demo.sol\":628:639  itemsOne[1] */\n      0x07\n      dup2\n      lt\n      tag_170\n      jumpi\n      tag_171\n      tag_156\n      jump\t// in\n    tag_171:\n    tag_170:\n      add\n        /* \"lesson_4_enum_array_byte_struct/Demo.sol\":628:645  itemsOne[1] = 100 */\n      dup2\n      swap1\n      sstore\n      pop\n        /* \"lesson_4_enum_array_byte_struct/Demo.sol\":670:673  300 */\n      0x012c\n        /* \"lesson_4_enum_array_byte_struct/Demo.sol\":656:664  itemsOne */\n      0x01\n        /* \"lesson_4_enum_array_byte_struct/Demo.sol\":665:666  3 */\n      0x03\n        /* \"lesson_4_enum_array_byte_struct/Demo.sol\":656:667  itemsOne[3] */\n      0x07\n      dup2\n      lt\n      tag_173\n      jumpi\n      tag_174\n      tag_156\n      jump\t// in\n    tag_174:\n    tag_173:\n      add\n        /* \"lesson_4_enum_array_byte_struct/Demo.sol\":656:673  itemsOne[3] = 300 */\n      dup2\n      swap1\n      sstore\n      pop\n        /* \"lesson_4_enum_array_byte_struct/Demo.sol\":563:681  function itemsAdd() public {... */\n      jump\t// out\n        /* \"lesson_4_enum_array_byte_struct/Demo.sol\":1453:1487  bytes32 public myVar = \"test here\" */\n    tag_97:\n      sload(0x2f)\n      dup2\n      jump\t// out\n        /* \"lesson_4_enum_array_byte_struct/Demo.sol\":1055:1226  function itemsDynamicAdd() public {... */\n    tag_102:\n        /* \"lesson_4_enum_array_byte_struct/Demo.sol\":1100:1112  itemsDynamic */\n      0x2d\n        /* \"lesson_4_enum_array_byte_struct/Demo.sol\":1118:1119  3 */\n      0x03\n        /* \"lesson_4_enum_array_byte_struct/Demo.sol\":1100:1120  itemsDynamic.push(3) */\n      swap1\n      dup1\n      0x01\n      dup2\n      sload\n      add\n      dup1\n      dup3\n      sstore\n      dup1\n      swap2\n      pop\n      pop\n      0x01\n      swap1\n      sub\n      swap1\n      0x00\n      mstore\n      keccak256(0x00, 0x20)\n      add\n      0x00\n      swap1\n      swap2\n      swap1\n      swap2\n      swap1\n      swap2\n      pop\n      sstore\n        /* \"lesson_4_enum_array_byte_struct/Demo.sol\":1131:1143  itemsDynamic */\n      0x2d\n        /* \"lesson_4_enum_array_byte_struct/Demo.sol\":1149:1150  4 */\n      0x04\n        /* \"lesson_4_enum_array_byte_struct/Demo.sol\":1131:1151  itemsDynamic.push(4) */\n      swap1\n      dup1\n      0x01\n      dup2\n      sload\n      add\n      dup1\n      dup3\n      sstore\n      dup1\n      swap2\n      pop\n      pop\n      0x01\n      swap1\n      sub\n      swap1\n      0x00\n      mstore\n      keccak256(0x00, 0x20)\n      add\n      0x00\n      swap1\n      swap2\n      swap1\n      swap2\n      swap1\n      swap2\n      pop\n      sstore\n        /* \"lesson_4_enum_array_byte_struct/Demo.sol\":1162:1174  itemsDynamic */\n      0x2d\n        /* \"lesson_4_enum_array_byte_struct/Demo.sol\":1180:1181  5 */\n      0x05\n        /* \"lesson_4_enum_array_byte_struct/Demo.sol\":1162:1182  itemsDynamic.push(5) */\n      swap1\n      dup1\n      0x01\n      dup2\n      sload\n      add\n      dup1\n      dup3\n      sstore\n      dup1\n      swap2\n      pop\n      pop\n      0x01\n      swap1\n      sub\n      swap1\n      0x00\n      mstore\n      keccak256(0x00, 0x20)\n      add\n      0x00\n      swap1\n      swap2\n      swap1\n      swap2\n      swap1\n      swap2\n      pop\n      sstore\n        /* \"lesson_4_enum_array_byte_struct/Demo.sol\":1199:1211  itemsDynamic */\n      0x2d\n        /* \"lesson_4_enum_array_byte_struct/Demo.sol\":1199:1218  itemsDynamic.length */\n      dup1\n      sload\n      swap1\n      pop\n        /* \"lesson_4_enum_array_byte_struct/Demo.sol\":1193:1196  len */\n      0x2e\n        /* \"lesson_4_enum_array_byte_struct/Demo.sol\":1193:1218  len = itemsDynamic.length */\n      dup2\n      swap1\n      sstore\n      pop\n        /* \"lesson_4_enum_array_byte_struct/Demo.sol\":1055:1226  function itemsDynamicAdd() public {... */\n      jump\t// out\n        /* \"lesson_4_enum_array_byte_struct/Demo.sol\":151:178  Status public currentStatus */\n    tag_105:\n      0x00\n      dup1\n      sload\n      swap1\n      0x0100\n      exp\n      swap1\n      div\n      0xff\n      and\n      dup2\n      jump\t// out\n        /* \"lesson_4_enum_array_byte_struct/Demo.sol\":693:969  function itemsMatrixAdd() public {... */\n    tag_110:\n        /* \"lesson_4_enum_array_byte_struct/Demo.sol\":737:961  items = [... */\n      mload(0x40)\n      dup1\n      0xc0\n      add\n      0x40\n      mstore\n      dup1\n      mload(0x40)\n      dup1\n      0xa0\n      add\n      0x40\n      mstore\n      dup1\n        /* \"lesson_4_enum_array_byte_struct/Demo.sol\":761:763  11 */\n      0x0b\n        /* \"lesson_4_enum_array_byte_struct/Demo.sol\":737:961  items = [... */\n      0xff\n      and\n      dup2\n      mstore\n      0x20\n      add\n        /* \"lesson_4_enum_array_byte_struct/Demo.sol\":764:766  15 */\n      0x0f\n        /* \"lesson_4_enum_array_byte_struct/Demo.sol\":737:961  items = [... */\n      0xff\n      and\n      dup2\n      mstore\n      0x20\n      add\n        /* \"lesson_4_enum_array_byte_struct/Demo.sol\":767:769  18 */\n      0x12\n        /* \"lesson_4_enum_array_byte_struct/Demo.sol\":737:961  items = [... */\n      0xff\n      and\n      dup2\n      mstore\n      0x20\n      add\n        /* \"lesson_4_enum_array_byte_struct/Demo.sol\":770:772  20 */\n      0x14\n        /* \"lesson_4_enum_array_byte_struct/Demo.sol\":737:961  items = [... */\n      0xff\n      and\n      dup2\n      mstore\n      0x20\n      add\n        /* \"lesson_4_enum_array_byte_struct/Demo.sol\":773:775  25 */\n      0x19\n        /* \"lesson_4_enum_array_byte_struct/Demo.sol\":737:961  items = [... */\n      0xff\n      and\n      dup2\n      mstore\n      pop\n      dup2\n      mstore\n      0x20\n      add\n      mload(0x40)\n      dup1\n      0xa0\n      add\n      0x40\n      mstore\n      dup1\n        /* \"lesson_4_enum_array_byte_struct/Demo.sol\":792:794  21 */\n      0x15\n        /* \"lesson_4_enum_array_byte_struct/Demo.sol\":737:961  items = [... */\n      0xff\n      and\n      dup2\n      mstore\n      0x20\n      add\n        /* \"lesson_4_enum_array_byte_struct/Demo.sol\":795:797  25 */\n      0x19\n        /* \"lesson_4_enum_array_byte_struct/Demo.sol\":737:961  items = [... */\n      0xff\n      and\n      dup2\n      mstore\n      0x20\n      add\n        /* \"lesson_4_enum_array_byte_struct/Demo.sol\":798:800  28 */\n      0x1c\n        /* \"lesson_4_enum_array_byte_struct/Demo.sol\":737:961  items = [... */\n      0xff\n      and\n      dup2\n      mstore\n      0x20\n      add\n        /* \"lesson_4_enum_array_byte_struct/Demo.sol\":801:803  30 */\n      0x1e\n        /* \"lesson_4_enum_array_byte_struct/Demo.sol\":737:961  items = [... */\n      0xff\n      and\n      dup2\n      mstore\n      0x20\n      add\n        /* \"lesson_4_enum_array_byte_struct/Demo.sol\":804:806  35 */\n      0x23\n        /* \"lesson_4_enum_array_byte_struct/Demo.sol\":737:961  items = [... */\n      0xff\n      and\n      dup2\n      mstore\n      pop\n      dup2\n      mstore\n      0x20\n      add\n      mload(0x40)\n      dup1\n      0xa0\n      add\n      0x40\n      mstore\n      dup1\n        /* \"lesson_4_enum_array_byte_struct/Demo.sol\":823:826  111 */\n      0x6f\n        /* \"lesson_4_enum_array_byte_struct/Demo.sol\":737:961  items = [... */\n      0xff\n      and\n      dup2\n      mstore\n      0x20\n      add\n        /* \"lesson_4_enum_array_byte_struct/Demo.sol\":827:830  115 */\n      0x73\n        /* \"lesson_4_enum_array_byte_struct/Demo.sol\":737:961  items = [... */\n      0xff\n      and\n      dup2\n      mstore\n      0x20\n      add\n        /* \"lesson_4_enum_array_byte_struct/Demo.sol\":831:834  118 */\n      0x76\n        /* \"lesson_4_enum_array_byte_struct/Demo.sol\":737:961  items = [... */\n      0xff\n      and\n      dup2\n      mstore\n      0x20\n      add\n        /* \"lesson_4_enum_array_byte_struct/Demo.sol\":835:838  120 */\n      0x78\n        /* \"lesson_4_enum_array_byte_struct/Demo.sol\":737:961  items = [... */\n      0xff\n      and\n      dup2\n      mstore\n      0x20\n      add\n        /* \"lesson_4_enum_array_byte_struct/Demo.sol\":839:842  125 */\n      0x7d\n        /* \"lesson_4_enum_array_byte_struct/Demo.sol\":737:961  items = [... */\n      0xff\n      and\n      dup2\n      mstore\n      pop\n      dup2\n      mstore\n      0x20\n      add\n      mload(0x40)\n      dup1\n      0xa0\n      add\n      0x40\n      mstore\n      dup1\n        /* \"lesson_4_enum_array_byte_struct/Demo.sol\":859:862  211 */\n      0xd3\n        /* \"lesson_4_enum_array_byte_struct/Demo.sol\":737:961  items = [... */\n      0xff\n      and\n      dup2\n      mstore\n      0x20\n      add\n        /* \"lesson_4_enum_array_byte_struct/Demo.sol\":863:866  215 */\n      0xd7\n        /* \"lesson_4_enum_array_byte_struct/Demo.sol\":737:961  items = [... */\n      0xff\n      and\n      dup2\n      mstore\n      0x20\n      add\n        /* \"lesson_4_enum_array_byte_struct/Demo.sol\":867:870  218 */\n      0xda\n        /* \"lesson_4_enum_array_byte_struct/Demo.sol\":737:961  items = [... */\n      0xff\n      and\n      dup2\n      mstore\n      0x20\n      add\n        /* \"lesson_4_enum_array_byte_struct/Demo.sol\":871:874  220 */\n      0xdc\n        /* \"lesson_4_enum_array_byte_struct/Demo.sol\":737:961  items = [... */\n      0xff\n      and\n      dup2\n      mstore\n      0x20\n      add\n        /* \"lesson_4_enum_array_byte_struct/Demo.sol\":875:878  225 */\n      0xe1\n        /* \"lesson_4_enum_array_byte_struct/Demo.sol\":737:961  items = [... */\n      0xff\n      and\n      dup2\n      mstore\n      pop\n      dup2\n      mstore\n      0x20\n      add\n      mload(0x40)\n      dup1\n      0xa0\n      add\n      0x40\n      mstore\n      dup1\n        /* \"lesson_4_enum_array_byte_struct/Demo.sol\":895:898  211 */\n      0xd3\n        /* \"lesson_4_enum_array_byte_struct/Demo.sol\":737:961  items = [... */\n      0xff\n      and\n      dup2\n      mstore\n      0x20\n      add\n        /* \"lesson_4_enum_array_byte_struct/Demo.sol\":899:902  251 */\n      0xfb\n        /* \"lesson_4_enum_array_byte_struct/Demo.sol\":737:961  items = [... */\n      0xff\n      and\n      dup2\n      mstore\n      0x20\n      add\n        /* \"lesson_4_enum_array_byte_struct/Demo.sol\":903:906  250 */\n      0xfa\n        /* \"lesson_4_enum_array_byte_struct/Demo.sol\":737:961  items = [... */\n      0xff\n      and\n      dup2\n      mstore\n      0x20\n      add\n        /* \"lesson_4_enum_array_byte_struct/Demo.sol\":907:910  255 */\n      0xff\n        /* \"lesson_4_enum_array_byte_struct/Demo.sol\":737:961  items = [... */\n      dup1\n      and\n      dup2\n      mstore\n      0x20\n      add\n        /* \"lesson_4_enum_array_byte_struct/Demo.sol\":911:914  252 */\n      0xfc\n        /* \"lesson_4_enum_array_byte_struct/Demo.sol\":737:961  items = [... */\n      0xff\n      and\n      dup2\n      mstore\n      pop\n      dup2\n      mstore\n      0x20\n      add\n      mload(0x40)\n      dup1\n      0xa0\n      add\n      0x40\n      mstore\n      dup1\n        /* \"lesson_4_enum_array_byte_struct/Demo.sol\":931:933  55 */\n      0x37\n        /* \"lesson_4_enum_array_byte_struct/Demo.sol\":737:961  items = [... */\n      0xff\n      and\n      dup2\n      mstore\n      0x20\n      add\n        /* \"lesson_4_enum_array_byte_struct/Demo.sol\":934:937  100 */\n      0x64\n        /* \"lesson_4_enum_array_byte_struct/Demo.sol\":737:961  items = [... */\n      0xff\n      and\n      dup2\n      mstore\n      0x20\n      add\n        /* \"lesson_4_enum_array_byte_struct/Demo.sol\":938:941  233 */\n      0xe9\n        /* \"lesson_4_enum_array_byte_struct/Demo.sol\":737:961  items = [... */\n      0xff\n      and\n      dup2\n      mstore\n      0x20\n      add\n        /* \"lesson_4_enum_array_byte_struct/Demo.sol\":942:945  133 */\n      0x85\n        /* \"lesson_4_enum_array_byte_struct/Demo.sol\":737:961  items = [... */\n      0xff\n      and\n      dup2\n      mstore\n      0x20\n      add\n        /* \"lesson_4_enum_array_byte_struct/Demo.sol\":946:949  205 */\n      0xcd\n        /* \"lesson_4_enum_array_byte_struct/Demo.sol\":737:961  items = [... */\n      0xff\n      and\n      dup2\n      mstore\n      pop\n      dup2\n      mstore\n      pop\n        /* \"lesson_4_enum_array_byte_struct/Demo.sol\":737:742  items */\n      0x0f\n        /* \"lesson_4_enum_array_byte_struct/Demo.sol\":737:961  items = [... */\n      swap1\n      0x06\n      tag_181\n      swap3\n      swap2\n      swap1\n      tag_182\n      jump\t// in\n    tag_181:\n      pop\n        /* \"lesson_4_enum_array_byte_struct/Demo.sol\":693:969  function itemsMatrixAdd() public {... */\n      jump\t// out\n        /* \"lesson_4_enum_array_byte_struct/Demo.sol\":1548:1583  bytes public myDynVar = \"test here\" */\n    tag_113:\n      0x30\n      dup1\n      sload\n      tag_183\n      swap1\n      tag_117\n      jump\t// in\n    tag_183:\n      dup1\n      0x1f\n      add\n      0x20\n      dup1\n      swap2\n      div\n      mul\n      0x20\n      add\n      mload(0x40)\n      swap1\n      dup2\n      add\n      0x40\n      mstore\n      dup1\n      swap3\n      swap2\n      swap1\n      dup2\n      dup2\n      mstore\n      0x20\n      add\n      dup3\n      dup1\n      sload\n      tag_184\n      swap1\n      tag_117\n      jump\t// in\n    tag_184:\n      dup1\n      iszero\n      tag_185\n      jumpi\n      dup1\n      0x1f\n      lt\n      tag_186\n      jumpi\n      0x0100\n      dup1\n      dup4\n      sload\n      div\n      mul\n      dup4\n      mstore\n      swap2\n      0x20\n      add\n      swap2\n      jump(tag_185)\n    tag_186:\n      dup3\n      add\n      swap2\n      swap1\n      0x00\n      mstore\n      keccak256(0x00, 0x20)\n      swap1\n    tag_187:\n      dup2\n      sload\n      dup2\n      mstore\n      swap1\n      0x01\n      add\n      swap1\n      0x20\n      add\n      dup1\n      dup4\n      gt\n      tag_187\n      jumpi\n      dup3\n      swap1\n      sub\n      0x1f\n      and\n      dup3\n      add\n      swap2\n    tag_185:\n      pop\n      pop\n      pop\n      pop\n      pop\n      dup2\n      jump\t// out\n    tag_142:\n      mload(0x40)\n      dup1\n      0x80\n      add\n      0x40\n      mstore\n      dup1\n      0x00\n      dup2\n      mstore\n      0x20\n      add\n      0x00\n      dup2\n      mstore\n      0x20\n      add\n      and(0xffffffffffffffffffffffffffffffffffffffff, 0x00)\n      dup2\n      mstore\n      0x20\n      add\n      0x60\n      dup2\n      mstore\n      pop\n      swap1\n      jump\t// out\n    tag_182:\n      dup3\n      mul(0x05, 0x06)\n      dup2\n      add\n      swap3\n      dup3\n      iszero\n      tag_188\n      jumpi\n      swap2\n      0x20\n      mul\n      dup3\n      add\n    tag_189:\n      dup3\n      dup2\n      gt\n      iszero\n      tag_190\n      jumpi\n      dup3\n      mload\n      dup3\n      swap1\n      0x05\n      tag_191\n      swap3\n      swap2\n      swap1\n      tag_192\n      jump\t// in\n    tag_191:\n      pop\n      swap2\n      0x20\n      add\n      swap2\n      swap1\n      0x05\n      add\n      swap1\n      jump(tag_189)\n    tag_190:\n    tag_188:\n      pop\n      swap1\n      pop\n      tag_193\n      swap2\n      swap1\n      tag_194\n      jump\t// in\n    tag_193:\n      pop\n      swap1\n      jump\t// out\n    tag_192:\n      dup3\n      0x05\n      dup2\n      add\n      swap3\n      dup3\n      iszero\n      tag_195\n      jumpi\n      swap2\n      0x20\n      mul\n      dup3\n      add\n    tag_196:\n      dup3\n      dup2\n      gt\n      iszero\n      tag_197\n      jumpi\n      dup3\n      mload\n      dup3\n      swap1\n      0xff\n      and\n      swap1\n      sstore\n      swap2\n      0x20\n      add\n      swap2\n      swap1\n      0x01\n      add\n      swap1\n      jump(tag_196)\n    tag_197:\n    tag_195:\n      pop\n      swap1\n      pop\n      tag_198\n      swap2\n      swap1\n      tag_199\n      jump\t// in\n    tag_198:\n      pop\n      swap1\n      jump\t// out\n    tag_194:\n    tag_200:\n      dup1\n      dup3\n      gt\n      iszero\n      tag_201\n      jumpi\n      0x00\n      dup2\n      dup2\n      tag_202\n      swap2\n      swap1\n      tag_203\n      jump\t// in\n    tag_202:\n      pop\n      0x05\n      add\n      jump(tag_200)\n    tag_201:\n      pop\n      swap1\n      jump\t// out\n    tag_199:\n    tag_204:\n      dup1\n      dup3\n      gt\n      iszero\n      tag_205\n      jumpi\n      0x00\n      dup2\n      0x00\n      swap1\n      sstore\n      pop\n      0x01\n      add\n      jump(tag_204)\n    tag_205:\n      pop\n      swap1\n      jump\t// out\n    tag_203:\n      pop\n      0x00\n      dup2\n      sstore\n      0x01\n      add\n      0x00\n      dup2\n      sstore\n      0x01\n      add\n      0x00\n      dup2\n      sstore\n      0x01\n      add\n      0x00\n      dup2\n      sstore\n      0x01\n      add\n      0x00\n      swap1\n      sstore\n      jump\t// out\n        /* \"#utility.yul\":7:84   */\n    tag_206:\n        /* \"#utility.yul\":44:51   */\n      0x00\n        /* \"#utility.yul\":73:78   */\n      dup2\n        /* \"#utility.yul\":62:78   */\n      swap1\n      pop\n        /* \"#utility.yul\":7:84   */\n      swap2\n      swap1\n      pop\n      jump\t// out\n        /* \"#utility.yul\":90:208   */\n    tag_207:\n        /* \"#utility.yul\":177:201   */\n      tag_268\n        /* \"#utility.yul\":195:200   */\n      dup2\n        /* \"#utility.yul\":177:201   */\n      tag_206\n      jump\t// in\n    tag_268:\n        /* \"#utility.yul\":172:175   */\n      dup3\n        /* \"#utility.yul\":165:202   */\n      mstore\n        /* \"#utility.yul\":90:208   */\n      pop\n      pop\n      jump\t// out\n        /* \"#utility.yul\":214:436   */\n    tag_29:\n        /* \"#utility.yul\":307:311   */\n      0x00\n        /* \"#utility.yul\":345:347   */\n      0x20\n        /* \"#utility.yul\":334:343   */\n      dup3\n        /* \"#utility.yul\":330:348   */\n      add\n        /* \"#utility.yul\":322:348   */\n      swap1\n      pop\n        /* \"#utility.yul\":358:429   */\n      tag_270\n        /* \"#utility.yul\":426:427   */\n      0x00\n        /* \"#utility.yul\":415:424   */\n      dup4\n        /* \"#utility.yul\":411:428   */\n      add\n        /* \"#utility.yul\":402:408   */\n      dup5\n        /* \"#utility.yul\":358:429   */\n      tag_207\n      jump\t// in\n    tag_270:\n        /* \"#utility.yul\":214:436   */\n      swap3\n      swap2\n      pop\n      pop\n      jump\t// out\n        /* \"#utility.yul\":442:540   */\n    tag_208:\n        /* \"#utility.yul\":493:499   */\n      0x00\n        /* \"#utility.yul\":527:532   */\n      dup2\n        /* \"#utility.yul\":521:533   */\n      mload\n        /* \"#utility.yul\":511:533   */\n      swap1\n      pop\n        /* \"#utility.yul\":442:540   */\n      swap2\n      swap1\n      pop\n      jump\t// out\n        /* \"#utility.yul\":546:714   */\n    tag_209:\n        /* \"#utility.yul\":629:640   */\n      0x00\n        /* \"#utility.yul\":663:669   */\n      dup3\n        /* \"#utility.yul\":658:661   */\n      dup3\n        /* \"#utility.yul\":651:670   */\n      mstore\n        /* \"#utility.yul\":703:707   */\n      0x20\n        /* \"#utility.yul\":698:701   */\n      dup3\n        /* \"#utility.yul\":694:708   */\n      add\n        /* \"#utility.yul\":679:708   */\n      swap1\n      pop\n        /* \"#utility.yul\":546:714   */\n      swap3\n      swap2\n      pop\n      pop\n      jump\t// out\n        /* \"#utility.yul\":720:966   */\n    tag_210:\n        /* \"#utility.yul\":801:802   */\n      0x00\n        /* \"#utility.yul\":811:924   */\n    tag_274:\n        /* \"#utility.yul\":825:831   */\n      dup4\n        /* \"#utility.yul\":822:823   */\n      dup2\n        /* \"#utility.yul\":819:832   */\n      lt\n        /* \"#utility.yul\":811:924   */\n      iszero\n      tag_276\n      jumpi\n        /* \"#utility.yul\":910:911   */\n      dup1\n        /* \"#utility.yul\":905:908   */\n      dup3\n        /* \"#utility.yul\":901:912   */\n      add\n        /* \"#utility.yul\":895:913   */\n      mload\n        /* \"#utility.yul\":891:892   */\n      dup2\n        /* \"#utility.yul\":886:889   */\n      dup5\n        /* \"#utility.yul\":882:893   */\n      add\n        /* \"#utility.yul\":875:914   */\n      mstore\n        /* \"#utility.yul\":847:849   */\n      0x20\n        /* \"#utility.yul\":844:845   */\n      dup2\n        /* \"#utility.yul\":840:850   */\n      add\n        /* \"#utility.yul\":835:850   */\n      swap1\n      pop\n        /* \"#utility.yul\":811:924   */\n      jump(tag_274)\n    tag_276:\n        /* \"#utility.yul\":958:959   */\n      0x00\n        /* \"#utility.yul\":949:955   */\n      dup5\n        /* \"#utility.yul\":944:947   */\n      dup5\n        /* \"#utility.yul\":940:956   */\n      add\n        /* \"#utility.yul\":933:960   */\n      mstore\n        /* \"#utility.yul\":782:966   */\n      pop\n        /* \"#utility.yul\":720:966   */\n      pop\n      pop\n      pop\n      jump\t// out\n        /* \"#utility.yul\":972:1074   */\n    tag_211:\n        /* \"#utility.yul\":1013:1019   */\n      0x00\n        /* \"#utility.yul\":1064:1066   */\n      0x1f\n        /* \"#utility.yul\":1060:1067   */\n      not\n        /* \"#utility.yul\":1055:1057   */\n      0x1f\n        /* \"#utility.yul\":1048:1053   */\n      dup4\n        /* \"#utility.yul\":1044:1058   */\n      add\n        /* \"#utility.yul\":1040:1068   */\n      and\n        /* \"#utility.yul\":1030:1068   */\n      swap1\n      pop\n        /* \"#utility.yul\":972:1074   */\n      swap2\n      swap1\n      pop\n      jump\t// out\n        /* \"#utility.yul\":1080:1453   */\n    tag_212:\n        /* \"#utility.yul\":1166:1169   */\n      0x00\n        /* \"#utility.yul\":1194:1232   */\n      tag_279\n        /* \"#utility.yul\":1226:1231   */\n      dup3\n        /* \"#utility.yul\":1194:1232   */\n      tag_208\n      jump\t// in\n    tag_279:\n        /* \"#utility.yul\":1248:1318   */\n      tag_280\n        /* \"#utility.yul\":1311:1317   */\n      dup2\n        /* \"#utility.yul\":1306:1309   */\n      dup6\n        /* \"#utility.yul\":1248:1318   */\n      tag_209\n      jump\t// in\n    tag_280:\n        /* \"#utility.yul\":1241:1318   */\n      swap4\n      pop\n        /* \"#utility.yul\":1327:1392   */\n      tag_281\n        /* \"#utility.yul\":1385:1391   */\n      dup2\n        /* \"#utility.yul\":1380:1383   */\n      dup6\n        /* \"#utility.yul\":1373:1377   */\n      0x20\n        /* \"#utility.yul\":1366:1371   */\n      dup7\n        /* \"#utility.yul\":1362:1378   */\n      add\n        /* \"#utility.yul\":1327:1392   */\n      tag_210\n      jump\t// in\n    tag_281:\n        /* \"#utility.yul\":1417:1446   */\n      tag_282\n        /* \"#utility.yul\":1439:1445   */\n      dup2\n        /* \"#utility.yul\":1417:1446   */\n      tag_211\n      jump\t// in\n    tag_282:\n        /* \"#utility.yul\":1412:1415   */\n      dup5\n        /* \"#utility.yul\":1408:1447   */\n      add\n        /* \"#utility.yul\":1401:1447   */\n      swap2\n      pop\n        /* \"#utility.yul\":1170:1453   */\n      pop\n        /* \"#utility.yul\":1080:1453   */\n      swap3\n      swap2\n      pop\n      pop\n      jump\t// out\n        /* \"#utility.yul\":1459:1768   */\n    tag_40:\n        /* \"#utility.yul\":1570:1574   */\n      0x00\n        /* \"#utility.yul\":1608:1610   */\n      0x20\n        /* \"#utility.yul\":1597:1606   */\n      dup3\n        /* \"#utility.yul\":1593:1611   */\n      add\n        /* \"#utility.yul\":1585:1611   */\n      swap1\n      pop\n        /* \"#utility.yul\":1657:1666   */\n      dup2\n        /* \"#utility.yul\":1651:1655   */\n      dup2\n        /* \"#utility.yul\":1647:1667   */\n      sub\n        /* \"#utility.yul\":1643:1644   */\n      0x00\n        /* \"#utility.yul\":1632:1641   */\n      dup4\n        /* \"#utility.yul\":1628:1645   */\n      add\n        /* \"#utility.yul\":1621:1668   */\n      mstore\n        /* \"#utility.yul\":1685:1761   */\n      tag_284\n        /* \"#utility.yul\":1756:1760   */\n      dup2\n        /* \"#utility.yul\":1747:1753   */\n      dup5\n        /* \"#utility.yul\":1685:1761   */\n      tag_212\n      jump\t// in\n    tag_284:\n        /* \"#utility.yul\":1677:1761   */\n      swap1\n      pop\n        /* \"#utility.yul\":1459:1768   */\n      swap3\n      swap2\n      pop\n      pop\n      jump\t// out\n        /* \"#utility.yul\":1774:1849   */\n    tag_213:\n        /* \"#utility.yul\":1807:1813   */\n      0x00\n        /* \"#utility.yul\":1840:1842   */\n      0x40\n        /* \"#utility.yul\":1834:1843   */\n      mload\n        /* \"#utility.yul\":1824:1843   */\n      swap1\n      pop\n        /* \"#utility.yul\":1774:1849   */\n      swap1\n      jump\t// out\n        /* \"#utility.yul\":1855:1972   */\n    tag_214:\n        /* \"#utility.yul\":1964:1965   */\n      0x00\n        /* \"#utility.yul\":1961:1962   */\n      dup1\n        /* \"#utility.yul\":1954:1966   */\n      revert\n        /* \"#utility.yul\":1978:2095   */\n    tag_215:\n        /* \"#utility.yul\":2087:2088   */\n      0x00\n        /* \"#utility.yul\":2084:2085   */\n      dup1\n        /* \"#utility.yul\":2077:2089   */\n      revert\n        /* \"#utility.yul\":2101:2227   */\n    tag_216:\n        /* \"#utility.yul\":2138:2145   */\n      0x00\n        /* \"#utility.yul\":2178:2220   */\n      0xffffffffffffffffffffffffffffffffffffffff\n        /* \"#utility.yul\":2171:2176   */\n      dup3\n        /* \"#utility.yul\":2167:2221   */\n      and\n        /* \"#utility.yul\":2156:2221   */\n      swap1\n      pop\n        /* \"#utility.yul\":2101:2227   */\n      swap2\n      swap1\n      pop\n      jump\t// out\n        /* \"#utility.yul\":2233:2329   */\n    tag_217:\n        /* \"#utility.yul\":2270:2277   */\n      0x00\n        /* \"#utility.yul\":2299:2323   */\n      tag_290\n        /* \"#utility.yul\":2317:2322   */\n      dup3\n        /* \"#utility.yul\":2299:2323   */\n      tag_216\n      jump\t// in\n    tag_290:\n        /* \"#utility.yul\":2288:2323   */\n      swap1\n      pop\n        /* \"#utility.yul\":2233:2329   */\n      swap2\n      swap1\n      pop\n      jump\t// out\n        /* \"#utility.yul\":2335:2457   */\n    tag_218:\n        /* \"#utility.yul\":2408:2432   */\n      tag_292\n        /* \"#utility.yul\":2426:2431   */\n      dup2\n        /* \"#utility.yul\":2408:2432   */\n      tag_217\n      jump\t// in\n    tag_292:\n        /* \"#utility.yul\":2401:2406   */\n      dup2\n        /* \"#utility.yul\":2398:2433   */\n      eq\n        /* \"#utility.yul\":2388:2451   */\n      tag_293\n      jumpi\n        /* \"#utility.yul\":2447:2448   */\n      0x00\n        /* \"#utility.yul\":2444:2445   */\n      dup1\n        /* \"#utility.yul\":2437:2449   */\n      revert\n        /* \"#utility.yul\":2388:2451   */\n    tag_293:\n        /* \"#utility.yul\":2335:2457   */\n      pop\n      jump\t// out\n        /* \"#utility.yul\":2463:2602   */\n    tag_219:\n        /* \"#utility.yul\":2509:2514   */\n      0x00\n        /* \"#utility.yul\":2547:2553   */\n      dup2\n        /* \"#utility.yul\":2534:2554   */\n      calldataload\n        /* \"#utility.yul\":2525:2554   */\n      swap1\n      pop\n        /* \"#utility.yul\":2563:2596   */\n      tag_295\n        /* \"#utility.yul\":2590:2595   */\n      dup2\n        /* \"#utility.yul\":2563:2596   */\n      tag_218\n      jump\t// in\n    tag_295:\n        /* \"#utility.yul\":2463:2602   */\n      swap3\n      swap2\n      pop\n      pop\n      jump\t// out\n        /* \"#utility.yul\":2608:2937   */\n    tag_44:\n        /* \"#utility.yul\":2667:2673   */\n      0x00\n        /* \"#utility.yul\":2716:2718   */\n      0x20\n        /* \"#utility.yul\":2704:2713   */\n      dup3\n        /* \"#utility.yul\":2695:2702   */\n      dup5\n        /* \"#utility.yul\":2691:2714   */\n      sub\n        /* \"#utility.yul\":2687:2719   */\n      slt\n        /* \"#utility.yul\":2684:2803   */\n      iszero\n      tag_297\n      jumpi\n        /* \"#utility.yul\":2722:2801   */\n      tag_298\n      tag_214\n      jump\t// in\n    tag_298:\n        /* \"#utility.yul\":2684:2803   */\n    tag_297:\n        /* \"#utility.yul\":2842:2843   */\n      0x00\n        /* \"#utility.yul\":2867:2920   */\n      tag_299\n        /* \"#utility.yul\":2912:2919   */\n      dup5\n        /* \"#utility.yul\":2903:2909   */\n      dup3\n        /* \"#utility.yul\":2892:2901   */\n      dup6\n        /* \"#utility.yul\":2888:2910   */\n      add\n        /* \"#utility.yul\":2867:2920   */\n      tag_219\n      jump\t// in\n    tag_299:\n        /* \"#utility.yul\":2857:2920   */\n      swap2\n      pop\n        /* \"#utility.yul\":2813:2930   */\n      pop\n        /* \"#utility.yul\":2608:2937   */\n      swap3\n      swap2\n      pop\n      pop\n      jump\t// out\n        /* \"#utility.yul\":2943:3060   */\n    tag_220:\n        /* \"#utility.yul\":3052:3053   */\n      0x00\n        /* \"#utility.yul\":3049:3050   */\n      dup1\n        /* \"#utility.yul\":3042:3054   */\n      revert\n        /* \"#utility.yul\":3066:3183   */\n    tag_221:\n        /* \"#utility.yul\":3175:3176   */\n      0x00\n        /* \"#utility.yul\":3172:3173   */\n      dup1\n        /* \"#utility.yul\":3165:3177   */\n      revert\n        /* \"#utility.yul\":3189:3369   */\n    tag_152:\n        /* \"#utility.yul\":3237:3314   */\n      0x4e487b7100000000000000000000000000000000000000000000000000000000\n        /* \"#utility.yul\":3234:3235   */\n      0x00\n        /* \"#utility.yul\":3227:3315   */\n      mstore\n        /* \"#utility.yul\":3334:3338   */\n      0x41\n        /* \"#utility.yul\":3331:3332   */\n      0x04\n        /* \"#utility.yul\":3324:3339   */\n      mstore\n        /* \"#utility.yul\":3358:3362   */\n      0x24\n        /* \"#utility.yul\":3355:3356   */\n      0x00\n        /* \"#utility.yul\":3348:3363   */\n      revert\n        /* \"#utility.yul\":3375:3656   */\n    tag_222:\n        /* \"#utility.yul\":3458:3485   */\n      tag_304\n        /* \"#utility.yul\":3480:3484   */\n      dup3\n        /* \"#utility.yul\":3458:3485   */\n      tag_211\n      jump\t// in\n    tag_304:\n        /* \"#utility.yul\":3450:3456   */\n      dup2\n        /* \"#utility.yul\":3446:3486   */\n      add\n        /* \"#utility.yul\":3588:3594   */\n      dup2\n        /* \"#utility.yul\":3576:3586   */\n      dup2\n        /* \"#utility.yul\":3573:3595   */\n      lt\n        /* \"#utility.yul\":3552:3570   */\n      0xffffffffffffffff\n        /* \"#utility.yul\":3540:3550   */\n      dup3\n        /* \"#utility.yul\":3537:3571   */\n      gt\n        /* \"#utility.yul\":3534:3596   */\n      or\n        /* \"#utility.yul\":3531:3619   */\n      iszero\n      tag_305\n      jumpi\n        /* \"#utility.yul\":3599:3617   */\n      tag_306\n      tag_152\n      jump\t// in\n    tag_306:\n        /* \"#utility.yul\":3531:3619   */\n    tag_305:\n        /* \"#utility.yul\":3639:3649   */\n      dup1\n        /* \"#utility.yul\":3635:3637   */\n      0x40\n        /* \"#utility.yul\":3628:3650   */\n      mstore\n        /* \"#utility.yul\":3418:3656   */\n      pop\n        /* \"#utility.yul\":3375:3656   */\n      pop\n      pop\n      jump\t// out\n        /* \"#utility.yul\":3662:3791   */\n    tag_223:\n        /* \"#utility.yul\":3696:3702   */\n      0x00\n        /* \"#utility.yul\":3723:3743   */\n      tag_308\n      tag_213\n      jump\t// in\n    tag_308:\n        /* \"#utility.yul\":3713:3743   */\n      swap1\n      pop\n        /* \"#utility.yul\":3752:3785   */\n      tag_309\n        /* \"#utility.yul\":3780:3784   */\n      dup3\n        /* \"#utility.yul\":3772:3778   */\n      dup3\n        /* \"#utility.yul\":3752:3785   */\n      tag_222\n      jump\t// in\n    tag_309:\n        /* \"#utility.yul\":3662:3791   */\n      swap2\n      swap1\n      pop\n      jump\t// out\n        /* \"#utility.yul\":3797:4105   */\n    tag_224:\n        /* \"#utility.yul\":3859:3863   */\n      0x00\n        /* \"#utility.yul\":3949:3967   */\n      0xffffffffffffffff\n        /* \"#utility.yul\":3941:3947   */\n      dup3\n        /* \"#utility.yul\":3938:3968   */\n      gt\n        /* \"#utility.yul\":3935:3991   */\n      iszero\n      tag_311\n      jumpi\n        /* \"#utility.yul\":3971:3989   */\n      tag_312\n      tag_152\n      jump\t// in\n    tag_312:\n        /* \"#utility.yul\":3935:3991   */\n    tag_311:\n        /* \"#utility.yul\":4009:4038   */\n      tag_313\n        /* \"#utility.yul\":4031:4037   */\n      dup3\n        /* \"#utility.yul\":4009:4038   */\n      tag_211\n      jump\t// in\n    tag_313:\n        /* \"#utility.yul\":4001:4038   */\n      swap1\n      pop\n        /* \"#utility.yul\":4093:4097   */\n      0x20\n        /* \"#utility.yul\":4087:4091   */\n      dup2\n        /* \"#utility.yul\":4083:4098   */\n      add\n        /* \"#utility.yul\":4075:4098   */\n      swap1\n      pop\n        /* \"#utility.yul\":3797:4105   */\n      swap2\n      swap1\n      pop\n      jump\t// out\n        /* \"#utility.yul\":4111:4257   */\n    tag_225:\n        /* \"#utility.yul\":4208:4214   */\n      dup3\n        /* \"#utility.yul\":4203:4206   */\n      dup2\n        /* \"#utility.yul\":4198:4201   */\n      dup4\n        /* \"#utility.yul\":4185:4215   */\n      calldatacopy\n        /* \"#utility.yul\":4249:4250   */\n      0x00\n        /* \"#utility.yul\":4240:4246   */\n      dup4\n        /* \"#utility.yul\":4235:4238   */\n      dup4\n        /* \"#utility.yul\":4231:4247   */\n      add\n        /* \"#utility.yul\":4224:4251   */\n      mstore\n        /* \"#utility.yul\":4111:4257   */\n      pop\n      pop\n      pop\n      jump\t// out\n        /* \"#utility.yul\":4263:4688   */\n    tag_226:\n        /* \"#utility.yul\":4341:4346   */\n      0x00\n        /* \"#utility.yul\":4366:4432   */\n      tag_316\n        /* \"#utility.yul\":4382:4431   */\n      tag_317\n        /* \"#utility.yul\":4424:4430   */\n      dup5\n        /* \"#utility.yul\":4382:4431   */\n      tag_224\n      jump\t// in\n    tag_317:\n        /* \"#utility.yul\":4366:4432   */\n      tag_223\n      jump\t// in\n    tag_316:\n        /* \"#utility.yul\":4357:4432   */\n      swap1\n      pop\n        /* \"#utility.yul\":4455:4461   */\n      dup3\n        /* \"#utility.yul\":4448:4453   */\n      dup2\n        /* \"#utility.yul\":4441:4462   */\n      mstore\n        /* \"#utility.yul\":4493:4497   */\n      0x20\n        /* \"#utility.yul\":4486:4491   */\n      dup2\n        /* \"#utility.yul\":4482:4498   */\n      add\n        /* \"#utility.yul\":4531:4534   */\n      dup5\n        /* \"#utility.yul\":4522:4528   */\n      dup5\n        /* \"#utility.yul\":4517:4520   */\n      dup5\n        /* \"#utility.yul\":4513:4529   */\n      add\n        /* \"#utility.yul\":4510:4535   */\n      gt\n        /* \"#utility.yul\":4507:4619   */\n      iszero\n      tag_318\n      jumpi\n        /* \"#utility.yul\":4538:4617   */\n      tag_319\n      tag_221\n      jump\t// in\n    tag_319:\n        /* \"#utility.yul\":4507:4619   */\n    tag_318:\n        /* \"#utility.yul\":4628:4682   */\n      tag_320\n        /* \"#utility.yul\":4675:4681   */\n      dup5\n        /* \"#utility.yul\":4670:4673   */\n      dup3\n        /* \"#utility.yul\":4665:4668   */\n      dup6\n        /* \"#utility.yul\":4628:4682   */\n      tag_225\n      jump\t// in\n    tag_320:\n        /* \"#utility.yul\":4347:4688   */\n      pop\n        /* \"#utility.yul\":4263:4688   */\n      swap4\n      swap3\n      pop\n      pop\n      pop\n      jump\t// out\n        /* \"#utility.yul\":4708:5048   */\n    tag_227:\n        /* \"#utility.yul\":4764:4769   */\n      0x00\n        /* \"#utility.yul\":4813:4816   */\n      dup3\n        /* \"#utility.yul\":4806:4810   */\n      0x1f\n        /* \"#utility.yul\":4798:4804   */\n      dup4\n        /* \"#utility.yul\":4794:4811   */\n      add\n        /* \"#utility.yul\":4790:4817   */\n      slt\n        /* \"#utility.yul\":4780:4902   */\n      tag_322\n      jumpi\n        /* \"#utility.yul\":4821:4900   */\n      tag_323\n      tag_220\n      jump\t// in\n    tag_323:\n        /* \"#utility.yul\":4780:4902   */\n    tag_322:\n        /* \"#utility.yul\":4938:4944   */\n      dup2\n        /* \"#utility.yul\":4925:4945   */\n      calldataload\n        /* \"#utility.yul\":4963:5042   */\n      tag_324\n        /* \"#utility.yul\":5038:5041   */\n      dup5\n        /* \"#utility.yul\":5030:5036   */\n      dup3\n        /* \"#utility.yul\":5023:5027   */\n      0x20\n        /* \"#utility.yul\":5015:5021   */\n      dup7\n        /* \"#utility.yul\":5011:5028   */\n      add\n        /* \"#utility.yul\":4963:5042   */\n      tag_226\n      jump\t// in\n    tag_324:\n        /* \"#utility.yul\":4954:5042   */\n      swap2\n      pop\n        /* \"#utility.yul\":4770:5048   */\n      pop\n        /* \"#utility.yul\":4708:5048   */\n      swap3\n      swap2\n      pop\n      pop\n      jump\t// out\n        /* \"#utility.yul\":5054:5563   */\n    tag_49:\n        /* \"#utility.yul\":5123:5129   */\n      0x00\n        /* \"#utility.yul\":5172:5174   */\n      0x20\n        /* \"#utility.yul\":5160:5169   */\n      dup3\n        /* \"#utility.yul\":5151:5158   */\n      dup5\n        /* \"#utility.yul\":5147:5170   */\n      sub\n        /* \"#utility.yul\":5143:5175   */\n      slt\n        /* \"#utility.yul\":5140:5259   */\n      iszero\n      tag_326\n      jumpi\n        /* \"#utility.yul\":5178:5257   */\n      tag_327\n      tag_214\n      jump\t// in\n    tag_327:\n        /* \"#utility.yul\":5140:5259   */\n    tag_326:\n        /* \"#utility.yul\":5326:5327   */\n      0x00\n        /* \"#utility.yul\":5315:5324   */\n      dup3\n        /* \"#utility.yul\":5311:5328   */\n      add\n        /* \"#utility.yul\":5298:5329   */\n      calldataload\n        /* \"#utility.yul\":5356:5374   */\n      0xffffffffffffffff\n        /* \"#utility.yul\":5348:5354   */\n      dup2\n        /* \"#utility.yul\":5345:5375   */\n      gt\n        /* \"#utility.yul\":5342:5459   */\n      iszero\n      tag_328\n      jumpi\n        /* \"#utility.yul\":5378:5457   */\n      tag_329\n      tag_215\n      jump\t// in\n    tag_329:\n        /* \"#utility.yul\":5342:5459   */\n    tag_328:\n        /* \"#utility.yul\":5483:5546   */\n      tag_330\n        /* \"#utility.yul\":5538:5545   */\n      dup5\n        /* \"#utility.yul\":5529:5535   */\n      dup3\n        /* \"#utility.yul\":5518:5527   */\n      dup6\n        /* \"#utility.yul\":5514:5536   */\n      add\n        /* \"#utility.yul\":5483:5546   */\n      tag_227\n      jump\t// in\n    tag_330:\n        /* \"#utility.yul\":5473:5546   */\n      swap2\n      pop\n        /* \"#utility.yul\":5269:5556   */\n      pop\n        /* \"#utility.yul\":5054:5563   */\n      swap3\n      swap2\n      pop\n      pop\n      jump\t// out\n        /* \"#utility.yul\":5569:5691   */\n    tag_228:\n        /* \"#utility.yul\":5642:5666   */\n      tag_332\n        /* \"#utility.yul\":5660:5665   */\n      dup2\n        /* \"#utility.yul\":5642:5666   */\n      tag_206\n      jump\t// in\n    tag_332:\n        /* \"#utility.yul\":5635:5640   */\n      dup2\n        /* \"#utility.yul\":5632:5667   */\n      eq\n        /* \"#utility.yul\":5622:5685   */\n      tag_333\n      jumpi\n        /* \"#utility.yul\":5681:5682   */\n      0x00\n        /* \"#utility.yul\":5678:5679   */\n      dup1\n        /* \"#utility.yul\":5671:5683   */\n      revert\n        /* \"#utility.yul\":5622:5685   */\n    tag_333:\n        /* \"#utility.yul\":5569:5691   */\n      pop\n      jump\t// out\n        /* \"#utility.yul\":5697:5836   */\n    tag_229:\n        /* \"#utility.yul\":5743:5748   */\n      0x00\n        /* \"#utility.yul\":5781:5787   */\n      dup2\n        /* \"#utility.yul\":5768:5788   */\n      calldataload\n        /* \"#utility.yul\":5759:5788   */\n      swap1\n      pop\n        /* \"#utility.yul\":5797:5830   */\n      tag_335\n        /* \"#utility.yul\":5824:5829   */\n      dup2\n        /* \"#utility.yul\":5797:5830   */\n      tag_228\n      jump\t// in\n    tag_335:\n        /* \"#utility.yul\":5697:5836   */\n      swap3\n      swap2\n      pop\n      pop\n      jump\t// out\n        /* \"#utility.yul\":5842:6316   */\n    tag_54:\n        /* \"#utility.yul\":5910:5916   */\n      0x00\n        /* \"#utility.yul\":5918:5924   */\n      dup1\n        /* \"#utility.yul\":5967:5969   */\n      0x40\n        /* \"#utility.yul\":5955:5964   */\n      dup4\n        /* \"#utility.yul\":5946:5953   */\n      dup6\n        /* \"#utility.yul\":5942:5965   */\n      sub\n        /* \"#utility.yul\":5938:5970   */\n      slt\n        /* \"#utility.yul\":5935:6054   */\n      iszero\n      tag_337\n      jumpi\n        /* \"#utility.yul\":5973:6052   */\n      tag_338\n      tag_214\n      jump\t// in\n    tag_338:\n        /* \"#utility.yul\":5935:6054   */\n    tag_337:\n        /* \"#utility.yul\":6093:6094   */\n      0x00\n        /* \"#utility.yul\":6118:6171   */\n      tag_339\n        /* \"#utility.yul\":6163:6170   */\n      dup6\n        /* \"#utility.yul\":6154:6160   */\n      dup3\n        /* \"#utility.yul\":6143:6152   */\n      dup7\n        /* \"#utility.yul\":6139:6161   */\n      add\n        /* \"#utility.yul\":6118:6171   */\n      tag_229\n      jump\t// in\n    tag_339:\n        /* \"#utility.yul\":6108:6171   */\n      swap3\n      pop\n        /* \"#utility.yul\":6064:6181   */\n      pop\n        /* \"#utility.yul\":6220:6222   */\n      0x20\n        /* \"#utility.yul\":6246:6299   */\n      tag_340\n        /* \"#utility.yul\":6291:6298   */\n      dup6\n        /* \"#utility.yul\":6282:6288   */\n      dup3\n        /* \"#utility.yul\":6271:6280   */\n      dup7\n        /* \"#utility.yul\":6267:6289   */\n      add\n        /* \"#utility.yul\":6246:6299   */\n      tag_229\n      jump\t// in\n    tag_340:\n        /* \"#utility.yul\":6236:6299   */\n      swap2\n      pop\n        /* \"#utility.yul\":6191:6309   */\n      pop\n        /* \"#utility.yul\":5842:6316   */\n      swap3\n      pop\n      swap3\n      swap1\n      pop\n      jump\t// out\n        /* \"#utility.yul\":6322:6651   */\n    tag_60:\n        /* \"#utility.yul\":6381:6387   */\n      0x00\n        /* \"#utility.yul\":6430:6432   */\n      0x20\n        /* \"#utility.yul\":6418:6427   */\n      dup3\n        /* \"#utility.yul\":6409:6416   */\n      dup5\n        /* \"#utility.yul\":6405:6428   */\n      sub\n        /* \"#utility.yul\":6401:6433   */\n      slt\n        /* \"#utility.yul\":6398:6517   */\n      iszero\n      tag_342\n      jumpi\n        /* \"#utility.yul\":6436:6515   */\n      tag_343\n      tag_214\n      jump\t// in\n    tag_343:\n        /* \"#utility.yul\":6398:6517   */\n    tag_342:\n        /* \"#utility.yul\":6556:6557   */\n      0x00\n        /* \"#utility.yul\":6581:6634   */\n      tag_344\n        /* \"#utility.yul\":6626:6633   */\n      dup5\n        /* \"#utility.yul\":6617:6623   */\n      dup3\n        /* \"#utility.yul\":6606:6615   */\n      dup6\n        /* \"#utility.yul\":6602:6624   */\n      add\n        /* \"#utility.yul\":6581:6634   */\n      tag_229\n      jump\t// in\n    tag_344:\n        /* \"#utility.yul\":6571:6634   */\n      swap2\n      pop\n        /* \"#utility.yul\":6527:6644   */\n      pop\n        /* \"#utility.yul\":6322:6651   */\n      swap3\n      swap2\n      pop\n      pop\n      jump\t// out\n        /* \"#utility.yul\":6657:7131   */\n    tag_70:\n        /* \"#utility.yul\":6725:6731   */\n      0x00\n        /* \"#utility.yul\":6733:6739   */\n      dup1\n        /* \"#utility.yul\":6782:6784   */\n      0x40\n        /* \"#utility.yul\":6770:6779   */\n      dup4\n        /* \"#utility.yul\":6761:6768   */\n      dup6\n        /* \"#utility.yul\":6757:6780   */\n      sub\n        /* \"#utility.yul\":6753:6785   */\n      slt\n        /* \"#utility.yul\":6750:6869   */\n      iszero\n      tag_346\n      jumpi\n        /* \"#utility.yul\":6788:6867   */\n      tag_347\n      tag_214\n      jump\t// in\n    tag_347:\n        /* \"#utility.yul\":6750:6869   */\n    tag_346:\n        /* \"#utility.yul\":6908:6909   */\n      0x00\n        /* \"#utility.yul\":6933:6986   */\n      tag_348\n        /* \"#utility.yul\":6978:6985   */\n      dup6\n        /* \"#utility.yul\":6969:6975   */\n      dup3\n        /* \"#utility.yul\":6958:6967   */\n      dup7\n        /* \"#utility.yul\":6954:6976   */\n      add\n        /* \"#utility.yul\":6933:6986   */\n      tag_219\n      jump\t// in\n    tag_348:\n        /* \"#utility.yul\":6923:6986   */\n      swap3\n      pop\n        /* \"#utility.yul\":6879:6996   */\n      pop\n        /* \"#utility.yul\":7035:7037   */\n      0x20\n        /* \"#utility.yul\":7061:7114   */\n      tag_349\n        /* \"#utility.yul\":7106:7113   */\n      dup6\n        /* \"#utility.yul\":7097:7103   */\n      dup3\n        /* \"#utility.yul\":7086:7095   */\n      dup7\n        /* \"#utility.yul\":7082:7104   */\n      add\n        /* \"#utility.yul\":7061:7114   */\n      tag_229\n      jump\t// in\n    tag_349:\n        /* \"#utility.yul\":7051:7114   */\n      swap2\n      pop\n        /* \"#utility.yul\":7006:7124   */\n      pop\n        /* \"#utility.yul\":6657:7131   */\n      swap3\n      pop\n      swap3\n      swap1\n      pop\n      jump\t// out\n        /* \"#utility.yul\":7137:7245   */\n    tag_230:\n        /* \"#utility.yul\":7214:7238   */\n      tag_351\n        /* \"#utility.yul\":7232:7237   */\n      dup2\n        /* \"#utility.yul\":7214:7238   */\n      tag_206\n      jump\t// in\n    tag_351:\n        /* \"#utility.yul\":7209:7212   */\n      dup3\n        /* \"#utility.yul\":7202:7239   */\n      mstore\n        /* \"#utility.yul\":7137:7245   */\n      pop\n      pop\n      jump\t// out\n        /* \"#utility.yul\":7251:7359   */\n    tag_231:\n        /* \"#utility.yul\":7328:7352   */\n      tag_353\n        /* \"#utility.yul\":7346:7351   */\n      dup2\n        /* \"#utility.yul\":7328:7352   */\n      tag_217\n      jump\t// in\n    tag_353:\n        /* \"#utility.yul\":7323:7326   */\n      dup3\n        /* \"#utility.yul\":7316:7353   */\n      mstore\n        /* \"#utility.yul\":7251:7359   */\n      pop\n      pop\n      jump\t// out\n        /* \"#utility.yul\":7365:7464   */\n    tag_232:\n        /* \"#utility.yul\":7417:7423   */\n      0x00\n        /* \"#utility.yul\":7451:7456   */\n      dup2\n        /* \"#utility.yul\":7445:7457   */\n      mload\n        /* \"#utility.yul\":7435:7457   */\n      swap1\n      pop\n        /* \"#utility.yul\":7365:7464   */\n      swap2\n      swap1\n      pop\n      jump\t// out\n        /* \"#utility.yul\":7470:7629   */\n    tag_233:\n        /* \"#utility.yul\":7544:7555   */\n      0x00\n        /* \"#utility.yul\":7578:7584   */\n      dup3\n        /* \"#utility.yul\":7573:7576   */\n      dup3\n        /* \"#utility.yul\":7566:7585   */\n      mstore\n        /* \"#utility.yul\":7618:7622   */\n      0x20\n        /* \"#utility.yul\":7613:7616   */\n      dup3\n        /* \"#utility.yul\":7609:7623   */\n      add\n        /* \"#utility.yul\":7594:7623   */\n      swap1\n      pop\n        /* \"#utility.yul\":7470:7629   */\n      swap3\n      swap2\n      pop\n      pop\n      jump\t// out\n        /* \"#utility.yul\":7635:7992   */\n    tag_234:\n        /* \"#utility.yul\":7713:7716   */\n      0x00\n        /* \"#utility.yul\":7741:7780   */\n      tag_357\n        /* \"#utility.yul\":7774:7779   */\n      dup3\n        /* \"#utility.yul\":7741:7780   */\n      tag_232\n      jump\t// in\n    tag_357:\n        /* \"#utility.yul\":7796:7857   */\n      tag_358\n        /* \"#utility.yul\":7850:7856   */\n      dup2\n        /* \"#utility.yul\":7845:7848   */\n      dup6\n        /* \"#utility.yul\":7796:7857   */\n      tag_233\n      jump\t// in\n    tag_358:\n        /* \"#utility.yul\":7789:7857   */\n      swap4\n      pop\n        /* \"#utility.yul\":7866:7931   */\n      tag_359\n        /* \"#utility.yul\":7924:7930   */\n      dup2\n        /* \"#utility.yul\":7919:7922   */\n      dup6\n        /* \"#utility.yul\":7912:7916   */\n      0x20\n        /* \"#utility.yul\":7905:7910   */\n      dup7\n        /* \"#utility.yul\":7901:7917   */\n      add\n        /* \"#utility.yul\":7866:7931   */\n      tag_210\n      jump\t// in\n    tag_359:\n        /* \"#utility.yul\":7956:7985   */\n      tag_360\n        /* \"#utility.yul\":7978:7984   */\n      dup2\n        /* \"#utility.yul\":7956:7985   */\n      tag_211\n      jump\t// in\n    tag_360:\n        /* \"#utility.yul\":7951:7954   */\n      dup5\n        /* \"#utility.yul\":7947:7986   */\n      add\n        /* \"#utility.yul\":7940:7986   */\n      swap2\n      pop\n        /* \"#utility.yul\":7717:7992   */\n      pop\n        /* \"#utility.yul\":7635:7992   */\n      swap3\n      swap2\n      pop\n      pop\n      jump\t// out\n        /* \"#utility.yul\":8048:9010   */\n    tag_235:\n        /* \"#utility.yul\":8165:8168   */\n      0x00\n        /* \"#utility.yul\":8201:8205   */\n      0x80\n        /* \"#utility.yul\":8196:8199   */\n      dup4\n        /* \"#utility.yul\":8192:8206   */\n      add\n        /* \"#utility.yul\":8290:8294   */\n      0x00\n        /* \"#utility.yul\":8283:8288   */\n      dup4\n        /* \"#utility.yul\":8279:8295   */\n      add\n        /* \"#utility.yul\":8273:8296   */\n      mload\n        /* \"#utility.yul\":8309:8372   */\n      tag_362\n        /* \"#utility.yul\":8366:8370   */\n      0x00\n        /* \"#utility.yul\":8361:8364   */\n      dup7\n        /* \"#utility.yul\":8357:8371   */\n      add\n        /* \"#utility.yul\":8343:8355   */\n      dup3\n        /* \"#utility.yul\":8309:8372   */\n      tag_230\n      jump\t// in\n    tag_362:\n        /* \"#utility.yul\":8216:8382   */\n      pop\n        /* \"#utility.yul\":8469:8473   */\n      0x20\n        /* \"#utility.yul\":8462:8467   */\n      dup4\n        /* \"#utility.yul\":8458:8474   */\n      add\n        /* \"#utility.yul\":8452:8475   */\n      mload\n        /* \"#utility.yul\":8488:8551   */\n      tag_363\n        /* \"#utility.yul\":8545:8549   */\n      0x20\n        /* \"#utility.yul\":8540:8543   */\n      dup7\n        /* \"#utility.yul\":8536:8550   */\n      add\n        /* \"#utility.yul\":8522:8534   */\n      dup3\n        /* \"#utility.yul\":8488:8551   */\n      tag_230\n      jump\t// in\n    tag_363:\n        /* \"#utility.yul\":8392:8561   */\n      pop\n        /* \"#utility.yul\":8643:8647   */\n      0x40\n        /* \"#utility.yul\":8636:8641   */\n      dup4\n        /* \"#utility.yul\":8632:8648   */\n      add\n        /* \"#utility.yul\":8626:8649   */\n      mload\n        /* \"#utility.yul\":8662:8725   */\n      tag_364\n        /* \"#utility.yul\":8719:8723   */\n      0x40\n        /* \"#utility.yul\":8714:8717   */\n      dup7\n        /* \"#utility.yul\":8710:8724   */\n      add\n        /* \"#utility.yul\":8696:8708   */\n      dup3\n        /* \"#utility.yul\":8662:8725   */\n      tag_231\n      jump\t// in\n    tag_364:\n        /* \"#utility.yul\":8571:8735   */\n      pop\n        /* \"#utility.yul\":8820:8824   */\n      0x60\n        /* \"#utility.yul\":8813:8818   */\n      dup4\n        /* \"#utility.yul\":8809:8825   */\n      add\n        /* \"#utility.yul\":8803:8826   */\n      mload\n        /* \"#utility.yul\":8873:8876   */\n      dup5\n        /* \"#utility.yul\":8867:8871   */\n      dup3\n        /* \"#utility.yul\":8863:8877   */\n      sub\n        /* \"#utility.yul\":8856:8860   */\n      0x60\n        /* \"#utility.yul\":8851:8854   */\n      dup7\n        /* \"#utility.yul\":8847:8861   */\n      add\n        /* \"#utility.yul\":8840:8878   */\n      mstore\n        /* \"#utility.yul\":8899:8972   */\n      tag_365\n        /* \"#utility.yul\":8967:8971   */\n      dup3\n        /* \"#utility.yul\":8953:8965   */\n      dup3\n        /* \"#utility.yul\":8899:8972   */\n      tag_234\n      jump\t// in\n    tag_365:\n        /* \"#utility.yul\":8891:8972   */\n      swap2\n      pop\n        /* \"#utility.yul\":8745:8983   */\n      pop\n        /* \"#utility.yul\":9000:9004   */\n      dup1\n        /* \"#utility.yul\":8993:9004   */\n      swap2\n      pop\n        /* \"#utility.yul\":8170:9010   */\n      pop\n        /* \"#utility.yul\":8048:9010   */\n      swap3\n      swap2\n      pop\n      pop\n      jump\t// out\n        /* \"#utility.yul\":9016:9385   */\n    tag_73:\n        /* \"#utility.yul\":9157:9161   */\n      0x00\n        /* \"#utility.yul\":9195:9197   */\n      0x20\n        /* \"#utility.yul\":9184:9193   */\n      dup3\n        /* \"#utility.yul\":9180:9198   */\n      add\n        /* \"#utility.yul\":9172:9198   */\n      swap1\n      pop\n        /* \"#utility.yul\":9244:9253   */\n      dup2\n        /* \"#utility.yul\":9238:9242   */\n      dup2\n        /* \"#utility.yul\":9234:9254   */\n      sub\n        /* \"#utility.yul\":9230:9231   */\n      0x00\n        /* \"#utility.yul\":9219:9228   */\n      dup4\n        /* \"#utility.yul\":9215:9232   */\n      add\n        /* \"#utility.yul\":9208:9255   */\n      mstore\n        /* \"#utility.yul\":9272:9378   */\n      tag_367\n        /* \"#utility.yul\":9373:9377   */\n      dup2\n        /* \"#utility.yul\":9364:9370   */\n      dup5\n        /* \"#utility.yul\":9272:9378   */\n      tag_235\n      jump\t// in\n    tag_367:\n        /* \"#utility.yul\":9264:9378   */\n      swap1\n      pop\n        /* \"#utility.yul\":9016:9385   */\n      swap3\n      swap2\n      pop\n      pop\n      jump\t// out\n        /* \"#utility.yul\":9391:9505   */\n    tag_236:\n        /* \"#utility.yul\":9458:9464   */\n      0x00\n        /* \"#utility.yul\":9492:9497   */\n      dup2\n        /* \"#utility.yul\":9486:9498   */\n      mload\n        /* \"#utility.yul\":9476:9498   */\n      swap1\n      pop\n        /* \"#utility.yul\":9391:9505   */\n      swap2\n      swap1\n      pop\n      jump\t// out\n        /* \"#utility.yul\":9511:9695   */\n    tag_237:\n        /* \"#utility.yul\":9610:9621   */\n      0x00\n        /* \"#utility.yul\":9644:9650   */\n      dup3\n        /* \"#utility.yul\":9639:9642   */\n      dup3\n        /* \"#utility.yul\":9632:9651   */\n      mstore\n        /* \"#utility.yul\":9684:9688   */\n      0x20\n        /* \"#utility.yul\":9679:9682   */\n      dup3\n        /* \"#utility.yul\":9675:9689   */\n      add\n        /* \"#utility.yul\":9660:9689   */\n      swap1\n      pop\n        /* \"#utility.yul\":9511:9695   */\n      swap3\n      swap2\n      pop\n      pop\n      jump\t// out\n        /* \"#utility.yul\":9701:9833   */\n    tag_238:\n        /* \"#utility.yul\":9768:9772   */\n      0x00\n        /* \"#utility.yul\":9791:9794   */\n      dup2\n        /* \"#utility.yul\":9783:9794   */\n      swap1\n      pop\n        /* \"#utility.yul\":9821:9825   */\n      0x20\n        /* \"#utility.yul\":9816:9819   */\n      dup3\n        /* \"#utility.yul\":9812:9826   */\n      add\n        /* \"#utility.yul\":9804:9826   */\n      swap1\n      pop\n        /* \"#utility.yul\":9701:9833   */\n      swap2\n      swap1\n      pop\n      jump\t// out\n        /* \"#utility.yul\":9839:10018   */\n    tag_239:\n        /* \"#utility.yul\":9908:9918   */\n      0x00\n        /* \"#utility.yul\":9929:9975   */\n      tag_372\n        /* \"#utility.yul\":9971:9974   */\n      dup4\n        /* \"#utility.yul\":9963:9969   */\n      dup4\n        /* \"#utility.yul\":9929:9975   */\n      tag_230\n      jump\t// in\n    tag_372:\n        /* \"#utility.yul\":10007:10011   */\n      0x20\n        /* \"#utility.yul\":10002:10005   */\n      dup4\n        /* \"#utility.yul\":9998:10012   */\n      add\n        /* \"#utility.yul\":9984:10012   */\n      swap1\n      pop\n        /* \"#utility.yul\":9839:10018   */\n      swap3\n      swap2\n      pop\n      pop\n      jump\t// out\n        /* \"#utility.yul\":10024:10137   */\n    tag_240:\n        /* \"#utility.yul\":10094:10098   */\n      0x00\n        /* \"#utility.yul\":10126:10130   */\n      0x20\n        /* \"#utility.yul\":10121:10124   */\n      dup3\n        /* \"#utility.yul\":10117:10131   */\n      add\n        /* \"#utility.yul\":10109:10131   */\n      swap1\n      pop\n        /* \"#utility.yul\":10024:10137   */\n      swap2\n      swap1\n      pop\n      jump\t// out\n        /* \"#utility.yul\":10173:10905   */\n    tag_241:\n        /* \"#utility.yul\":10292:10295   */\n      0x00\n        /* \"#utility.yul\":10321:10375   */\n      tag_375\n        /* \"#utility.yul\":10369:10374   */\n      dup3\n        /* \"#utility.yul\":10321:10375   */\n      tag_236\n      jump\t// in\n    tag_375:\n        /* \"#utility.yul\":10391:10477   */\n      tag_376\n        /* \"#utility.yul\":10470:10476   */\n      dup2\n        /* \"#utility.yul\":10465:10468   */\n      dup6\n        /* \"#utility.yul\":10391:10477   */\n      tag_237\n      jump\t// in\n    tag_376:\n        /* \"#utility.yul\":10384:10477   */\n      swap4\n      pop\n        /* \"#utility.yul\":10501:10557   */\n      tag_377\n        /* \"#utility.yul\":10551:10556   */\n      dup4\n        /* \"#utility.yul\":10501:10557   */\n      tag_238\n      jump\t// in\n    tag_377:\n        /* \"#utility.yul\":10580:10587   */\n      dup1\n        /* \"#utility.yul\":10611:10612   */\n      0x00\n        /* \"#utility.yul\":10596:10880   */\n    tag_378:\n        /* \"#utility.yul\":10621:10627   */\n      dup4\n        /* \"#utility.yul\":10618:10619   */\n      dup2\n        /* \"#utility.yul\":10615:10628   */\n      lt\n        /* \"#utility.yul\":10596:10880   */\n      iszero\n      tag_380\n      jumpi\n        /* \"#utility.yul\":10697:10703   */\n      dup2\n        /* \"#utility.yul\":10691:10704   */\n      mload\n        /* \"#utility.yul\":10724:10787   */\n      tag_381\n        /* \"#utility.yul\":10783:10786   */\n      dup9\n        /* \"#utility.yul\":10768:10781   */\n      dup3\n        /* \"#utility.yul\":10724:10787   */\n      tag_239\n      jump\t// in\n    tag_381:\n        /* \"#utility.yul\":10717:10787   */\n      swap8\n      pop\n        /* \"#utility.yul\":10810:10870   */\n      tag_382\n        /* \"#utility.yul\":10863:10869   */\n      dup4\n        /* \"#utility.yul\":10810:10870   */\n      tag_240\n      jump\t// in\n    tag_382:\n        /* \"#utility.yul\":10800:10870   */\n      swap3\n      pop\n        /* \"#utility.yul\":10656:10880   */\n      pop\n        /* \"#utility.yul\":10643:10644   */\n      0x01\n        /* \"#utility.yul\":10640:10641   */\n      dup2\n        /* \"#utility.yul\":10636:10645   */\n      add\n        /* \"#utility.yul\":10631:10645   */\n      swap1\n      pop\n        /* \"#utility.yul\":10596:10880   */\n      jump(tag_378)\n    tag_380:\n        /* \"#utility.yul\":10600:10614   */\n      pop\n        /* \"#utility.yul\":10896:10899   */\n      dup6\n        /* \"#utility.yul\":10889:10899   */\n      swap4\n      pop\n        /* \"#utility.yul\":10297:10905   */\n      pop\n      pop\n      pop\n        /* \"#utility.yul\":10173:10905   */\n      swap3\n      swap2\n      pop\n      pop\n      jump\t// out\n        /* \"#utility.yul\":10911:11284   */\n    tag_78:\n        /* \"#utility.yul\":11054:11058   */\n      0x00\n        /* \"#utility.yul\":11092:11094   */\n      0x20\n        /* \"#utility.yul\":11081:11090   */\n      dup3\n        /* \"#utility.yul\":11077:11095   */\n      add\n        /* \"#utility.yul\":11069:11095   */\n      swap1\n      pop\n        /* \"#utility.yul\":11141:11150   */\n      dup2\n        /* \"#utility.yul\":11135:11139   */\n      dup2\n        /* \"#utility.yul\":11131:11151   */\n      sub\n        /* \"#utility.yul\":11127:11128   */\n      0x00\n        /* \"#utility.yul\":11116:11125   */\n      dup4\n        /* \"#utility.yul\":11112:11129   */\n      add\n        /* \"#utility.yul\":11105:11152   */\n      mstore\n        /* \"#utility.yul\":11169:11277   */\n      tag_384\n        /* \"#utility.yul\":11272:11276   */\n      dup2\n        /* \"#utility.yul\":11263:11269   */\n      dup5\n        /* \"#utility.yul\":11169:11277   */\n      tag_241\n      jump\t// in\n    tag_384:\n        /* \"#utility.yul\":11161:11277   */\n      swap1\n      pop\n        /* \"#utility.yul\":10911:11284   */\n      swap3\n      swap2\n      pop\n      pop\n      jump\t// out\n        /* \"#utility.yul\":11290:11367   */\n    tag_242:\n        /* \"#utility.yul\":11327:11334   */\n      0x00\n        /* \"#utility.yul\":11356:11361   */\n      dup2\n        /* \"#utility.yul\":11345:11361   */\n      swap1\n      pop\n        /* \"#utility.yul\":11290:11367   */\n      swap2\n      swap1\n      pop\n      jump\t// out\n        /* \"#utility.yul\":11373:11491   */\n    tag_243:\n        /* \"#utility.yul\":11460:11484   */\n      tag_387\n        /* \"#utility.yul\":11478:11483   */\n      dup2\n        /* \"#utility.yul\":11460:11484   */\n      tag_242\n      jump\t// in\n    tag_387:\n        /* \"#utility.yul\":11455:11458   */\n      dup3\n        /* \"#utility.yul\":11448:11485   */\n      mstore\n        /* \"#utility.yul\":11373:11491   */\n      pop\n      pop\n      jump\t// out\n        /* \"#utility.yul\":11497:11719   */\n    tag_99:\n        /* \"#utility.yul\":11590:11594   */\n      0x00\n        /* \"#utility.yul\":11628:11630   */\n      0x20\n        /* \"#utility.yul\":11617:11626   */\n      dup3\n        /* \"#utility.yul\":11613:11631   */\n      add\n        /* \"#utility.yul\":11605:11631   */\n      swap1\n      pop\n        /* \"#utility.yul\":11641:11712   */\n      tag_389\n        /* \"#utility.yul\":11709:11710   */\n      0x00\n        /* \"#utility.yul\":11698:11707   */\n      dup4\n        /* \"#utility.yul\":11694:11711   */\n      add\n        /* \"#utility.yul\":11685:11691   */\n      dup5\n        /* \"#utility.yul\":11641:11712   */\n      tag_243\n      jump\t// in\n    tag_389:\n        /* \"#utility.yul\":11497:11719   */\n      swap3\n      swap2\n      pop\n      pop\n      jump\t// out\n        /* \"#utility.yul\":11725:11905   */\n    tag_121:\n        /* \"#utility.yul\":11773:11850   */\n      0x4e487b7100000000000000000000000000000000000000000000000000000000\n        /* \"#utility.yul\":11770:11771   */\n      0x00\n        /* \"#utility.yul\":11763:11851   */\n      mstore\n        /* \"#utility.yul\":11870:11874   */\n      0x21\n        /* \"#utility.yul\":11867:11868   */\n      0x04\n        /* \"#utility.yul\":11860:11875   */\n      mstore\n        /* \"#utility.yul\":11894:11898   */\n      0x24\n        /* \"#utility.yul\":11891:11892   */\n      0x00\n        /* \"#utility.yul\":11884:11899   */\n      revert\n        /* \"#utility.yul\":11911:12024   */\n    tag_244:\n        /* \"#utility.yul\":11992:11993   */\n      0x04\n        /* \"#utility.yul\":11985:11990   */\n      dup2\n        /* \"#utility.yul\":11982:11994   */\n      lt\n        /* \"#utility.yul\":11972:12018   */\n      tag_392\n      jumpi\n        /* \"#utility.yul\":11998:12016   */\n      tag_393\n      tag_121\n      jump\t// in\n    tag_393:\n        /* \"#utility.yul\":11972:12018   */\n    tag_392:\n        /* \"#utility.yul\":11911:12024   */\n      pop\n      jump\t// out\n        /* \"#utility.yul\":12030:12157   */\n    tag_245:\n        /* \"#utility.yul\":12075:12082   */\n      0x00\n        /* \"#utility.yul\":12104:12109   */\n      dup2\n        /* \"#utility.yul\":12093:12109   */\n      swap1\n      pop\n        /* \"#utility.yul\":12110:12151   */\n      tag_395\n        /* \"#utility.yul\":12145:12150   */\n      dup3\n        /* \"#utility.yul\":12110:12151   */\n      tag_244\n      jump\t// in\n    tag_395:\n        /* \"#utility.yul\":12030:12157   */\n      swap2\n      swap1\n      pop\n      jump\t// out\n        /* \"#utility.yul\":12163:12290   */\n    tag_246:\n        /* \"#utility.yul\":12219:12228   */\n      0x00\n        /* \"#utility.yul\":12252:12284   */\n      tag_397\n        /* \"#utility.yul\":12278:12283   */\n      dup3\n        /* \"#utility.yul\":12252:12284   */\n      tag_245\n      jump\t// in\n    tag_397:\n        /* \"#utility.yul\":12239:12284   */\n      swap1\n      pop\n        /* \"#utility.yul\":12163:12290   */\n      swap2\n      swap1\n      pop\n      jump\t// out\n        /* \"#utility.yul\":12296:12439   */\n    tag_247:\n        /* \"#utility.yul\":12389:12432   */\n      tag_399\n        /* \"#utility.yul\":12426:12431   */\n      dup2\n        /* \"#utility.yul\":12389:12432   */\n      tag_246\n      jump\t// in\n    tag_399:\n        /* \"#utility.yul\":12384:12387   */\n      dup3\n        /* \"#utility.yul\":12377:12433   */\n      mstore\n        /* \"#utility.yul\":12296:12439   */\n      pop\n      pop\n      jump\t// out\n        /* \"#utility.yul\":12445:12679   */\n    tag_107:\n        /* \"#utility.yul\":12544:12548   */\n      0x00\n        /* \"#utility.yul\":12582:12584   */\n      0x20\n        /* \"#utility.yul\":12571:12580   */\n      dup3\n        /* \"#utility.yul\":12567:12585   */\n      add\n        /* \"#utility.yul\":12559:12585   */\n      swap1\n      pop\n        /* \"#utility.yul\":12595:12672   */\n      tag_401\n        /* \"#utility.yul\":12669:12670   */\n      0x00\n        /* \"#utility.yul\":12658:12667   */\n      dup4\n        /* \"#utility.yul\":12654:12671   */\n      add\n        /* \"#utility.yul\":12645:12651   */\n      dup5\n        /* \"#utility.yul\":12595:12672   */\n      tag_247\n      jump\t// in\n    tag_401:\n        /* \"#utility.yul\":12445:12679   */\n      swap3\n      swap2\n      pop\n      pop\n      jump\t// out\n        /* \"#utility.yul\":12685:12865   */\n    tag_248:\n        /* \"#utility.yul\":12733:12810   */\n      0x4e487b7100000000000000000000000000000000000000000000000000000000\n        /* \"#utility.yul\":12730:12731   */\n      0x00\n        /* \"#utility.yul\":12723:12811   */\n      mstore\n        /* \"#utility.yul\":12830:12834   */\n      0x22\n        /* \"#utility.yul\":12827:12828   */\n      0x04\n        /* \"#utility.yul\":12820:12835   */\n      mstore\n        /* \"#utility.yul\":12854:12858   */\n      0x24\n        /* \"#utility.yul\":12851:12852   */\n      0x00\n        /* \"#utility.yul\":12844:12859   */\n      revert\n        /* \"#utility.yul\":12871:13191   */\n    tag_117:\n        /* \"#utility.yul\":12915:12921   */\n      0x00\n        /* \"#utility.yul\":12952:12953   */\n      0x02\n        /* \"#utility.yul\":12946:12950   */\n      dup3\n        /* \"#utility.yul\":12942:12954   */\n      div\n        /* \"#utility.yul\":12932:12954   */\n      swap1\n      pop\n        /* \"#utility.yul\":12999:13000   */\n      0x01\n        /* \"#utility.yul\":12993:12997   */\n      dup3\n        /* \"#utility.yul\":12989:13001   */\n      and\n        /* \"#utility.yul\":13020:13038   */\n      dup1\n        /* \"#utility.yul\":13010:13091   */\n      tag_404\n      jumpi\n        /* \"#utility.yul\":13076:13080   */\n      0x7f\n        /* \"#utility.yul\":13068:13074   */\n      dup3\n        /* \"#utility.yul\":13064:13081   */\n      and\n        /* \"#utility.yul\":13054:13081   */\n      swap2\n      pop\n        /* \"#utility.yul\":13010:13091   */\n    tag_404:\n        /* \"#utility.yul\":13138:13140   */\n      0x20\n        /* \"#utility.yul\":13130:13136   */\n      dup3\n        /* \"#utility.yul\":13127:13141   */\n      lt\n        /* \"#utility.yul\":13107:13125   */\n      dup2\n        /* \"#utility.yul\":13104:13142   */\n      sub\n        /* \"#utility.yul\":13101:13185   */\n      tag_405\n      jumpi\n        /* \"#utility.yul\":13157:13175   */\n      tag_406\n      tag_248\n      jump\t// in\n    tag_406:\n        /* \"#utility.yul\":13101:13185   */\n    tag_405:\n        /* \"#utility.yul\":12922:13191   */\n      pop\n        /* \"#utility.yul\":12871:13191   */\n      swap2\n      swap1\n      pop\n      jump\t// out\n        /* \"#utility.yul\":13197:13377   */\n    tag_249:\n        /* \"#utility.yul\":13245:13322   */\n      0x4e487b7100000000000000000000000000000000000000000000000000000000\n        /* \"#utility.yul\":13242:13243   */\n      0x00\n        /* \"#utility.yul\":13235:13323   */\n      mstore\n        /* \"#utility.yul\":13342:13346   */\n      0x11\n        /* \"#utility.yul\":13339:13340   */\n      0x04\n        /* \"#utility.yul\":13332:13347   */\n      mstore\n        /* \"#utility.yul\":13366:13370   */\n      0x24\n        /* \"#utility.yul\":13363:13364   */\n      0x00\n        /* \"#utility.yul\":13356:13371   */\n      revert\n        /* \"#utility.yul\":13383:13616   */\n    tag_132:\n        /* \"#utility.yul\":13422:13425   */\n      0x00\n        /* \"#utility.yul\":13445:13469   */\n      tag_409\n        /* \"#utility.yul\":13463:13468   */\n      dup3\n        /* \"#utility.yul\":13445:13469   */\n      tag_206\n      jump\t// in\n    tag_409:\n        /* \"#utility.yul\":13436:13469   */\n      swap2\n      pop\n        /* \"#utility.yul\":13491:13557   */\n      0xffffffffffffffffffffffffffffffffffffffffffffffffffffffffffffffff\n        /* \"#utility.yul\":13484:13489   */\n      dup3\n        /* \"#utility.yul\":13481:13558   */\n      sub\n        /* \"#utility.yul\":13478:13581   */\n      tag_410\n      jumpi\n        /* \"#utility.yul\":13561:13579   */\n      tag_411\n      tag_249\n      jump\t// in\n    tag_411:\n        /* \"#utility.yul\":13478:13581   */\n    tag_410:\n        /* \"#utility.yul\":13608:13609   */\n      0x01\n        /* \"#utility.yul\":13601:13606   */\n      dup3\n        /* \"#utility.yul\":13597:13610   */\n      add\n        /* \"#utility.yul\":13590:13610   */\n      swap1\n      pop\n        /* \"#utility.yul\":13383:13616   */\n      swap2\n      swap1\n      pop\n      jump\t// out\n        /* \"#utility.yul\":13622:13763   */\n    tag_250:\n        /* \"#utility.yul\":13671:13675   */\n      0x00\n        /* \"#utility.yul\":13694:13697   */\n      dup2\n        /* \"#utility.yul\":13686:13697   */\n      swap1\n      pop\n        /* \"#utility.yul\":13717:13720   */\n      dup2\n        /* \"#utility.yul\":13714:13715   */\n      0x00\n        /* \"#utility.yul\":13707:13721   */\n      mstore\n        /* \"#utility.yul\":13751:13755   */\n      0x20\n        /* \"#utility.yul\":13748:13749   */\n      0x00\n        /* \"#utility.yul\":13738:13756   */\n      keccak256\n        /* \"#utility.yul\":13730:13756   */\n      swap1\n      pop\n        /* \"#utility.yul\":13622:13763   */\n      swap2\n      swap1\n      pop\n      jump\t// out\n        /* \"#utility.yul\":13769:13862   */\n    tag_251:\n        /* \"#utility.yul\":13806:13812   */\n      0x00\n        /* \"#utility.yul\":13853:13855   */\n      0x20\n        /* \"#utility.yul\":13848:13850   */\n      0x1f\n        /* \"#utility.yul\":13841:13846   */\n      dup4\n        /* \"#utility.yul\":13837:13851   */\n      add\n        /* \"#utility.yul\":13833:13856   */\n      div\n        /* \"#utility.yul\":13823:13856   */\n      swap1\n      pop\n        /* \"#utility.yul\":13769:13862   */\n      swap2\n      swap1\n      pop\n      jump\t// out\n        /* \"#utility.yul\":13868:13975   */\n    tag_252:\n        /* \"#utility.yul\":13912:13920   */\n      0x00\n        /* \"#utility.yul\":13962:13967   */\n      dup3\n        /* \"#utility.yul\":13956:13960   */\n      dup3\n        /* \"#utility.yul\":13952:13968   */\n      shl\n        /* \"#utility.yul\":13931:13968   */\n      swap1\n      pop\n        /* \"#utility.yul\":13868:13975   */\n      swap3\n      swap2\n      pop\n      pop\n      jump\t// out\n        /* \"#utility.yul\":13981:14374   */\n    tag_253:\n        /* \"#utility.yul\":14050:14056   */\n      0x00\n        /* \"#utility.yul\":14100:14101   */\n      0x08\n        /* \"#utility.yul\":14088:14098   */\n      dup4\n        /* \"#utility.yul\":14084:14102   */\n      mul\n        /* \"#utility.yul\":14123:14220   */\n      tag_416\n        /* \"#utility.yul\":14153:14219   */\n      0xffffffffffffffffffffffffffffffffffffffffffffffffffffffffffffffff\n        /* \"#utility.yul\":14142:14151   */\n      dup3\n        /* \"#utility.yul\":14123:14220   */\n      tag_252\n      jump\t// in\n    tag_416:\n        /* \"#utility.yul\":14241:14280   */\n      tag_417\n        /* \"#utility.yul\":14271:14279   */\n      dup7\n        /* \"#utility.yul\":14260:14269   */\n      dup4\n        /* \"#utility.yul\":14241:14280   */\n      tag_252\n      jump\t// in\n    tag_417:\n        /* \"#utility.yul\":14229:14280   */\n      swap6\n      pop\n        /* \"#utility.yul\":14313:14317   */\n      dup1\n        /* \"#utility.yul\":14309:14318   */\n      not\n        /* \"#utility.yul\":14302:14307   */\n      dup5\n        /* \"#utility.yul\":14298:14319   */\n      and\n        /* \"#utility.yul\":14289:14319   */\n      swap4\n      pop\n        /* \"#utility.yul\":14362:14366   */\n      dup1\n        /* \"#utility.yul\":14352:14360   */\n      dup7\n        /* \"#utility.yul\":14348:14367   */\n      and\n        /* \"#utility.yul\":14341:14346   */\n      dup5\n        /* \"#utility.yul\":14338:14368   */\n      or\n        /* \"#utility.yul\":14328:14368   */\n      swap3\n      pop\n        /* \"#utility.yul\":14057:14374   */\n      pop\n      pop\n        /* \"#utility.yul\":13981:14374   */\n      swap4\n      swap3\n      pop\n      pop\n      pop\n      jump\t// out\n        /* \"#utility.yul\":14380:14440   */\n    tag_254:\n        /* \"#utility.yul\":14408:14411   */\n      0x00\n        /* \"#utility.yul\":14429:14434   */\n      dup2\n        /* \"#utility.yul\":14422:14434   */\n      swap1\n      pop\n        /* \"#utility.yul\":14380:14440   */\n      swap2\n      swap1\n      pop\n      jump\t// out\n        /* \"#utility.yul\":14446:14588   */\n    tag_255:\n        /* \"#utility.yul\":14496:14505   */\n      0x00\n        /* \"#utility.yul\":14529:14582   */\n      tag_420\n        /* \"#utility.yul\":14547:14581   */\n      tag_421\n        /* \"#utility.yul\":14556:14580   */\n      tag_422\n        /* \"#utility.yul\":14574:14579   */\n      dup5\n        /* \"#utility.yul\":14556:14580   */\n      tag_206\n      jump\t// in\n    tag_422:\n        /* \"#utility.yul\":14547:14581   */\n      tag_254\n      jump\t// in\n    tag_421:\n        /* \"#utility.yul\":14529:14582   */\n      tag_206\n      jump\t// in\n    tag_420:\n        /* \"#utility.yul\":14516:14582   */\n      swap1\n      pop\n        /* \"#utility.yul\":14446:14588   */\n      swap2\n      swap1\n      pop\n      jump\t// out\n        /* \"#utility.yul\":14594:14669   */\n    tag_256:\n        /* \"#utility.yul\":14637:14640   */\n      0x00\n        /* \"#utility.yul\":14658:14663   */\n      dup2\n        /* \"#utility.yul\":14651:14663   */\n      swap1\n      pop\n        /* \"#utility.yul\":14594:14669   */\n      swap2\n      swap1\n      pop\n      jump\t// out\n        /* \"#utility.yul\":14675:14944   */\n    tag_257:\n        /* \"#utility.yul\":14785:14824   */\n      tag_425\n        /* \"#utility.yul\":14816:14823   */\n      dup4\n        /* \"#utility.yul\":14785:14824   */\n      tag_255\n      jump\t// in\n    tag_425:\n        /* \"#utility.yul\":14846:14937   */\n      tag_426\n        /* \"#utility.yul\":14895:14936   */\n      tag_427\n        /* \"#utility.yul\":14919:14935   */\n      dup3\n        /* \"#utility.yul\":14895:14936   */\n      tag_256\n      jump\t// in\n    tag_427:\n        /* \"#utility.yul\":14887:14893   */\n      dup5\n        /* \"#utility.yul\":14880:14884   */\n      dup5\n        /* \"#utility.yul\":14874:14885   */\n      sload\n        /* \"#utility.yul\":14846:14937   */\n      tag_253\n      jump\t// in\n    tag_426:\n        /* \"#utility.yul\":14840:14844   */\n      dup3\n        /* \"#utility.yul\":14833:14938   */\n      sstore\n        /* \"#utility.yul\":14751:14944   */\n      pop\n        /* \"#utility.yul\":14675:14944   */\n      pop\n      pop\n      pop\n      jump\t// out\n        /* \"#utility.yul\":14950:15023   */\n    tag_258:\n        /* \"#utility.yul\":14995:14998   */\n      0x00\n        /* \"#utility.yul\":14950:15023   */\n      swap1\n      jump\t// out\n        /* \"#utility.yul\":15029:15218   */\n    tag_259:\n        /* \"#utility.yul\":15106:15138   */\n      tag_430\n      tag_258\n      jump\t// in\n    tag_430:\n        /* \"#utility.yul\":15147:15212   */\n      tag_431\n        /* \"#utility.yul\":15205:15211   */\n      dup2\n        /* \"#utility.yul\":15197:15203   */\n      dup5\n        /* \"#utility.yul\":15191:15195   */\n      dup5\n        /* \"#utility.yul\":15147:15212   */\n      tag_257\n      jump\t// in\n    tag_431:\n        /* \"#utility.yul\":15082:15218   */\n      pop\n        /* \"#utility.yul\":15029:15218   */\n      pop\n      pop\n      jump\t// out\n        /* \"#utility.yul\":15224:15410   */\n    tag_260:\n        /* \"#utility.yul\":15284:15404   */\n    tag_433:\n        /* \"#utility.yul\":15301:15304   */\n      dup2\n        /* \"#utility.yul\":15294:15299   */\n      dup2\n        /* \"#utility.yul\":15291:15305   */\n      lt\n        /* \"#utility.yul\":15284:15404   */\n      iszero\n      tag_435\n      jumpi\n        /* \"#utility.yul\":15355:15394   */\n      tag_436\n        /* \"#utility.yul\":15392:15393   */\n      0x00\n        /* \"#utility.yul\":15385:15390   */\n      dup3\n        /* \"#utility.yul\":15355:15394   */\n      tag_259\n      jump\t// in\n    tag_436:\n        /* \"#utility.yul\":15328:15329   */\n      0x01\n        /* \"#utility.yul\":15321:15326   */\n      dup2\n        /* \"#utility.yul\":15317:15330   */\n      add\n        /* \"#utility.yul\":15308:15330   */\n      swap1\n      pop\n        /* \"#utility.yul\":15284:15404   */\n      jump(tag_433)\n    tag_435:\n        /* \"#utility.yul\":15224:15410   */\n      pop\n      pop\n      jump\t// out\n        /* \"#utility.yul\":15416:15959   */\n    tag_261:\n        /* \"#utility.yul\":15517:15519   */\n      0x1f\n        /* \"#utility.yul\":15512:15515   */\n      dup3\n        /* \"#utility.yul\":15509:15520   */\n      gt\n        /* \"#utility.yul\":15506:15952   */\n      iszero\n      tag_438\n      jumpi\n        /* \"#utility.yul\":15551:15589   */\n      tag_439\n        /* \"#utility.yul\":15583:15588   */\n      dup2\n        /* \"#utility.yul\":15551:15589   */\n      tag_250\n      jump\t// in\n    tag_439:\n        /* \"#utility.yul\":15635:15664   */\n      tag_440\n        /* \"#utility.yul\":15653:15663   */\n      dup5\n        /* \"#utility.yul\":15635:15664   */\n      tag_251\n      jump\t// in\n    tag_440:\n        /* \"#utility.yul\":15625:15633   */\n      dup2\n        /* \"#utility.yul\":15621:15665   */\n      add\n        /* \"#utility.yul\":15818:15820   */\n      0x20\n        /* \"#utility.yul\":15806:15816   */\n      dup6\n        /* \"#utility.yul\":15803:15821   */\n      lt\n        /* \"#utility.yul\":15800:15849   */\n      iszero\n      tag_441\n      jumpi\n        /* \"#utility.yul\":15839:15847   */\n      dup2\n        /* \"#utility.yul\":15824:15847   */\n      swap1\n      pop\n        /* \"#utility.yul\":15800:15849   */\n    tag_441:\n        /* \"#utility.yul\":15862:15942   */\n      tag_442\n        /* \"#utility.yul\":15918:15940   */\n      tag_443\n        /* \"#utility.yul\":15936:15939   */\n      dup6\n        /* \"#utility.yul\":15918:15940   */\n      tag_251\n      jump\t// in\n    tag_443:\n        /* \"#utility.yul\":15908:15916   */\n      dup4\n        /* \"#utility.yul\":15904:15941   */\n      add\n        /* \"#utility.yul\":15891:15902   */\n      dup3\n        /* \"#utility.yul\":15862:15942   */\n      tag_260\n      jump\t// in\n    tag_442:\n        /* \"#utility.yul\":15521:15952   */\n      pop\n      pop\n        /* \"#utility.yul\":15506:15952   */\n    tag_438:\n        /* \"#utility.yul\":15416:15959   */\n      pop\n      pop\n      pop\n      jump\t// out\n        /* \"#utility.yul\":15965:16082   */\n    tag_262:\n        /* \"#utility.yul\":16019:16027   */\n      0x00\n        /* \"#utility.yul\":16069:16074   */\n      dup3\n        /* \"#utility.yul\":16063:16067   */\n      dup3\n        /* \"#utility.yul\":16059:16075   */\n      shr\n        /* \"#utility.yul\":16038:16075   */\n      swap1\n      pop\n        /* \"#utility.yul\":15965:16082   */\n      swap3\n      swap2\n      pop\n      pop\n      jump\t// out\n        /* \"#utility.yul\":16088:16257   */\n    tag_263:\n        /* \"#utility.yul\":16132:16138   */\n      0x00\n        /* \"#utility.yul\":16165:16216   */\n      tag_446\n        /* \"#utility.yul\":16213:16214   */\n      0x00\n        /* \"#utility.yul\":16209:16215   */\n      not\n        /* \"#utility.yul\":16201:16206   */\n      dup5\n        /* \"#utility.yul\":16198:16199   */\n      0x08\n        /* \"#utility.yul\":16194:16207   */\n      mul\n        /* \"#utility.yul\":16165:16216   */\n      tag_262\n      jump\t// in\n    tag_446:\n        /* \"#utility.yul\":16161:16217   */\n      not\n        /* \"#utility.yul\":16246:16250   */\n      dup1\n        /* \"#utility.yul\":16240:16244   */\n      dup4\n        /* \"#utility.yul\":16236:16251   */\n      and\n        /* \"#utility.yul\":16226:16251   */\n      swap2\n      pop\n        /* \"#utility.yul\":16139:16257   */\n      pop\n        /* \"#utility.yul\":16088:16257   */\n      swap3\n      swap2\n      pop\n      pop\n      jump\t// out\n        /* \"#utility.yul\":16262:16557   */\n    tag_264:\n        /* \"#utility.yul\":16338:16342   */\n      0x00\n        /* \"#utility.yul\":16484:16513   */\n      tag_448\n        /* \"#utility.yul\":16509:16512   */\n      dup4\n        /* \"#utility.yul\":16503:16507   */\n      dup4\n        /* \"#utility.yul\":16484:16513   */\n      tag_263\n      jump\t// in\n    tag_448:\n        /* \"#utility.yul\":16476:16513   */\n      swap2\n      pop\n        /* \"#utility.yul\":16546:16549   */\n      dup3\n        /* \"#utility.yul\":16543:16544   */\n      0x02\n        /* \"#utility.yul\":16539:16550   */\n      mul\n        /* \"#utility.yul\":16533:16537   */\n      dup3\n        /* \"#utility.yul\":16530:16551   */\n      or\n        /* \"#utility.yul\":16522:16551   */\n      swap1\n      pop\n        /* \"#utility.yul\":16262:16557   */\n      swap3\n      swap2\n      pop\n      pop\n      jump\t// out\n        /* \"#utility.yul\":16562:17957   */\n    tag_134:\n        /* \"#utility.yul\":16679:16716   */\n      tag_450\n        /* \"#utility.yul\":16712:16715   */\n      dup3\n        /* \"#utility.yul\":16679:16716   */\n      tag_232\n      jump\t// in\n    tag_450:\n        /* \"#utility.yul\":16781:16799   */\n      0xffffffffffffffff\n        /* \"#utility.yul\":16773:16779   */\n      dup2\n        /* \"#utility.yul\":16770:16800   */\n      gt\n        /* \"#utility.yul\":16767:16823   */\n      iszero\n      tag_451\n      jumpi\n        /* \"#utility.yul\":16803:16821   */\n      tag_452\n      tag_152\n      jump\t// in\n    tag_452:\n        /* \"#utility.yul\":16767:16823   */\n    tag_451:\n        /* \"#utility.yul\":16847:16885   */\n      tag_453\n        /* \"#utility.yul\":16879:16883   */\n      dup3\n        /* \"#utility.yul\":16873:16884   */\n      sload\n        /* \"#utility.yul\":16847:16885   */\n      tag_117\n      jump\t// in\n    tag_453:\n        /* \"#utility.yul\":16932:16999   */\n      tag_454\n        /* \"#utility.yul\":16992:16998   */\n      dup3\n        /* \"#utility.yul\":16984:16990   */\n      dup3\n        /* \"#utility.yul\":16978:16982   */\n      dup6\n        /* \"#utility.yul\":16932:16999   */\n      tag_261\n      jump\t// in\n    tag_454:\n        /* \"#utility.yul\":17026:17027   */\n      0x00\n        /* \"#utility.yul\":17050:17054   */\n      0x20\n        /* \"#utility.yul\":17037:17054   */\n      swap1\n      pop\n        /* \"#utility.yul\":17082:17084   */\n      0x1f\n        /* \"#utility.yul\":17074:17080   */\n      dup4\n        /* \"#utility.yul\":17071:17085   */\n      gt\n        /* \"#utility.yul\":17099:17100   */\n      0x01\n        /* \"#utility.yul\":17094:17712   */\n      dup2\n      eq\n      tag_456\n      jumpi\n        /* \"#utility.yul\":17756:17757   */\n      0x00\n        /* \"#utility.yul\":17773:17779   */\n      dup5\n        /* \"#utility.yul\":17770:17847   */\n      iszero\n      tag_457\n      jumpi\n        /* \"#utility.yul\":17822:17831   */\n      dup3\n        /* \"#utility.yul\":17817:17820   */\n      dup8\n        /* \"#utility.yul\":17813:17832   */\n      add\n        /* \"#utility.yul\":17807:17833   */\n      mload\n        /* \"#utility.yul\":17798:17833   */\n      swap1\n      pop\n        /* \"#utility.yul\":17770:17847   */\n    tag_457:\n        /* \"#utility.yul\":17873:17940   */\n      tag_458\n        /* \"#utility.yul\":17933:17939   */\n      dup6\n        /* \"#utility.yul\":17926:17931   */\n      dup3\n        /* \"#utility.yul\":17873:17940   */\n      tag_264\n      jump\t// in\n    tag_458:\n        /* \"#utility.yul\":17867:17871   */\n      dup7\n        /* \"#utility.yul\":17860:17941   */\n      sstore\n        /* \"#utility.yul\":17729:17951   */\n      pop\n        /* \"#utility.yul\":17064:17951   */\n      jump(tag_455)\n        /* \"#utility.yul\":17094:17712   */\n    tag_456:\n        /* \"#utility.yul\":17146:17150   */\n      0x1f\n        /* \"#utility.yul\":17142:17151   */\n      not\n        /* \"#utility.yul\":17134:17140   */\n      dup5\n        /* \"#utility.yul\":17130:17152   */\n      and\n        /* \"#utility.yul\":17180:17217   */\n      tag_459\n        /* \"#utility.yul\":17212:17216   */\n      dup7\n        /* \"#utility.yul\":17180:17217   */\n      tag_250\n      jump\t// in\n    tag_459:\n        /* \"#utility.yul\":17239:17240   */\n      0x00\n        /* \"#utility.yul\":17253:17461   */\n    tag_460:\n        /* \"#utility.yul\":17267:17274   */\n      dup3\n        /* \"#utility.yul\":17264:17265   */\n      dup2\n        /* \"#utility.yul\":17261:17275   */\n      lt\n        /* \"#utility.yul\":17253:17461   */\n      iszero\n      tag_462\n      jumpi\n        /* \"#utility.yul\":17346:17355   */\n      dup5\n        /* \"#utility.yul\":17341:17344   */\n      dup10\n        /* \"#utility.yul\":17337:17356   */\n      add\n        /* \"#utility.yul\":17331:17357   */\n      mload\n        /* \"#utility.yul\":17323:17329   */\n      dup3\n        /* \"#utility.yul\":17316:17358   */\n      sstore\n        /* \"#utility.yul\":17397:17398   */\n      0x01\n        /* \"#utility.yul\":17389:17395   */\n      dup3\n        /* \"#utility.yul\":17385:17399   */\n      add\n        /* \"#utility.yul\":17375:17399   */\n      swap2\n      pop\n        /* \"#utility.yul\":17444:17446   */\n      0x20\n        /* \"#utility.yul\":17433:17442   */\n      dup6\n        /* \"#utility.yul\":17429:17447   */\n      add\n        /* \"#utility.yul\":17416:17447   */\n      swap5\n      pop\n        /* \"#utility.yul\":17290:17294   */\n      0x20\n        /* \"#utility.yul\":17287:17288   */\n      dup2\n        /* \"#utility.yul\":17283:17295   */\n      add\n        /* \"#utility.yul\":17278:17295   */\n      swap1\n      pop\n        /* \"#utility.yul\":17253:17461   */\n      jump(tag_460)\n    tag_462:\n        /* \"#utility.yul\":17489:17495   */\n      dup7\n        /* \"#utility.yul\":17480:17487   */\n      dup4\n        /* \"#utility.yul\":17477:17496   */\n      lt\n        /* \"#utility.yul\":17474:17653   */\n      iszero\n      tag_463\n      jumpi\n        /* \"#utility.yul\":17547:17556   */\n      dup5\n        /* \"#utility.yul\":17542:17545   */\n      dup10\n        /* \"#utility.yul\":17538:17557   */\n      add\n        /* \"#utility.yul\":17532:17558   */\n      mload\n        /* \"#utility.yul\":17590:17638   */\n      tag_464\n        /* \"#utility.yul\":17632:17636   */\n      0x1f\n        /* \"#utility.yul\":17624:17630   */\n      dup10\n        /* \"#utility.yul\":17620:17637   */\n      and\n        /* \"#utility.yul\":17609:17618   */\n      dup3\n        /* \"#utility.yul\":17590:17638   */\n      tag_263\n      jump\t// in\n    tag_464:\n        /* \"#utility.yul\":17582:17588   */\n      dup4\n        /* \"#utility.yul\":17575:17639   */\n      sstore\n        /* \"#utility.yul\":17497:17653   */\n      pop\n        /* \"#utility.yul\":17474:17653   */\n    tag_463:\n        /* \"#utility.yul\":17699:17700   */\n      0x01\n        /* \"#utility.yul\":17695:17696   */\n      0x02\n        /* \"#utility.yul\":17687:17693   */\n      dup9\n        /* \"#utility.yul\":17683:17697   */\n      mul\n        /* \"#utility.yul\":17679:17701   */\n      add\n        /* \"#utility.yul\":17673:17677   */\n      dup9\n        /* \"#utility.yul\":17666:17702   */\n      sstore\n        /* \"#utility.yul\":17101:17712   */\n      pop\n      pop\n      pop\n        /* \"#utility.yul\":17064:17951   */\n    tag_455:\n      pop\n        /* \"#utility.yul\":16654:17957   */\n      pop\n      pop\n      pop\n        /* \"#utility.yul\":16562:17957   */\n      pop\n      pop\n      jump\t// out\n        /* \"#utility.yul\":17963:18143   */\n    tag_156:\n        /* \"#utility.yul\":18011:18088   */\n      0x4e487b7100000000000000000000000000000000000000000000000000000000\n        /* \"#utility.yul\":18008:18009   */\n      0x00\n        /* \"#utility.yul\":18001:18089   */\n      mstore\n        /* \"#utility.yul\":18108:18112   */\n      0x32\n        /* \"#utility.yul\":18105:18106   */\n      0x04\n        /* \"#utility.yul\":18098:18113   */\n      mstore\n        /* \"#utility.yul\":18132:18136   */\n      0x24\n        /* \"#utility.yul\":18129:18130   */\n      0x00\n        /* \"#utility.yul\":18122:18137   */\n      revert\n\n    auxdata: 0xa264697066735822122097750d7d64ca1ed16ec27ccafe5d384553216cb3158280fd4c0bce6ca648420764736f6c63430008110033\n}\n",
				"bytecode": {
					"linkReferences": {},
					"object": "60806040526040518060800160405280600160ff168152602001600260ff168152602001600360ff168152602001600760ff168152506008906004620000479291906200010e565b507f7465737420686572650000000000000000000000000000000000000000000000602f556040518060400160405280600981526020017f746573742068657265000000000000000000000000000000000000000000000081525060309081620000b29190620003f1565b506040518060400160405280601481526020017fd0bfd180d0b8d0b2d0b5d18220d0bcd0b8d1802100000000000000000000000081525060319081620000f99190620003f1565b503480156200010757600080fd5b50620004d8565b826007810192821562000145579160200282015b8281111562000144578251829060ff1690559160200191906001019062000122565b5b50905062000154919062000158565b5090565b5b808211156200017357600081600090555060010162000159565b5090565b600081519050919050565b7f4e487b7100000000000000000000000000000000000000000000000000000000600052604160045260246000fd5b7f4e487b7100000000000000000000000000000000000000000000000000000000600052602260045260246000fd5b60006002820490506001821680620001f957607f821691505b6020821081036200020f576200020e620001b1565b5b50919050565b60008190508160005260206000209050919050565b60006020601f8301049050919050565b600082821b905092915050565b600060088302620002797fffffffffffffffffffffffffffffffffffffffffffffffffffffffffffffffff826200023a565b6200028586836200023a565b95508019841693508086168417925050509392505050565b6000819050919050565b6000819050919050565b6000620002d2620002cc620002c6846200029d565b620002a7565b6200029d565b9050919050565b6000819050919050565b620002ee83620002b1565b62000306620002fd82620002d9565b84845462000247565b825550505050565b600090565b6200031d6200030e565b6200032a818484620002e3565b505050565b5b8181101562000352576200034660008262000313565b60018101905062000330565b5050565b601f821115620003a1576200036b8162000215565b62000376846200022a565b8101602085101562000386578190505b6200039e62000395856200022a565b8301826200032f565b50505b505050565b600082821c905092915050565b6000620003c660001984600802620003a6565b1980831691505092915050565b6000620003e18383620003b3565b9150826002028217905092915050565b620003fc8262000177565b67ffffffffffffffff81111562000418576200041762000182565b5b620004248254620001e0565b6200043182828562000356565b600060209050601f83116001811462000469576000841562000454578287015190505b620004608582620003d3565b865550620004d0565b601f198416620004798662000215565b60005b82811015620004a3578489015182556001820191506020850194506020810190506200047c565b86831015620004c35784890151620004bf601f891682620003b3565b8355505b6001600288020188555050505b505050505050565b61186480620004e86000396000f3fe60806040526004361061011f5760003560e01c8063a34343c9116100a0578063c6b9154011610064578063c6b91540146103b6578063d9d7d170146103e1578063ef8a9235146103f8578063f81e919f14610423578063ffb1e2101461043a5761011f565b8063a34343c9146102e3578063a9e10bf21461030e578063aae0857314610325578063b48329c114610362578063c354cef31461039f5761011f565b80632b66d72e116100e75780632b66d72e146101e557806331e838dd146102015780634206a43d1461023e57806356d88e271461027b578063977a767c146102a65761011f565b806309f8c2e5146101245780631ab5d2601461014f5780631b9265b814610166578063209ba4841461017d57806327e235e3146101a8575b600080fd5b34801561013057600080fd5b50610139610465565b6040516101469190610e58565b60405180910390f35b34801561015b57600080fd5b5061016461047b565b005b34801561017257600080fd5b5061017b6104a7565b005b34801561018957600080fd5b506101926104d3565b60405161019f9190610f03565b60405180910390f35b3480156101b457600080fd5b506101cf60048036038101906101ca9190610f97565b610561565b6040516101dc9190610e58565b60405180910390f35b6101ff60048036038101906101fa91906110f9565b61057f565b005b34801561020d57600080fd5b506102286004803603810190610223919061116e565b610726565b6040516102359190610e58565b60405180910390f35b34801561024a57600080fd5b50610265600480360381019061026091906111ae565b610754565b6040516102729190610e58565b60405180910390f35b34801561028757600080fd5b5061029061076f565b60405161029d9190610e58565b60405180910390f35b3480156102b257600080fd5b506102cd60048036038101906102c891906111db565b610775565b6040516102da91906112f1565b60405180910390f35b3480156102ef57600080fd5b506102f86108df565b60405161030591906113c2565b60405180910390f35b34801561031a57600080fd5b5061032361097a565b005b34801561033157600080fd5b5061034c600480360381019061034791906111ae565b6109a6565b6040516103599190610e58565b60405180910390f35b34801561036e57600080fd5b50610389600480360381019061038491906111ae565b6109ca565b6040516103969190610e58565b60405180910390f35b3480156103ab57600080fd5b506103b46109e5565b005b3480156103c257600080fd5b506103cb610a3b565b6040516103d891906113fd565b60405180910390f35b3480156103ed57600080fd5b506103f6610a41565b005b34801561040457600080fd5b5061040d610acd565b60405161041a919061148f565b60405180910390f35b34801561042f57600080fd5b50610438610ade565b005b34801561044657600080fd5b5061044f610c79565b60405161045c9190610f03565b60405180910390f35b600060308054610474906114d9565b9050905090565b60026000806101000a81548160ff021916908360038111156104a05761049f611418565b5b0217905550565b60016000806101000a81548160ff021916908360038111156104cc576104cb611418565b5b0217905550565b603180546104e0906114d9565b80601f016020809104026020016040519081016040528092919081815260200182805461050c906114d9565b80156105595780601f1061052e57610100808354040283529160200191610559565b820191906000526020600020905b81548152906001019060200180831161053c57829003601f168201915b505050505081565b60326020528060005260406000206000915090508060000154905081565b6000603260003373ffffffffffffffffffffffffffffffffffffffff1673ffffffffffffffffffffffffffffffffffffffff168152602001908152602001600020600001549050603260003373ffffffffffffffffffffffffffffffffffffffff1673ffffffffffffffffffffffffffffffffffffffff168152602001908152602001600020600001600081548092919061061990611539565b9190505550600060405180608001604052803481526020014281526020013373ffffffffffffffffffffffffffffffffffffffff16815260200184815250905080603260003373ffffffffffffffffffffffffffffffffffffffff1673ffffffffffffffffffffffffffffffffffffffff1681526020019081526020016000206001016000848152602001908152602001600020600082015181600001556020820151816001015560408201518160020160006101000a81548173ffffffffffffffffffffffffffffffffffffffff021916908373ffffffffffffffffffffffffffffffffffffffff160217905550606082015181600301908161071d919061172d565b50905050505050565b600f826006811061073657600080fd5b60050201816005811061074857600080fd5b01600091509150505481565b6001816007811061076457600080fd5b016000915090505481565b602e5481565b61077d610d07565b603260008473ffffffffffffffffffffffffffffffffffffffff1673ffffffffffffffffffffffffffffffffffffffff168152602001908152602001600020600101600083815260200190815260200160002060405180608001604052908160008201548152602001600182015481526020016002820160009054906101000a900473ffffffffffffffffffffffffffffffffffffffff1673ffffffffffffffffffffffffffffffffffffffff1673ffffffffffffffffffffffffffffffffffffffff168152602001600382018054610855906114d9565b80601f0160208091040260200160405190810160405280929190818152602001828054610881906114d9565b80156108ce5780601f106108a3576101008083540402835291602001916108ce565b820191906000526020600020905b8154815290600101906020018083116108b157829003601f168201915b505050505081525050905092915050565b60606000600a67ffffffffffffffff8111156108fe576108fd610fce565b5b60405190808252806020026020018201604052801561092c5781602001602082028036833780820191505090505b509050600181600081518110610945576109446117ff565b5b602002602001018181525050600181600281518110610967576109666117ff565b5b6020026020010181815250508091505090565b60036000806101000a81548160ff0219169083600381111561099f5761099e611418565b5b0217905550565b602d81815481106109b657600080fd5b906000526020600020016000915090505481565b600881600781106109da57600080fd5b016000915090505481565b600a60016000600781106109fc576109fb6117ff565b5b0181905550606460018060078110610a1757610a166117ff565b5b018190555061012c6001600360078110610a3457610a336117ff565b5b0181905550565b602f5481565b602d60039080600181540180825580915050600190039060005260206000200160009091909190915055602d60049080600181540180825580915050600190039060005260206000200160009091909190915055602d60059080600181540180825580915050600190039060005260206000200160009091909190915055602d80549050602e81905550565b60008054906101000a900460ff1681565b6040518060c001604052806040518060a00160405280600b60ff168152602001600f60ff168152602001601260ff168152602001601460ff168152602001601960ff1681525081526020016040518060a00160405280601560ff168152602001601960ff168152602001601c60ff168152602001601e60ff168152602001602360ff1681525081526020016040518060a00160405280606f60ff168152602001607360ff168152602001607660ff168152602001607860ff168152602001607d60ff1681525081526020016040518060a0016040528060d360ff16815260200160d760ff16815260200160da60ff16815260200160dc60ff16815260200160e160ff1681525081526020016040518060a0016040528060d360ff16815260200160fb60ff16815260200160fa60ff16815260200160ff8016815260200160fc60ff1681525081526020016040518060a00160405280603760ff168152602001606460ff16815260200160e960ff168152602001608560ff16815260200160cd60ff16815250815250600f906006610c76929190610d45565b50565b60308054610c86906114d9565b80601f0160208091040260200160405190810160405280929190818152602001828054610cb2906114d9565b8015610cff5780601f10610cd457610100808354040283529160200191610cff565b820191906000526020600020905b815481529060010190602001808311610ce257829003601f168201915b505050505081565b60405180608001604052806000815260200160008152602001600073ffffffffffffffffffffffffffffffffffffffff168152602001606081525090565b8260066005028101928215610d85579160200282015b82811115610d8457825182906005610d74929190610d96565b5091602001919060050190610d5b565b5b509050610d929190610ddb565b5090565b8260058101928215610dca579160200282015b82811115610dc9578251829060ff16905591602001919060010190610da9565b5b509050610dd79190610dff565b5090565b5b80821115610dfb5760008181610df29190610e1c565b50600501610ddc565b5090565b5b80821115610e18576000816000905550600101610e00565b5090565b506000815560010160008155600101600081556001016000815560010160009055565b6000819050919050565b610e5281610e3f565b82525050565b6000602082019050610e6d6000830184610e49565b92915050565b600081519050919050565b600082825260208201905092915050565b60005b83811015610ead578082015181840152602081019050610e92565b60008484015250505050565b6000601f19601f8301169050919050565b6000610ed582610e73565b610edf8185610e7e565b9350610eef818560208601610e8f565b610ef881610eb9565b840191505092915050565b60006020820190508181036000830152610f1d8184610eca565b905092915050565b6000604051905090565b600080fd5b600080fd5b600073ffffffffffffffffffffffffffffffffffffffff82169050919050565b6000610f6482610f39565b9050919050565b610f7481610f59565b8114610f7f57600080fd5b50565b600081359050610f9181610f6b565b92915050565b600060208284031215610fad57610fac610f2f565b5b6000610fbb84828501610f82565b91505092915050565b600080fd5b600080fd5b7f4e487b7100000000000000000000000000000000000000000000000000000000600052604160045260246000fd5b61100682610eb9565b810181811067ffffffffffffffff8211171561102557611024610fce565b5b80604052505050565b6000611038610f25565b90506110448282610ffd565b919050565b600067ffffffffffffffff82111561106457611063610fce565b5b61106d82610eb9565b9050602081019050919050565b82818337600083830152505050565b600061109c61109784611049565b61102e565b9050828152602081018484840111156110b8576110b7610fc9565b5b6110c384828561107a565b509392505050565b600082601f8301126110e0576110df610fc4565b5b81356110f0848260208601611089565b91505092915050565b60006020828403121561110f5761110e610f2f565b5b600082013567ffffffffffffffff81111561112d5761112c610f34565b5b611139848285016110cb565b91505092915050565b61114b81610e3f565b811461115657600080fd5b50565b60008135905061116881611142565b92915050565b6000806040838503121561118557611184610f2f565b5b600061119385828601611159565b92505060206111a485828601611159565b9150509250929050565b6000602082840312156111c4576111c3610f2f565b5b60006111d284828501611159565b91505092915050565b600080604083850312156111f2576111f1610f2f565b5b600061120085828601610f82565b925050602061121185828601611159565b9150509250929050565b61122481610e3f565b82525050565b61123381610f59565b82525050565b600081519050919050565b600082825260208201905092915050565b600061126082611239565b61126a8185611244565b935061127a818560208601610e8f565b61128381610eb9565b840191505092915050565b60006080830160008301516112a6600086018261121b565b5060208301516112b9602086018261121b565b5060408301516112cc604086018261122a565b50606083015184820360608601526112e48282611255565b9150508091505092915050565b6000602082019050818103600083015261130b818461128e565b905092915050565b600081519050919050565b600082825260208201905092915050565b6000819050602082019050919050565b600061134b838361121b565b60208301905092915050565b6000602082019050919050565b600061136f82611313565b611379818561131e565b93506113848361132f565b8060005b838110156113b557815161139c888261133f565b97506113a783611357565b925050600181019050611388565b5085935050505092915050565b600060208201905081810360008301526113dc8184611364565b905092915050565b6000819050919050565b6113f7816113e4565b82525050565b600060208201905061141260008301846113ee565b92915050565b7f4e487b7100000000000000000000000000000000000000000000000000000000600052602160045260246000fd5b6004811061145857611457611418565b5b50565b600081905061146982611447565b919050565b60006114798261145b565b9050919050565b6114898161146e565b82525050565b60006020820190506114a46000830184611480565b92915050565b7f4e487b7100000000000000000000000000000000000000000000000000000000600052602260045260246000fd5b600060028204905060018216806114f157607f821691505b602082108103611504576115036114aa565b5b50919050565b7f4e487b7100000000000000000000000000000000000000000000000000000000600052601160045260246000fd5b600061154482610e3f565b91507fffffffffffffffffffffffffffffffffffffffffffffffffffffffffffffffff82036115765761157561150a565b5b600182019050919050565b60008190508160005260206000209050919050565b60006020601f8301049050919050565b600082821b905092915050565b6000600883026115e37fffffffffffffffffffffffffffffffffffffffffffffffffffffffffffffffff826115a6565b6115ed86836115a6565b95508019841693508086168417925050509392505050565b6000819050919050565b600061162a61162561162084610e3f565b611605565b610e3f565b9050919050565b6000819050919050565b6116448361160f565b61165861165082611631565b8484546115b3565b825550505050565b600090565b61166d611660565b61167881848461163b565b505050565b5b8181101561169c57611691600082611665565b60018101905061167e565b5050565b601f8211156116e1576116b281611581565b6116bb84611596565b810160208510156116ca578190505b6116de6116d685611596565b83018261167d565b50505b505050565b600082821c905092915050565b6000611704600019846008026116e6565b1980831691505092915050565b600061171d83836116f3565b9150826002028217905092915050565b61173682611239565b67ffffffffffffffff81111561174f5761174e610fce565b5b61175982546114d9565b6117648282856116a0565b600060209050601f8311600181146117975760008415611785578287015190505b61178f8582611711565b8655506117f7565b601f1984166117a586611581565b60005b828110156117cd578489015182556001820191506020850194506020810190506117a8565b868310156117ea57848901516117e6601f8916826116f3565b8355505b6001600288020188555050505b505050505050565b7f4e487b7100000000000000000000000000000000000000000000000000000000600052603260045260246000fdfea264697066735822122097750d7d64ca1ed16ec27ccafe5d384553216cb3158280fd4c0bce6ca648420764736f6c63430008110033",
					"opcodes": "PUSH1 0x80 PUSH1 0x40 MSTORE PUSH1 0x40 MLOAD DUP1 PUSH1 0x80 ADD PUSH1 0x40 MSTORE DUP1 PUSH1 0x1 PUSH1 0xFF AND DUP2 MSTORE PUSH1 0x20 ADD PUSH1 0x2 PUSH1 0xFF AND DUP2 MSTORE PUSH1 0x20 ADD PUSH1 0x3 PUSH1 0xFF AND DUP2 MSTORE PUSH1 0x20 ADD PUSH1 0x7 PUSH1 0xFF AND DUP2 MSTORE POP PUSH1 0x8 SWAP1 PUSH1 0x4 PUSH3 0x47 SWAP3 SWAP2 SWAP1 PUSH3 0x10E JUMP JUMPDEST POP PUSH32 0x7465737420686572650000000000000000000000000000000000000000000000 PUSH1 0x2F SSTORE PUSH1 0x40 MLOAD DUP1 PUSH1 0x40 ADD PUSH1 0x40 MSTORE DUP1 PUSH1 0x9 DUP2 MSTORE PUSH1 0x20 ADD PUSH32 0x7465737420686572650000000000000000000000000000000000000000000000 DUP2 MSTORE POP PUSH1 0x30 SWAP1 DUP2 PUSH3 0xB2 SWAP2 SWAP1 PUSH3 0x3F1 JUMP JUMPDEST POP PUSH1 0x40 MLOAD DUP1 PUSH1 0x40 ADD PUSH1 0x40 MSTORE DUP1 PUSH1 0x14 DUP2 MSTORE PUSH1 0x20 ADD PUSH32 0xD0BFD180D0B8D0B2D0B5D18220D0BCD0B8D18021000000000000000000000000 DUP2 MSTORE POP PUSH1 0x31 SWAP1 DUP2 PUSH3 0xF9 SWAP2 SWAP1 PUSH3 0x3F1 JUMP JUMPDEST POP CALLVALUE DUP1 ISZERO PUSH3 0x107 JUMPI PUSH1 0x0 DUP1 REVERT JUMPDEST POP PUSH3 0x4D8 JUMP JUMPDEST DUP3 PUSH1 0x7 DUP2 ADD SWAP3 DUP3 ISZERO PUSH3 0x145 JUMPI SWAP2 PUSH1 0x20 MUL DUP3 ADD JUMPDEST DUP3 DUP2 GT ISZERO PUSH3 0x144 JUMPI DUP3 MLOAD DUP3 SWAP1 PUSH1 0xFF AND SWAP1 SSTORE SWAP2 PUSH1 0x20 ADD SWAP2 SWAP1 PUSH1 0x1 ADD SWAP1 PUSH3 0x122 JUMP JUMPDEST JUMPDEST POP SWAP1 POP PUSH3 0x154 SWAP2 SWAP1 PUSH3 0x158 JUMP JUMPDEST POP SWAP1 JUMP JUMPDEST JUMPDEST DUP1 DUP3 GT ISZERO PUSH3 0x173 JUMPI PUSH1 0x0 DUP2 PUSH1 0x0 SWAP1 SSTORE POP PUSH1 0x1 ADD PUSH3 0x159 JUMP JUMPDEST POP SWAP1 JUMP JUMPDEST PUSH1 0x0 DUP2 MLOAD SWAP1 POP SWAP2 SWAP1 POP JUMP JUMPDEST PUSH32 0x4E487B7100000000000000000000000000000000000000000000000000000000 PUSH1 0x0 MSTORE PUSH1 0x41 PUSH1 0x4 MSTORE PUSH1 0x24 PUSH1 0x0 REVERT JUMPDEST PUSH32 0x4E487B7100000000000000000000000000000000000000000000000000000000 PUSH1 0x0 MSTORE PUSH1 0x22 PUSH1 0x4 MSTORE PUSH1 0x24 PUSH1 0x0 REVERT JUMPDEST PUSH1 0x0 PUSH1 0x2 DUP3 DIV SWAP1 POP PUSH1 0x1 DUP3 AND DUP1 PUSH3 0x1F9 JUMPI PUSH1 0x7F DUP3 AND SWAP2 POP JUMPDEST PUSH1 0x20 DUP3 LT DUP2 SUB PUSH3 0x20F JUMPI PUSH3 0x20E PUSH3 0x1B1 JUMP JUMPDEST JUMPDEST POP SWAP2 SWAP1 POP JUMP JUMPDEST PUSH1 0x0 DUP2 SWAP1 POP DUP2 PUSH1 0x0 MSTORE PUSH1 0x20 PUSH1 0x0 KECCAK256 SWAP1 POP SWAP2 SWAP1 POP JUMP JUMPDEST PUSH1 0x0 PUSH1 0x20 PUSH1 0x1F DUP4 ADD DIV SWAP1 POP SWAP2 SWAP1 POP JUMP JUMPDEST PUSH1 0x0 DUP3 DUP3 SHL SWAP1 POP SWAP3 SWAP2 POP POP JUMP JUMPDEST PUSH1 0x0 PUSH1 0x8 DUP4 MUL PUSH3 0x279 PUSH32 0xFFFFFFFFFFFFFFFFFFFFFFFFFFFFFFFFFFFFFFFFFFFFFFFFFFFFFFFFFFFFFFFF DUP3 PUSH3 0x23A JUMP JUMPDEST PUSH3 0x285 DUP7 DUP4 PUSH3 0x23A JUMP JUMPDEST SWAP6 POP DUP1 NOT DUP5 AND SWAP4 POP DUP1 DUP7 AND DUP5 OR SWAP3 POP POP POP SWAP4 SWAP3 POP POP POP JUMP JUMPDEST PUSH1 0x0 DUP2 SWAP1 POP SWAP2 SWAP1 POP JUMP JUMPDEST PUSH1 0x0 DUP2 SWAP1 POP SWAP2 SWAP1 POP JUMP JUMPDEST PUSH1 0x0 PUSH3 0x2D2 PUSH3 0x2CC PUSH3 0x2C6 DUP5 PUSH3 0x29D JUMP JUMPDEST PUSH3 0x2A7 JUMP JUMPDEST PUSH3 0x29D JUMP JUMPDEST SWAP1 POP SWAP2 SWAP1 POP JUMP JUMPDEST PUSH1 0x0 DUP2 SWAP1 POP SWAP2 SWAP1 POP JUMP JUMPDEST PUSH3 0x2EE DUP4 PUSH3 0x2B1 JUMP JUMPDEST PUSH3 0x306 PUSH3 0x2FD DUP3 PUSH3 0x2D9 JUMP JUMPDEST DUP5 DUP5 SLOAD PUSH3 0x247 JUMP JUMPDEST DUP3 SSTORE POP POP POP POP JUMP JUMPDEST PUSH1 0x0 SWAP1 JUMP JUMPDEST PUSH3 0x31D PUSH3 0x30E JUMP JUMPDEST PUSH3 0x32A DUP2 DUP5 DUP5 PUSH3 0x2E3 JUMP JUMPDEST POP POP POP JUMP JUMPDEST JUMPDEST DUP2 DUP2 LT ISZERO PUSH3 0x352 JUMPI PUSH3 0x346 PUSH1 0x0 DUP3 PUSH3 0x313 JUMP JUMPDEST PUSH1 0x1 DUP2 ADD SWAP1 POP PUSH3 0x330 JUMP JUMPDEST POP POP JUMP JUMPDEST PUSH1 0x1F DUP3 GT ISZERO PUSH3 0x3A1 JUMPI PUSH3 0x36B DUP2 PUSH3 0x215 JUMP JUMPDEST PUSH3 0x376 DUP5 PUSH3 0x22A JUMP JUMPDEST DUP2 ADD PUSH1 0x20 DUP6 LT ISZERO PUSH3 0x386 JUMPI DUP2 SWAP1 POP JUMPDEST PUSH3 0x39E PUSH3 0x395 DUP6 PUSH3 0x22A JUMP JUMPDEST DUP4 ADD DUP3 PUSH3 0x32F JUMP JUMPDEST POP POP JUMPDEST POP POP POP JUMP JUMPDEST PUSH1 0x0 DUP3 DUP3 SHR SWAP1 POP SWAP3 SWAP2 POP POP JUMP JUMPDEST PUSH1 0x0 PUSH3 0x3C6 PUSH1 0x0 NOT DUP5 PUSH1 0x8 MUL PUSH3 0x3A6 JUMP JUMPDEST NOT DUP1 DUP4 AND SWAP2 POP POP SWAP3 SWAP2 POP POP JUMP JUMPDEST PUSH1 0x0 PUSH3 0x3E1 DUP4 DUP4 PUSH3 0x3B3 JUMP JUMPDEST SWAP2 POP DUP3 PUSH1 0x2 MUL DUP3 OR SWAP1 POP SWAP3 SWAP2 POP POP JUMP JUMPDEST PUSH3 0x3FC DUP3 PUSH3 0x177 JUMP JUMPDEST PUSH8 0xFFFFFFFFFFFFFFFF DUP2 GT ISZERO PUSH3 0x418 JUMPI PUSH3 0x417 PUSH3 0x182 JUMP JUMPDEST JUMPDEST PUSH3 0x424 DUP3 SLOAD PUSH3 0x1E0 JUMP JUMPDEST PUSH3 0x431 DUP3 DUP3 DUP6 PUSH3 0x356 JUMP JUMPDEST PUSH1 0x0 PUSH1 0x20 SWAP1 POP PUSH1 0x1F DUP4 GT PUSH1 0x1 DUP2 EQ PUSH3 0x469 JUMPI PUSH1 0x0 DUP5 ISZERO PUSH3 0x454 JUMPI DUP3 DUP8 ADD MLOAD SWAP1 POP JUMPDEST PUSH3 0x460 DUP6 DUP3 PUSH3 0x3D3 JUMP JUMPDEST DUP7 SSTORE POP PUSH3 0x4D0 JUMP JUMPDEST PUSH1 0x1F NOT DUP5 AND PUSH3 0x479 DUP7 PUSH3 0x215 JUMP JUMPDEST PUSH1 0x0 JUMPDEST DUP3 DUP2 LT ISZERO PUSH3 0x4A3 JUMPI DUP5 DUP10 ADD MLOAD DUP3 SSTORE PUSH1 0x1 DUP3 ADD SWAP2 POP PUSH1 0x20 DUP6 ADD SWAP5 POP PUSH1 0x20 DUP2 ADD SWAP1 POP PUSH3 0x47C JUMP JUMPDEST DUP7 DUP4 LT ISZERO PUSH3 0x4C3 JUMPI DUP5 DUP10 ADD MLOAD PUSH3 0x4BF PUSH1 0x1F DUP10 AND DUP3 PUSH3 0x3B3 JUMP JUMPDEST DUP4 SSTORE POP JUMPDEST PUSH1 0x1 PUSH1 0x2 DUP9 MUL ADD DUP9 SSTORE POP POP POP JUMPDEST POP POP POP POP POP POP JUMP JUMPDEST PUSH2 0x1864 DUP1 PUSH3 0x4E8 PUSH1 0x0 CODECOPY PUSH1 0x0 RETURN INVALID PUSH1 0x80 PUSH1 0x40 MSTORE PUSH1 0x4 CALLDATASIZE LT PUSH2 0x11F JUMPI PUSH1 0x0 CALLDATALOAD PUSH1 0xE0 SHR DUP1 PUSH4 0xA34343C9 GT PUSH2 0xA0 JUMPI DUP1 PUSH4 0xC6B91540 GT PUSH2 0x64 JUMPI DUP1 PUSH4 0xC6B91540 EQ PUSH2 0x3B6 JUMPI DUP1 PUSH4 0xD9D7D170 EQ PUSH2 0x3E1 JUMPI DUP1 PUSH4 0xEF8A9235 EQ PUSH2 0x3F8 JUMPI DUP1 PUSH4 0xF81E919F EQ PUSH2 0x423 JUMPI DUP1 PUSH4 0xFFB1E210 EQ PUSH2 0x43A JUMPI PUSH2 0x11F JUMP JUMPDEST DUP1 PUSH4 0xA34343C9 EQ PUSH2 0x2E3 JUMPI DUP1 PUSH4 0xA9E10BF2 EQ PUSH2 0x30E JUMPI DUP1 PUSH4 0xAAE08573 EQ PUSH2 0x325 JUMPI DUP1 PUSH4 0xB48329C1 EQ PUSH2 0x362 JUMPI DUP1 PUSH4 0xC354CEF3 EQ PUSH2 0x39F JUMPI PUSH2 0x11F JUMP JUMPDEST DUP1 PUSH4 0x2B66D72E GT PUSH2 0xE7 JUMPI DUP1 PUSH4 0x2B66D72E EQ PUSH2 0x1E5 JUMPI DUP1 PUSH4 0x31E838DD EQ PUSH2 0x201 JUMPI DUP1 PUSH4 0x4206A43D EQ PUSH2 0x23E JUMPI DUP1 PUSH4 0x56D88E27 EQ PUSH2 0x27B JUMPI DUP1 PUSH4 0x977A767C EQ PUSH2 0x2A6 JUMPI PUSH2 0x11F JUMP JUMPDEST DUP1 PUSH4 0x9F8C2E5 EQ PUSH2 0x124 JUMPI DUP1 PUSH4 0x1AB5D260 EQ PUSH2 0x14F JUMPI DUP1 PUSH4 0x1B9265B8 EQ PUSH2 0x166 JUMPI DUP1 PUSH4 0x209BA484 EQ PUSH2 0x17D JUMPI DUP1 PUSH4 0x27E235E3 EQ PUSH2 0x1A8 JUMPI JUMPDEST PUSH1 0x0 DUP1 REVERT JUMPDEST CALLVALUE DUP1 ISZERO PUSH2 0x130 JUMPI PUSH1 0x0 DUP1 REVERT JUMPDEST POP PUSH2 0x139 PUSH2 0x465 JUMP JUMPDEST PUSH1 0x40 MLOAD PUSH2 0x146 SWAP2 SWAP1 PUSH2 0xE58 JUMP JUMPDEST PUSH1 0x40 MLOAD DUP1 SWAP2 SUB SWAP1 RETURN JUMPDEST CALLVALUE DUP1 ISZERO PUSH2 0x15B JUMPI PUSH1 0x0 DUP1 REVERT JUMPDEST POP PUSH2 0x164 PUSH2 0x47B JUMP JUMPDEST STOP JUMPDEST CALLVALUE DUP1 ISZERO PUSH2 0x172 JUMPI PUSH1 0x0 DUP1 REVERT JUMPDEST POP PUSH2 0x17B PUSH2 0x4A7 JUMP JUMPDEST STOP JUMPDEST CALLVALUE DUP1 ISZERO PUSH2 0x189 JUMPI PUSH1 0x0 DUP1 REVERT JUMPDEST POP PUSH2 0x192 PUSH2 0x4D3 JUMP JUMPDEST PUSH1 0x40 MLOAD PUSH2 0x19F SWAP2 SWAP1 PUSH2 0xF03 JUMP JUMPDEST PUSH1 0x40 MLOAD DUP1 SWAP2 SUB SWAP1 RETURN JUMPDEST CALLVALUE DUP1 ISZERO PUSH2 0x1B4 JUMPI PUSH1 0x0 DUP1 REVERT JUMPDEST POP PUSH2 0x1CF PUSH1 0x4 DUP1 CALLDATASIZE SUB DUP2 ADD SWAP1 PUSH2 0x1CA SWAP2 SWAP1 PUSH2 0xF97 JUMP JUMPDEST PUSH2 0x561 JUMP JUMPDEST PUSH1 0x40 MLOAD PUSH2 0x1DC SWAP2 SWAP1 PUSH2 0xE58 JUMP JUMPDEST PUSH1 0x40 MLOAD DUP1 SWAP2 SUB SWAP1 RETURN JUMPDEST PUSH2 0x1FF PUSH1 0x4 DUP1 CALLDATASIZE SUB DUP2 ADD SWAP1 PUSH2 0x1FA SWAP2 SWAP1 PUSH2 0x10F9 JUMP JUMPDEST PUSH2 0x57F JUMP JUMPDEST STOP JUMPDEST CALLVALUE DUP1 ISZERO PUSH2 0x20D JUMPI PUSH1 0x0 DUP1 REVERT JUMPDEST POP PUSH2 0x228 PUSH1 0x4 DUP1 CALLDATASIZE SUB DUP2 ADD SWAP1 PUSH2 0x223 SWAP2 SWAP1 PUSH2 0x116E JUMP JUMPDEST PUSH2 0x726 JUMP JUMPDEST PUSH1 0x40 MLOAD PUSH2 0x235 SWAP2 SWAP1 PUSH2 0xE58 JUMP JUMPDEST PUSH1 0x40 MLOAD DUP1 SWAP2 SUB SWAP1 RETURN JUMPDEST CALLVALUE DUP1 ISZERO PUSH2 0x24A JUMPI PUSH1 0x0 DUP1 REVERT JUMPDEST POP PUSH2 0x265 PUSH1 0x4 DUP1 CALLDATASIZE SUB DUP2 ADD SWAP1 PUSH2 0x260 SWAP2 SWAP1 PUSH2 0x11AE JUMP JUMPDEST PUSH2 0x754 JUMP JUMPDEST PUSH1 0x40 MLOAD PUSH2 0x272 SWAP2 SWAP1 PUSH2 0xE58 JUMP JUMPDEST PUSH1 0x40 MLOAD DUP1 SWAP2 SUB SWAP1 RETURN JUMPDEST CALLVALUE DUP1 ISZERO PUSH2 0x287 JUMPI PUSH1 0x0 DUP1 REVERT JUMPDEST POP PUSH2 0x290 PUSH2 0x76F JUMP JUMPDEST PUSH1 0x40 MLOAD PUSH2 0x29D SWAP2 SWAP1 PUSH2 0xE58 JUMP JUMPDEST PUSH1 0x40 MLOAD DUP1 SWAP2 SUB SWAP1 RETURN JUMPDEST CALLVALUE DUP1 ISZERO PUSH2 0x2B2 JUMPI PUSH1 0x0 DUP1 REVERT JUMPDEST POP PUSH2 0x2CD PUSH1 0x4 DUP1 CALLDATASIZE SUB DUP2 ADD SWAP1 PUSH2 0x2C8 SWAP2 SWAP1 PUSH2 0x11DB JUMP JUMPDEST PUSH2 0x775 JUMP JUMPDEST PUSH1 0x40 MLOAD PUSH2 0x2DA SWAP2 SWAP1 PUSH2 0x12F1 JUMP JUMPDEST PUSH1 0x40 MLOAD DUP1 SWAP2 SUB SWAP1 RETURN JUMPDEST CALLVALUE DUP1 ISZERO PUSH2 0x2EF JUMPI PUSH1 0x0 DUP1 REVERT JUMPDEST POP PUSH2 0x2F8 PUSH2 0x8DF JUMP JUMPDEST PUSH1 0x40 MLOAD PUSH2 0x305 SWAP2 SWAP1 PUSH2 0x13C2 JUMP JUMPDEST PUSH1 0x40 MLOAD DUP1 SWAP2 SUB SWAP1 RETURN JUMPDEST CALLVALUE DUP1 ISZERO PUSH2 0x31A JUMPI PUSH1 0x0 DUP1 REVERT JUMPDEST POP PUSH2 0x323 PUSH2 0x97A JUMP JUMPDEST STOP JUMPDEST CALLVALUE DUP1 ISZERO PUSH2 0x331 JUMPI PUSH1 0x0 DUP1 REVERT JUMPDEST POP PUSH2 0x34C PUSH1 0x4 DUP1 CALLDATASIZE SUB DUP2 ADD SWAP1 PUSH2 0x347 SWAP2 SWAP1 PUSH2 0x11AE JUMP JUMPDEST PUSH2 0x9A6 JUMP JUMPDEST PUSH1 0x40 MLOAD PUSH2 0x359 SWAP2 SWAP1 PUSH2 0xE58 JUMP JUMPDEST PUSH1 0x40 MLOAD DUP1 SWAP2 SUB SWAP1 RETURN JUMPDEST CALLVALUE DUP1 ISZERO PUSH2 0x36E JUMPI PUSH1 0x0 DUP1 REVERT JUMPDEST POP PUSH2 0x389 PUSH1 0x4 DUP1 CALLDATASIZE SUB DUP2 ADD SWAP1 PUSH2 0x384 SWAP2 SWAP1 PUSH2 0x11AE JUMP JUMPDEST PUSH2 0x9CA JUMP JUMPDEST PUSH1 0x40 MLOAD PUSH2 0x396 SWAP2 SWAP1 PUSH2 0xE58 JUMP JUMPDEST PUSH1 0x40 MLOAD DUP1 SWAP2 SUB SWAP1 RETURN JUMPDEST CALLVALUE DUP1 ISZERO PUSH2 0x3AB JUMPI PUSH1 0x0 DUP1 REVERT JUMPDEST POP PUSH2 0x3B4 PUSH2 0x9E5 JUMP JUMPDEST STOP JUMPDEST CALLVALUE DUP1 ISZERO PUSH2 0x3C2 JUMPI PUSH1 0x0 DUP1 REVERT JUMPDEST POP PUSH2 0x3CB PUSH2 0xA3B JUMP JUMPDEST PUSH1 0x40 MLOAD PUSH2 0x3D8 SWAP2 SWAP1 PUSH2 0x13FD JUMP JUMPDEST PUSH1 0x40 MLOAD DUP1 SWAP2 SUB SWAP1 RETURN JUMPDEST CALLVALUE DUP1 ISZERO PUSH2 0x3ED JUMPI PUSH1 0x0 DUP1 REVERT JUMPDEST POP PUSH2 0x3F6 PUSH2 0xA41 JUMP JUMPDEST STOP JUMPDEST CALLVALUE DUP1 ISZERO PUSH2 0x404 JUMPI PUSH1 0x0 DUP1 REVERT JUMPDEST POP PUSH2 0x40D PUSH2 0xACD JUMP JUMPDEST PUSH1 0x40 MLOAD PUSH2 0x41A SWAP2 SWAP1 PUSH2 0x148F JUMP JUMPDEST PUSH1 0x40 MLOAD DUP1 SWAP2 SUB SWAP1 RETURN JUMPDEST CALLVALUE DUP1 ISZERO PUSH2 0x42F JUMPI PUSH1 0x0 DUP1 REVERT JUMPDEST POP PUSH2 0x438 PUSH2 0xADE JUMP JUMPDEST STOP JUMPDEST CALLVALUE DUP1 ISZERO PUSH2 0x446 JUMPI PUSH1 0x0 DUP1 REVERT JUMPDEST POP PUSH2 0x44F PUSH2 0xC79 JUMP JUMPDEST PUSH1 0x40 MLOAD PUSH2 0x45C SWAP2 SWAP1 PUSH2 0xF03 JUMP JUMPDEST PUSH1 0x40 MLOAD DUP1 SWAP2 SUB SWAP1 RETURN JUMPDEST PUSH1 0x0 PUSH1 0x30 DUP1 SLOAD PUSH2 0x474 SWAP1 PUSH2 0x14D9 JUMP JUMPDEST SWAP1 POP SWAP1 POP SWAP1 JUMP JUMPDEST PUSH1 0x2 PUSH1 0x0 DUP1 PUSH2 0x100 EXP DUP2 SLOAD DUP2 PUSH1 0xFF MUL NOT AND SWAP1 DUP4 PUSH1 0x3 DUP2 GT ISZERO PUSH2 0x4A0 JUMPI PUSH2 0x49F PUSH2 0x1418 JUMP JUMPDEST JUMPDEST MUL OR SWAP1 SSTORE POP JUMP JUMPDEST PUSH1 0x1 PUSH1 0x0 DUP1 PUSH2 0x100 EXP DUP2 SLOAD DUP2 PUSH1 0xFF MUL NOT AND SWAP1 DUP4 PUSH1 0x3 DUP2 GT ISZERO PUSH2 0x4CC JUMPI PUSH2 0x4CB PUSH2 0x1418 JUMP JUMPDEST JUMPDEST MUL OR SWAP1 SSTORE POP JUMP JUMPDEST PUSH1 0x31 DUP1 SLOAD PUSH2 0x4E0 SWAP1 PUSH2 0x14D9 JUMP JUMPDEST DUP1 PUSH1 0x1F ADD PUSH1 0x20 DUP1 SWAP2 DIV MUL PUSH1 0x20 ADD PUSH1 0x40 MLOAD SWAP1 DUP2 ADD PUSH1 0x40 MSTORE DUP1 SWAP3 SWAP2 SWAP1 DUP2 DUP2 MSTORE PUSH1 0x20 ADD DUP3 DUP1 SLOAD PUSH2 0x50C SWAP1 PUSH2 0x14D9 JUMP JUMPDEST DUP1 ISZERO PUSH2 0x559 JUMPI DUP1 PUSH1 0x1F LT PUSH2 0x52E JUMPI PUSH2 0x100 DUP1 DUP4 SLOAD DIV MUL DUP4 MSTORE SWAP2 PUSH1 0x20 ADD SWAP2 PUSH2 0x559 JUMP JUMPDEST DUP3 ADD SWAP2 SWAP1 PUSH1 0x0 MSTORE PUSH1 0x20 PUSH1 0x0 KECCAK256 SWAP1 JUMPDEST DUP2 SLOAD DUP2 MSTORE SWAP1 PUSH1 0x1 ADD SWAP1 PUSH1 0x20 ADD DUP1 DUP4 GT PUSH2 0x53C JUMPI DUP3 SWAP1 SUB PUSH1 0x1F AND DUP3 ADD SWAP2 JUMPDEST POP POP POP POP POP DUP2 JUMP JUMPDEST PUSH1 0x32 PUSH1 0x20 MSTORE DUP1 PUSH1 0x0 MSTORE PUSH1 0x40 PUSH1 0x0 KECCAK256 PUSH1 0x0 SWAP2 POP SWAP1 POP DUP1 PUSH1 0x0 ADD SLOAD SWAP1 POP DUP2 JUMP JUMPDEST PUSH1 0x0 PUSH1 0x32 PUSH1 0x0 CALLER PUSH20 0xFFFFFFFFFFFFFFFFFFFFFFFFFFFFFFFFFFFFFFFF AND PUSH20 0xFFFFFFFFFFFFFFFFFFFFFFFFFFFFFFFFFFFFFFFF AND DUP2 MSTORE PUSH1 0x20 ADD SWAP1 DUP2 MSTORE PUSH1 0x20 ADD PUSH1 0x0 KECCAK256 PUSH1 0x0 ADD SLOAD SWAP1 POP PUSH1 0x32 PUSH1 0x0 CALLER PUSH20 0xFFFFFFFFFFFFFFFFFFFFFFFFFFFFFFFFFFFFFFFF AND PUSH20 0xFFFFFFFFFFFFFFFFFFFFFFFFFFFFFFFFFFFFFFFF AND DUP2 MSTORE PUSH1 0x20 ADD SWAP1 DUP2 MSTORE PUSH1 0x20 ADD PUSH1 0x0 KECCAK256 PUSH1 0x0 ADD PUSH1 0x0 DUP2 SLOAD DUP1 SWAP3 SWAP2 SWAP1 PUSH2 0x619 SWAP1 PUSH2 0x1539 JUMP JUMPDEST SWAP2 SWAP1 POP SSTORE POP PUSH1 0x0 PUSH1 0x40 MLOAD DUP1 PUSH1 0x80 ADD PUSH1 0x40 MSTORE DUP1 CALLVALUE DUP2 MSTORE PUSH1 0x20 ADD TIMESTAMP DUP2 MSTORE PUSH1 0x20 ADD CALLER PUSH20 0xFFFFFFFFFFFFFFFFFFFFFFFFFFFFFFFFFFFFFFFF AND DUP2 MSTORE PUSH1 0x20 ADD DUP5 DUP2 MSTORE POP SWAP1 POP DUP1 PUSH1 0x32 PUSH1 0x0 CALLER PUSH20 0xFFFFFFFFFFFFFFFFFFFFFFFFFFFFFFFFFFFFFFFF AND PUSH20 0xFFFFFFFFFFFFFFFFFFFFFFFFFFFFFFFFFFFFFFFF AND DUP2 MSTORE PUSH1 0x20 ADD SWAP1 DUP2 MSTORE PUSH1 0x20 ADD PUSH1 0x0 KECCAK256 PUSH1 0x1 ADD PUSH1 0x0 DUP5 DUP2 MSTORE PUSH1 0x20 ADD SWAP1 DUP2 MSTORE PUSH1 0x20 ADD PUSH1 0x0 KECCAK256 PUSH1 0x0 DUP3 ADD MLOAD DUP2 PUSH1 0x0 ADD SSTORE PUSH1 0x20 DUP3 ADD MLOAD DUP2 PUSH1 0x1 ADD SSTORE PUSH1 0x40 DUP3 ADD MLOAD DUP2 PUSH1 0x2 ADD PUSH1 0x0 PUSH2 0x100 EXP DUP2 SLOAD DUP2 PUSH20 0xFFFFFFFFFFFFFFFFFFFFFFFFFFFFFFFFFFFFFFFF MUL NOT AND SWAP1 DUP4 PUSH20 0xFFFFFFFFFFFFFFFFFFFFFFFFFFFFFFFFFFFFFFFF AND MUL OR SWAP1 SSTORE POP PUSH1 0x60 DUP3 ADD MLOAD DUP2 PUSH1 0x3 ADD SWAP1 DUP2 PUSH2 0x71D SWAP2 SWAP1 PUSH2 0x172D JUMP JUMPDEST POP SWAP1 POP POP POP POP POP JUMP JUMPDEST PUSH1 0xF DUP3 PUSH1 0x6 DUP2 LT PUSH2 0x736 JUMPI PUSH1 0x0 DUP1 REVERT JUMPDEST PUSH1 0x5 MUL ADD DUP2 PUSH1 0x5 DUP2 LT PUSH2 0x748 JUMPI PUSH1 0x0 DUP1 REVERT JUMPDEST ADD PUSH1 0x0 SWAP2 POP SWAP2 POP POP SLOAD DUP2 JUMP JUMPDEST PUSH1 0x1 DUP2 PUSH1 0x7 DUP2 LT PUSH2 0x764 JUMPI PUSH1 0x0 DUP1 REVERT JUMPDEST ADD PUSH1 0x0 SWAP2 POP SWAP1 POP SLOAD DUP2 JUMP JUMPDEST PUSH1 0x2E SLOAD DUP2 JUMP JUMPDEST PUSH2 0x77D PUSH2 0xD07 JUMP JUMPDEST PUSH1 0x32 PUSH1 0x0 DUP5 PUSH20 0xFFFFFFFFFFFFFFFFFFFFFFFFFFFFFFFFFFFFFFFF AND PUSH20 0xFFFFFFFFFFFFFFFFFFFFFFFFFFFFFFFFFFFFFFFF AND DUP2 MSTORE PUSH1 0x20 ADD SWAP1 DUP2 MSTORE PUSH1 0x20 ADD PUSH1 0x0 KECCAK256 PUSH1 0x1 ADD PUSH1 0x0 DUP4 DUP2 MSTORE PUSH1 0x20 ADD SWAP1 DUP2 MSTORE PUSH1 0x20 ADD PUSH1 0x0 KECCAK256 PUSH1 0x40 MLOAD DUP1 PUSH1 0x80 ADD PUSH1 0x40 MSTORE SWAP1 DUP2 PUSH1 0x0 DUP3 ADD SLOAD DUP2 MSTORE PUSH1 0x20 ADD PUSH1 0x1 DUP3 ADD SLOAD DUP2 MSTORE PUSH1 0x20 ADD PUSH1 0x2 DUP3 ADD PUSH1 0x0 SWAP1 SLOAD SWAP1 PUSH2 0x100 EXP SWAP1 DIV PUSH20 0xFFFFFFFFFFFFFFFFFFFFFFFFFFFFFFFFFFFFFFFF AND PUSH20 0xFFFFFFFFFFFFFFFFFFFFFFFFFFFFFFFFFFFFFFFF AND PUSH20 0xFFFFFFFFFFFFFFFFFFFFFFFFFFFFFFFFFFFFFFFF AND DUP2 MSTORE PUSH1 0x20 ADD PUSH1 0x3 DUP3 ADD DUP1 SLOAD PUSH2 0x855 SWAP1 PUSH2 0x14D9 JUMP JUMPDEST DUP1 PUSH1 0x1F ADD PUSH1 0x20 DUP1 SWAP2 DIV MUL PUSH1 0x20 ADD PUSH1 0x40 MLOAD SWAP1 DUP2 ADD PUSH1 0x40 MSTORE DUP1 SWAP3 SWAP2 SWAP1 DUP2 DUP2 MSTORE PUSH1 0x20 ADD DUP3 DUP1 SLOAD PUSH2 0x881 SWAP1 PUSH2 0x14D9 JUMP JUMPDEST DUP1 ISZERO PUSH2 0x8CE JUMPI DUP1 PUSH1 0x1F LT PUSH2 0x8A3 JUMPI PUSH2 0x100 DUP1 DUP4 SLOAD DIV MUL DUP4 MSTORE SWAP2 PUSH1 0x20 ADD SWAP2 PUSH2 0x8CE JUMP JUMPDEST DUP3 ADD SWAP2 SWAP1 PUSH1 0x0 MSTORE PUSH1 0x20 PUSH1 0x0 KECCAK256 SWAP1 JUMPDEST DUP2 SLOAD DUP2 MSTORE SWAP1 PUSH1 0x1 ADD SWAP1 PUSH1 0x20 ADD DUP1 DUP4 GT PUSH2 0x8B1 JUMPI DUP3 SWAP1 SUB PUSH1 0x1F AND DUP3 ADD SWAP2 JUMPDEST POP POP POP POP POP DUP2 MSTORE POP POP SWAP1 POP SWAP3 SWAP2 POP POP JUMP JUMPDEST PUSH1 0x60 PUSH1 0x0 PUSH1 0xA PUSH8 0xFFFFFFFFFFFFFFFF DUP2 GT ISZERO PUSH2 0x8FE JUMPI PUSH2 0x8FD PUSH2 0xFCE JUMP JUMPDEST JUMPDEST PUSH1 0x40 MLOAD SWAP1 DUP1 DUP3 MSTORE DUP1 PUSH1 0x20 MUL PUSH1 0x20 ADD DUP3 ADD PUSH1 0x40 MSTORE DUP1 ISZERO PUSH2 0x92C JUMPI DUP2 PUSH1 0x20 ADD PUSH1 0x20 DUP3 MUL DUP1 CALLDATASIZE DUP4 CALLDATACOPY DUP1 DUP3 ADD SWAP2 POP POP SWAP1 POP JUMPDEST POP SWAP1 POP PUSH1 0x1 DUP2 PUSH1 0x0 DUP2 MLOAD DUP2 LT PUSH2 0x945 JUMPI PUSH2 0x944 PUSH2 0x17FF JUMP JUMPDEST JUMPDEST PUSH1 0x20 MUL PUSH1 0x20 ADD ADD DUP2 DUP2 MSTORE POP POP PUSH1 0x1 DUP2 PUSH1 0x2 DUP2 MLOAD DUP2 LT PUSH2 0x967 JUMPI PUSH2 0x966 PUSH2 0x17FF JUMP JUMPDEST JUMPDEST PUSH1 0x20 MUL PUSH1 0x20 ADD ADD DUP2 DUP2 MSTORE POP POP DUP1 SWAP2 POP POP SWAP1 JUMP JUMPDEST PUSH1 0x3 PUSH1 0x0 DUP1 PUSH2 0x100 EXP DUP2 SLOAD DUP2 PUSH1 0xFF MUL NOT AND SWAP1 DUP4 PUSH1 0x3 DUP2 GT ISZERO PUSH2 0x99F JUMPI PUSH2 0x99E PUSH2 0x1418 JUMP JUMPDEST JUMPDEST MUL OR SWAP1 SSTORE POP JUMP JUMPDEST PUSH1 0x2D DUP2 DUP2 SLOAD DUP2 LT PUSH2 0x9B6 JUMPI PUSH1 0x0 DUP1 REVERT JUMPDEST SWAP1 PUSH1 0x0 MSTORE PUSH1 0x20 PUSH1 0x0 KECCAK256 ADD PUSH1 0x0 SWAP2 POP SWAP1 POP SLOAD DUP2 JUMP JUMPDEST PUSH1 0x8 DUP2 PUSH1 0x7 DUP2 LT PUSH2 0x9DA JUMPI PUSH1 0x0 DUP1 REVERT JUMPDEST ADD PUSH1 0x0 SWAP2 POP SWAP1 POP SLOAD DUP2 JUMP JUMPDEST PUSH1 0xA PUSH1 0x1 PUSH1 0x0 PUSH1 0x7 DUP2 LT PUSH2 0x9FC JUMPI PUSH2 0x9FB PUSH2 0x17FF JUMP JUMPDEST JUMPDEST ADD DUP2 SWAP1 SSTORE POP PUSH1 0x64 PUSH1 0x1 DUP1 PUSH1 0x7 DUP2 LT PUSH2 0xA17 JUMPI PUSH2 0xA16 PUSH2 0x17FF JUMP JUMPDEST JUMPDEST ADD DUP2 SWAP1 SSTORE POP PUSH2 0x12C PUSH1 0x1 PUSH1 0x3 PUSH1 0x7 DUP2 LT PUSH2 0xA34 JUMPI PUSH2 0xA33 PUSH2 0x17FF JUMP JUMPDEST JUMPDEST ADD DUP2 SWAP1 SSTORE POP JUMP JUMPDEST PUSH1 0x2F SLOAD DUP2 JUMP JUMPDEST PUSH1 0x2D PUSH1 0x3 SWAP1 DUP1 PUSH1 0x1 DUP2 SLOAD ADD DUP1 DUP3 SSTORE DUP1 SWAP2 POP POP PUSH1 0x1 SWAP1 SUB SWAP1 PUSH1 0x0 MSTORE PUSH1 0x20 PUSH1 0x0 KECCAK256 ADD PUSH1 0x0 SWAP1 SWAP2 SWAP1 SWAP2 SWAP1 SWAP2 POP SSTORE PUSH1 0x2D PUSH1 0x4 SWAP1 DUP1 PUSH1 0x1 DUP2 SLOAD ADD DUP1 DUP3 SSTORE DUP1 SWAP2 POP POP PUSH1 0x1 SWAP1 SUB SWAP1 PUSH1 0x0 MSTORE PUSH1 0x20 PUSH1 0x0 KECCAK256 ADD PUSH1 0x0 SWAP1 SWAP2 SWAP1 SWAP2 SWAP1 SWAP2 POP SSTORE PUSH1 0x2D PUSH1 0x5 SWAP1 DUP1 PUSH1 0x1 DUP2 SLOAD ADD DUP1 DUP3 SSTORE DUP1 SWAP2 POP POP PUSH1 0x1 SWAP1 SUB SWAP1 PUSH1 0x0 MSTORE PUSH1 0x20 PUSH1 0x0 KECCAK256 ADD PUSH1 0x0 SWAP1 SWAP2 SWAP1 SWAP2 SWAP1 SWAP2 POP SSTORE PUSH1 0x2D DUP1 SLOAD SWAP1 POP PUSH1 0x2E DUP2 SWAP1 SSTORE POP JUMP JUMPDEST PUSH1 0x0 DUP1 SLOAD SWAP1 PUSH2 0x100 EXP SWAP1 DIV PUSH1 0xFF AND DUP2 JUMP JUMPDEST PUSH1 0x40 MLOAD DUP1 PUSH1 0xC0 ADD PUSH1 0x40 MSTORE DUP1 PUSH1 0x40 MLOAD DUP1 PUSH1 0xA0 ADD PUSH1 0x40 MSTORE DUP1 PUSH1 0xB PUSH1 0xFF AND DUP2 MSTORE PUSH1 0x20 ADD PUSH1 0xF PUSH1 0xFF AND DUP2 MSTORE PUSH1 0x20 ADD PUSH1 0x12 PUSH1 0xFF AND DUP2 MSTORE PUSH1 0x20 ADD PUSH1 0x14 PUSH1 0xFF AND DUP2 MSTORE PUSH1 0x20 ADD PUSH1 0x19 PUSH1 0xFF AND DUP2 MSTORE POP DUP2 MSTORE PUSH1 0x20 ADD PUSH1 0x40 MLOAD DUP1 PUSH1 0xA0 ADD PUSH1 0x40 MSTORE DUP1 PUSH1 0x15 PUSH1 0xFF AND DUP2 MSTORE PUSH1 0x20 ADD PUSH1 0x19 PUSH1 0xFF AND DUP2 MSTORE PUSH1 0x20 ADD PUSH1 0x1C PUSH1 0xFF AND DUP2 MSTORE PUSH1 0x20 ADD PUSH1 0x1E PUSH1 0xFF AND DUP2 MSTORE PUSH1 0x20 ADD PUSH1 0x23 PUSH1 0xFF AND DUP2 MSTORE POP DUP2 MSTORE PUSH1 0x20 ADD PUSH1 0x40 MLOAD DUP1 PUSH1 0xA0 ADD PUSH1 0x40 MSTORE DUP1 PUSH1 0x6F PUSH1 0xFF AND DUP2 MSTORE PUSH1 0x20 ADD PUSH1 0x73 PUSH1 0xFF AND DUP2 MSTORE PUSH1 0x20 ADD PUSH1 0x76 PUSH1 0xFF AND DUP2 MSTORE PUSH1 0x20 ADD PUSH1 0x78 PUSH1 0xFF AND DUP2 MSTORE PUSH1 0x20 ADD PUSH1 0x7D PUSH1 0xFF AND DUP2 MSTORE POP DUP2 MSTORE PUSH1 0x20 ADD PUSH1 0x40 MLOAD DUP1 PUSH1 0xA0 ADD PUSH1 0x40 MSTORE DUP1 PUSH1 0xD3 PUSH1 0xFF AND DUP2 MSTORE PUSH1 0x20 ADD PUSH1 0xD7 PUSH1 0xFF AND DUP2 MSTORE PUSH1 0x20 ADD PUSH1 0xDA PUSH1 0xFF AND DUP2 MSTORE PUSH1 0x20 ADD PUSH1 0xDC PUSH1 0xFF AND DUP2 MSTORE PUSH1 0x20 ADD PUSH1 0xE1 PUSH1 0xFF AND DUP2 MSTORE POP DUP2 MSTORE PUSH1 0x20 ADD PUSH1 0x40 MLOAD DUP1 PUSH1 0xA0 ADD PUSH1 0x40 MSTORE DUP1 PUSH1 0xD3 PUSH1 0xFF AND DUP2 MSTORE PUSH1 0x20 ADD PUSH1 0xFB PUSH1 0xFF AND DUP2 MSTORE PUSH1 0x20 ADD PUSH1 0xFA PUSH1 0xFF AND DUP2 MSTORE PUSH1 0x20 ADD PUSH1 0xFF DUP1 AND DUP2 MSTORE PUSH1 0x20 ADD PUSH1 0xFC PUSH1 0xFF AND DUP2 MSTORE POP DUP2 MSTORE PUSH1 0x20 ADD PUSH1 0x40 MLOAD DUP1 PUSH1 0xA0 ADD PUSH1 0x40 MSTORE DUP1 PUSH1 0x37 PUSH1 0xFF AND DUP2 MSTORE PUSH1 0x20 ADD PUSH1 0x64 PUSH1 0xFF AND DUP2 MSTORE PUSH1 0x20 ADD PUSH1 0xE9 PUSH1 0xFF AND DUP2 MSTORE PUSH1 0x20 ADD PUSH1 0x85 PUSH1 0xFF AND DUP2 MSTORE PUSH1 0x20 ADD PUSH1 0xCD PUSH1 0xFF AND DUP2 MSTORE POP DUP2 MSTORE POP PUSH1 0xF SWAP1 PUSH1 0x6 PUSH2 0xC76 SWAP3 SWAP2 SWAP1 PUSH2 0xD45 JUMP JUMPDEST POP JUMP JUMPDEST PUSH1 0x30 DUP1 SLOAD PUSH2 0xC86 SWAP1 PUSH2 0x14D9 JUMP JUMPDEST DUP1 PUSH1 0x1F ADD PUSH1 0x20 DUP1 SWAP2 DIV MUL PUSH1 0x20 ADD PUSH1 0x40 MLOAD SWAP1 DUP2 ADD PUSH1 0x40 MSTORE DUP1 SWAP3 SWAP2 SWAP1 DUP2 DUP2 MSTORE PUSH1 0x20 ADD DUP3 DUP1 SLOAD PUSH2 0xCB2 SWAP1 PUSH2 0x14D9 JUMP JUMPDEST DUP1 ISZERO PUSH2 0xCFF JUMPI DUP1 PUSH1 0x1F LT PUSH2 0xCD4 JUMPI PUSH2 0x100 DUP1 DUP4 SLOAD DIV MUL DUP4 MSTORE SWAP2 PUSH1 0x20 ADD SWAP2 PUSH2 0xCFF JUMP JUMPDEST DUP3 ADD SWAP2 SWAP1 PUSH1 0x0 MSTORE PUSH1 0x20 PUSH1 0x0 KECCAK256 SWAP1 JUMPDEST DUP2 SLOAD DUP2 MSTORE SWAP1 PUSH1 0x1 ADD SWAP1 PUSH1 0x20 ADD DUP1 DUP4 GT PUSH2 0xCE2 JUMPI DUP3 SWAP1 SUB PUSH1 0x1F AND DUP3 ADD SWAP2 JUMPDEST POP POP POP POP POP DUP2 JUMP JUMPDEST PUSH1 0x40 MLOAD DUP1 PUSH1 0x80 ADD PUSH1 0x40 MSTORE DUP1 PUSH1 0x0 DUP2 MSTORE PUSH1 0x20 ADD PUSH1 0x0 DUP2 MSTORE PUSH1 0x20 ADD PUSH1 0x0 PUSH20 0xFFFFFFFFFFFFFFFFFFFFFFFFFFFFFFFFFFFFFFFF AND DUP2 MSTORE PUSH1 0x20 ADD PUSH1 0x60 DUP2 MSTORE POP SWAP1 JUMP JUMPDEST DUP3 PUSH1 0x6 PUSH1 0x5 MUL DUP2 ADD SWAP3 DUP3 ISZERO PUSH2 0xD85 JUMPI SWAP2 PUSH1 0x20 MUL DUP3 ADD JUMPDEST DUP3 DUP2 GT ISZERO PUSH2 0xD84 JUMPI DUP3 MLOAD DUP3 SWAP1 PUSH1 0x5 PUSH2 0xD74 SWAP3 SWAP2 SWAP1 PUSH2 0xD96 JUMP JUMPDEST POP SWAP2 PUSH1 0x20 ADD SWAP2 SWAP1 PUSH1 0x5 ADD SWAP1 PUSH2 0xD5B JUMP JUMPDEST JUMPDEST POP SWAP1 POP PUSH2 0xD92 SWAP2 SWAP1 PUSH2 0xDDB JUMP JUMPDEST POP SWAP1 JUMP JUMPDEST DUP3 PUSH1 0x5 DUP2 ADD SWAP3 DUP3 ISZERO PUSH2 0xDCA JUMPI SWAP2 PUSH1 0x20 MUL DUP3 ADD JUMPDEST DUP3 DUP2 GT ISZERO PUSH2 0xDC9 JUMPI DUP3 MLOAD DUP3 SWAP1 PUSH1 0xFF AND SWAP1 SSTORE SWAP2 PUSH1 0x20 ADD SWAP2 SWAP1 PUSH1 0x1 ADD SWAP1 PUSH2 0xDA9 JUMP JUMPDEST JUMPDEST POP SWAP1 POP PUSH2 0xDD7 SWAP2 SWAP1 PUSH2 0xDFF JUMP JUMPDEST POP SWAP1 JUMP JUMPDEST JUMPDEST DUP1 DUP3 GT ISZERO PUSH2 0xDFB JUMPI PUSH1 0x0 DUP2 DUP2 PUSH2 0xDF2 SWAP2 SWAP1 PUSH2 0xE1C JUMP JUMPDEST POP PUSH1 0x5 ADD PUSH2 0xDDC JUMP JUMPDEST POP SWAP1 JUMP JUMPDEST JUMPDEST DUP1 DUP3 GT ISZERO PUSH2 0xE18 JUMPI PUSH1 0x0 DUP2 PUSH1 0x0 SWAP1 SSTORE POP PUSH1 0x1 ADD PUSH2 0xE00 JUMP JUMPDEST POP SWAP1 JUMP JUMPDEST POP PUSH1 0x0 DUP2 SSTORE PUSH1 0x1 ADD PUSH1 0x0 DUP2 SSTORE PUSH1 0x1 ADD PUSH1 0x0 DUP2 SSTORE PUSH1 0x1 ADD PUSH1 0x0 DUP2 SSTORE PUSH1 0x1 ADD PUSH1 0x0 SWAP1 SSTORE JUMP JUMPDEST PUSH1 0x0 DUP2 SWAP1 POP SWAP2 SWAP1 POP JUMP JUMPDEST PUSH2 0xE52 DUP2 PUSH2 0xE3F JUMP JUMPDEST DUP3 MSTORE POP POP JUMP JUMPDEST PUSH1 0x0 PUSH1 0x20 DUP3 ADD SWAP1 POP PUSH2 0xE6D PUSH1 0x0 DUP4 ADD DUP5 PUSH2 0xE49 JUMP JUMPDEST SWAP3 SWAP2 POP POP JUMP JUMPDEST PUSH1 0x0 DUP2 MLOAD SWAP1 POP SWAP2 SWAP1 POP JUMP JUMPDEST PUSH1 0x0 DUP3 DUP3 MSTORE PUSH1 0x20 DUP3 ADD SWAP1 POP SWAP3 SWAP2 POP POP JUMP JUMPDEST PUSH1 0x0 JUMPDEST DUP4 DUP2 LT ISZERO PUSH2 0xEAD JUMPI DUP1 DUP3 ADD MLOAD DUP2 DUP5 ADD MSTORE PUSH1 0x20 DUP2 ADD SWAP1 POP PUSH2 0xE92 JUMP JUMPDEST PUSH1 0x0 DUP5 DUP5 ADD MSTORE POP POP POP POP JUMP JUMPDEST PUSH1 0x0 PUSH1 0x1F NOT PUSH1 0x1F DUP4 ADD AND SWAP1 POP SWAP2 SWAP1 POP JUMP JUMPDEST PUSH1 0x0 PUSH2 0xED5 DUP3 PUSH2 0xE73 JUMP JUMPDEST PUSH2 0xEDF DUP2 DUP6 PUSH2 0xE7E JUMP JUMPDEST SWAP4 POP PUSH2 0xEEF DUP2 DUP6 PUSH1 0x20 DUP7 ADD PUSH2 0xE8F JUMP JUMPDEST PUSH2 0xEF8 DUP2 PUSH2 0xEB9 JUMP JUMPDEST DUP5 ADD SWAP2 POP POP SWAP3 SWAP2 POP POP JUMP JUMPDEST PUSH1 0x0 PUSH1 0x20 DUP3 ADD SWAP1 POP DUP2 DUP2 SUB PUSH1 0x0 DUP4 ADD MSTORE PUSH2 0xF1D DUP2 DUP5 PUSH2 0xECA JUMP JUMPDEST SWAP1 POP SWAP3 SWAP2 POP POP JUMP JUMPDEST PUSH1 0x0 PUSH1 0x40 MLOAD SWAP1 POP SWAP1 JUMP JUMPDEST PUSH1 0x0 DUP1 REVERT JUMPDEST PUSH1 0x0 DUP1 REVERT JUMPDEST PUSH1 0x0 PUSH20 0xFFFFFFFFFFFFFFFFFFFFFFFFFFFFFFFFFFFFFFFF DUP3 AND SWAP1 POP SWAP2 SWAP1 POP JUMP JUMPDEST PUSH1 0x0 PUSH2 0xF64 DUP3 PUSH2 0xF39 JUMP JUMPDEST SWAP1 POP SWAP2 SWAP1 POP JUMP JUMPDEST PUSH2 0xF74 DUP2 PUSH2 0xF59 JUMP JUMPDEST DUP2 EQ PUSH2 0xF7F JUMPI PUSH1 0x0 DUP1 REVERT JUMPDEST POP JUMP JUMPDEST PUSH1 0x0 DUP2 CALLDATALOAD SWAP1 POP PUSH2 0xF91 DUP2 PUSH2 0xF6B JUMP JUMPDEST SWAP3 SWAP2 POP POP JUMP JUMPDEST PUSH1 0x0 PUSH1 0x20 DUP3 DUP5 SUB SLT ISZERO PUSH2 0xFAD JUMPI PUSH2 0xFAC PUSH2 0xF2F JUMP JUMPDEST JUMPDEST PUSH1 0x0 PUSH2 0xFBB DUP5 DUP3 DUP6 ADD PUSH2 0xF82 JUMP JUMPDEST SWAP2 POP POP SWAP3 SWAP2 POP POP JUMP JUMPDEST PUSH1 0x0 DUP1 REVERT JUMPDEST PUSH1 0x0 DUP1 REVERT JUMPDEST PUSH32 0x4E487B7100000000000000000000000000000000000000000000000000000000 PUSH1 0x0 MSTORE PUSH1 0x41 PUSH1 0x4 MSTORE PUSH1 0x24 PUSH1 0x0 REVERT JUMPDEST PUSH2 0x1006 DUP3 PUSH2 0xEB9 JUMP JUMPDEST DUP2 ADD DUP2 DUP2 LT PUSH8 0xFFFFFFFFFFFFFFFF DUP3 GT OR ISZERO PUSH2 0x1025 JUMPI PUSH2 0x1024 PUSH2 0xFCE JUMP JUMPDEST JUMPDEST DUP1 PUSH1 0x40 MSTORE POP POP POP JUMP JUMPDEST PUSH1 0x0 PUSH2 0x1038 PUSH2 0xF25 JUMP JUMPDEST SWAP1 POP PUSH2 0x1044 DUP3 DUP3 PUSH2 0xFFD JUMP JUMPDEST SWAP2 SWAP1 POP JUMP JUMPDEST PUSH1 0x0 PUSH8 0xFFFFFFFFFFFFFFFF DUP3 GT ISZERO PUSH2 0x1064 JUMPI PUSH2 0x1063 PUSH2 0xFCE JUMP JUMPDEST JUMPDEST PUSH2 0x106D DUP3 PUSH2 0xEB9 JUMP JUMPDEST SWAP1 POP PUSH1 0x20 DUP2 ADD SWAP1 POP SWAP2 SWAP1 POP JUMP JUMPDEST DUP3 DUP2 DUP4 CALLDATACOPY PUSH1 0x0 DUP4 DUP4 ADD MSTORE POP POP POP JUMP JUMPDEST PUSH1 0x0 PUSH2 0x109C PUSH2 0x1097 DUP5 PUSH2 0x1049 JUMP JUMPDEST PUSH2 0x102E JUMP JUMPDEST SWAP1 POP DUP3 DUP2 MSTORE PUSH1 0x20 DUP2 ADD DUP5 DUP5 DUP5 ADD GT ISZERO PUSH2 0x10B8 JUMPI PUSH2 0x10B7 PUSH2 0xFC9 JUMP JUMPDEST JUMPDEST PUSH2 0x10C3 DUP5 DUP3 DUP6 PUSH2 0x107A JUMP JUMPDEST POP SWAP4 SWAP3 POP POP POP JUMP JUMPDEST PUSH1 0x0 DUP3 PUSH1 0x1F DUP4 ADD SLT PUSH2 0x10E0 JUMPI PUSH2 0x10DF PUSH2 0xFC4 JUMP JUMPDEST JUMPDEST DUP2 CALLDATALOAD PUSH2 0x10F0 DUP5 DUP3 PUSH1 0x20 DUP7 ADD PUSH2 0x1089 JUMP JUMPDEST SWAP2 POP POP SWAP3 SWAP2 POP POP JUMP JUMPDEST PUSH1 0x0 PUSH1 0x20 DUP3 DUP5 SUB SLT ISZERO PUSH2 0x110F JUMPI PUSH2 0x110E PUSH2 0xF2F JUMP JUMPDEST JUMPDEST PUSH1 0x0 DUP3 ADD CALLDATALOAD PUSH8 0xFFFFFFFFFFFFFFFF DUP2 GT ISZERO PUSH2 0x112D JUMPI PUSH2 0x112C PUSH2 0xF34 JUMP JUMPDEST JUMPDEST PUSH2 0x1139 DUP5 DUP3 DUP6 ADD PUSH2 0x10CB JUMP JUMPDEST SWAP2 POP POP SWAP3 SWAP2 POP POP JUMP JUMPDEST PUSH2 0x114B DUP2 PUSH2 0xE3F JUMP JUMPDEST DUP2 EQ PUSH2 0x1156 JUMPI PUSH1 0x0 DUP1 REVERT JUMPDEST POP JUMP JUMPDEST PUSH1 0x0 DUP2 CALLDATALOAD SWAP1 POP PUSH2 0x1168 DUP2 PUSH2 0x1142 JUMP JUMPDEST SWAP3 SWAP2 POP POP JUMP JUMPDEST PUSH1 0x0 DUP1 PUSH1 0x40 DUP4 DUP6 SUB SLT ISZERO PUSH2 0x1185 JUMPI PUSH2 0x1184 PUSH2 0xF2F JUMP JUMPDEST JUMPDEST PUSH1 0x0 PUSH2 0x1193 DUP6 DUP3 DUP7 ADD PUSH2 0x1159 JUMP JUMPDEST SWAP3 POP POP PUSH1 0x20 PUSH2 0x11A4 DUP6 DUP3 DUP7 ADD PUSH2 0x1159 JUMP JUMPDEST SWAP2 POP POP SWAP3 POP SWAP3 SWAP1 POP JUMP JUMPDEST PUSH1 0x0 PUSH1 0x20 DUP3 DUP5 SUB SLT ISZERO PUSH2 0x11C4 JUMPI PUSH2 0x11C3 PUSH2 0xF2F JUMP JUMPDEST JUMPDEST PUSH1 0x0 PUSH2 0x11D2 DUP5 DUP3 DUP6 ADD PUSH2 0x1159 JUMP JUMPDEST SWAP2 POP POP SWAP3 SWAP2 POP POP JUMP JUMPDEST PUSH1 0x0 DUP1 PUSH1 0x40 DUP4 DUP6 SUB SLT ISZERO PUSH2 0x11F2 JUMPI PUSH2 0x11F1 PUSH2 0xF2F JUMP JUMPDEST JUMPDEST PUSH1 0x0 PUSH2 0x1200 DUP6 DUP3 DUP7 ADD PUSH2 0xF82 JUMP JUMPDEST SWAP3 POP POP PUSH1 0x20 PUSH2 0x1211 DUP6 DUP3 DUP7 ADD PUSH2 0x1159 JUMP JUMPDEST SWAP2 POP POP SWAP3 POP SWAP3 SWAP1 POP JUMP JUMPDEST PUSH2 0x1224 DUP2 PUSH2 0xE3F JUMP JUMPDEST DUP3 MSTORE POP POP JUMP JUMPDEST PUSH2 0x1233 DUP2 PUSH2 0xF59 JUMP JUMPDEST DUP3 MSTORE POP POP JUMP JUMPDEST PUSH1 0x0 DUP2 MLOAD SWAP1 POP SWAP2 SWAP1 POP JUMP JUMPDEST PUSH1 0x0 DUP3 DUP3 MSTORE PUSH1 0x20 DUP3 ADD SWAP1 POP SWAP3 SWAP2 POP POP JUMP JUMPDEST PUSH1 0x0 PUSH2 0x1260 DUP3 PUSH2 0x1239 JUMP JUMPDEST PUSH2 0x126A DUP2 DUP6 PUSH2 0x1244 JUMP JUMPDEST SWAP4 POP PUSH2 0x127A DUP2 DUP6 PUSH1 0x20 DUP7 ADD PUSH2 0xE8F JUMP JUMPDEST PUSH2 0x1283 DUP2 PUSH2 0xEB9 JUMP JUMPDEST DUP5 ADD SWAP2 POP POP SWAP3 SWAP2 POP POP JUMP JUMPDEST PUSH1 0x0 PUSH1 0x80 DUP4 ADD PUSH1 0x0 DUP4 ADD MLOAD PUSH2 0x12A6 PUSH1 0x0 DUP7 ADD DUP3 PUSH2 0x121B JUMP JUMPDEST POP PUSH1 0x20 DUP4 ADD MLOAD PUSH2 0x12B9 PUSH1 0x20 DUP7 ADD DUP3 PUSH2 0x121B JUMP JUMPDEST POP PUSH1 0x40 DUP4 ADD MLOAD PUSH2 0x12CC PUSH1 0x40 DUP7 ADD DUP3 PUSH2 0x122A JUMP JUMPDEST POP PUSH1 0x60 DUP4 ADD MLOAD DUP5 DUP3 SUB PUSH1 0x60 DUP7 ADD MSTORE PUSH2 0x12E4 DUP3 DUP3 PUSH2 0x1255 JUMP JUMPDEST SWAP2 POP POP DUP1 SWAP2 POP POP SWAP3 SWAP2 POP POP JUMP JUMPDEST PUSH1 0x0 PUSH1 0x20 DUP3 ADD SWAP1 POP DUP2 DUP2 SUB PUSH1 0x0 DUP4 ADD MSTORE PUSH2 0x130B DUP2 DUP5 PUSH2 0x128E JUMP JUMPDEST SWAP1 POP SWAP3 SWAP2 POP POP JUMP JUMPDEST PUSH1 0x0 DUP2 MLOAD SWAP1 POP SWAP2 SWAP1 POP JUMP JUMPDEST PUSH1 0x0 DUP3 DUP3 MSTORE PUSH1 0x20 DUP3 ADD SWAP1 POP SWAP3 SWAP2 POP POP JUMP JUMPDEST PUSH1 0x0 DUP2 SWAP1 POP PUSH1 0x20 DUP3 ADD SWAP1 POP SWAP2 SWAP1 POP JUMP JUMPDEST PUSH1 0x0 PUSH2 0x134B DUP4 DUP4 PUSH2 0x121B JUMP JUMPDEST PUSH1 0x20 DUP4 ADD SWAP1 POP SWAP3 SWAP2 POP POP JUMP JUMPDEST PUSH1 0x0 PUSH1 0x20 DUP3 ADD SWAP1 POP SWAP2 SWAP1 POP JUMP JUMPDEST PUSH1 0x0 PUSH2 0x136F DUP3 PUSH2 0x1313 JUMP JUMPDEST PUSH2 0x1379 DUP2 DUP6 PUSH2 0x131E JUMP JUMPDEST SWAP4 POP PUSH2 0x1384 DUP4 PUSH2 0x132F JUMP JUMPDEST DUP1 PUSH1 0x0 JUMPDEST DUP4 DUP2 LT ISZERO PUSH2 0x13B5 JUMPI DUP2 MLOAD PUSH2 0x139C DUP9 DUP3 PUSH2 0x133F JUMP JUMPDEST SWAP8 POP PUSH2 0x13A7 DUP4 PUSH2 0x1357 JUMP JUMPDEST SWAP3 POP POP PUSH1 0x1 DUP2 ADD SWAP1 POP PUSH2 0x1388 JUMP JUMPDEST POP DUP6 SWAP4 POP POP POP POP SWAP3 SWAP2 POP POP JUMP JUMPDEST PUSH1 0x0 PUSH1 0x20 DUP3 ADD SWAP1 POP DUP2 DUP2 SUB PUSH1 0x0 DUP4 ADD MSTORE PUSH2 0x13DC DUP2 DUP5 PUSH2 0x1364 JUMP JUMPDEST SWAP1 POP SWAP3 SWAP2 POP POP JUMP JUMPDEST PUSH1 0x0 DUP2 SWAP1 POP SWAP2 SWAP1 POP JUMP JUMPDEST PUSH2 0x13F7 DUP2 PUSH2 0x13E4 JUMP JUMPDEST DUP3 MSTORE POP POP JUMP JUMPDEST PUSH1 0x0 PUSH1 0x20 DUP3 ADD SWAP1 POP PUSH2 0x1412 PUSH1 0x0 DUP4 ADD DUP5 PUSH2 0x13EE JUMP JUMPDEST SWAP3 SWAP2 POP POP JUMP JUMPDEST PUSH32 0x4E487B7100000000000000000000000000000000000000000000000000000000 PUSH1 0x0 MSTORE PUSH1 0x21 PUSH1 0x4 MSTORE PUSH1 0x24 PUSH1 0x0 REVERT JUMPDEST PUSH1 0x4 DUP2 LT PUSH2 0x1458 JUMPI PUSH2 0x1457 PUSH2 0x1418 JUMP JUMPDEST JUMPDEST POP JUMP JUMPDEST PUSH1 0x0 DUP2 SWAP1 POP PUSH2 0x1469 DUP3 PUSH2 0x1447 JUMP JUMPDEST SWAP2 SWAP1 POP JUMP JUMPDEST PUSH1 0x0 PUSH2 0x1479 DUP3 PUSH2 0x145B JUMP JUMPDEST SWAP1 POP SWAP2 SWAP1 POP JUMP JUMPDEST PUSH2 0x1489 DUP2 PUSH2 0x146E JUMP JUMPDEST DUP3 MSTORE POP POP JUMP JUMPDEST PUSH1 0x0 PUSH1 0x20 DUP3 ADD SWAP1 POP PUSH2 0x14A4 PUSH1 0x0 DUP4 ADD DUP5 PUSH2 0x1480 JUMP JUMPDEST SWAP3 SWAP2 POP POP JUMP JUMPDEST PUSH32 0x4E487B7100000000000000000000000000000000000000000000000000000000 PUSH1 0x0 MSTORE PUSH1 0x22 PUSH1 0x4 MSTORE PUSH1 0x24 PUSH1 0x0 REVERT JUMPDEST PUSH1 0x0 PUSH1 0x2 DUP3 DIV SWAP1 POP PUSH1 0x1 DUP3 AND DUP1 PUSH2 0x14F1 JUMPI PUSH1 0x7F DUP3 AND SWAP2 POP JUMPDEST PUSH1 0x20 DUP3 LT DUP2 SUB PUSH2 0x1504 JUMPI PUSH2 0x1503 PUSH2 0x14AA JUMP JUMPDEST JUMPDEST POP SWAP2 SWAP1 POP JUMP JUMPDEST PUSH32 0x4E487B7100000000000000000000000000000000000000000000000000000000 PUSH1 0x0 MSTORE PUSH1 0x11 PUSH1 0x4 MSTORE PUSH1 0x24 PUSH1 0x0 REVERT JUMPDEST PUSH1 0x0 PUSH2 0x1544 DUP3 PUSH2 0xE3F JUMP JUMPDEST SWAP2 POP PUSH32 0xFFFFFFFFFFFFFFFFFFFFFFFFFFFFFFFFFFFFFFFFFFFFFFFFFFFFFFFFFFFFFFFF DUP3 SUB PUSH2 0x1576 JUMPI PUSH2 0x1575 PUSH2 0x150A JUMP JUMPDEST JUMPDEST PUSH1 0x1 DUP3 ADD SWAP1 POP SWAP2 SWAP1 POP JUMP JUMPDEST PUSH1 0x0 DUP2 SWAP1 POP DUP2 PUSH1 0x0 MSTORE PUSH1 0x20 PUSH1 0x0 KECCAK256 SWAP1 POP SWAP2 SWAP1 POP JUMP JUMPDEST PUSH1 0x0 PUSH1 0x20 PUSH1 0x1F DUP4 ADD DIV SWAP1 POP SWAP2 SWAP1 POP JUMP JUMPDEST PUSH1 0x0 DUP3 DUP3 SHL SWAP1 POP SWAP3 SWAP2 POP POP JUMP JUMPDEST PUSH1 0x0 PUSH1 0x8 DUP4 MUL PUSH2 0x15E3 PUSH32 0xFFFFFFFFFFFFFFFFFFFFFFFFFFFFFFFFFFFFFFFFFFFFFFFFFFFFFFFFFFFFFFFF DUP3 PUSH2 0x15A6 JUMP JUMPDEST PUSH2 0x15ED DUP7 DUP4 PUSH2 0x15A6 JUMP JUMPDEST SWAP6 POP DUP1 NOT DUP5 AND SWAP4 POP DUP1 DUP7 AND DUP5 OR SWAP3 POP POP POP SWAP4 SWAP3 POP POP POP JUMP JUMPDEST PUSH1 0x0 DUP2 SWAP1 POP SWAP2 SWAP1 POP JUMP JUMPDEST PUSH1 0x0 PUSH2 0x162A PUSH2 0x1625 PUSH2 0x1620 DUP5 PUSH2 0xE3F JUMP JUMPDEST PUSH2 0x1605 JUMP JUMPDEST PUSH2 0xE3F JUMP JUMPDEST SWAP1 POP SWAP2 SWAP1 POP JUMP JUMPDEST PUSH1 0x0 DUP2 SWAP1 POP SWAP2 SWAP1 POP JUMP JUMPDEST PUSH2 0x1644 DUP4 PUSH2 0x160F JUMP JUMPDEST PUSH2 0x1658 PUSH2 0x1650 DUP3 PUSH2 0x1631 JUMP JUMPDEST DUP5 DUP5 SLOAD PUSH2 0x15B3 JUMP JUMPDEST DUP3 SSTORE POP POP POP POP JUMP JUMPDEST PUSH1 0x0 SWAP1 JUMP JUMPDEST PUSH2 0x166D PUSH2 0x1660 JUMP JUMPDEST PUSH2 0x1678 DUP2 DUP5 DUP5 PUSH2 0x163B JUMP JUMPDEST POP POP POP JUMP JUMPDEST JUMPDEST DUP2 DUP2 LT ISZERO PUSH2 0x169C JUMPI PUSH2 0x1691 PUSH1 0x0 DUP3 PUSH2 0x1665 JUMP JUMPDEST PUSH1 0x1 DUP2 ADD SWAP1 POP PUSH2 0x167E JUMP JUMPDEST POP POP JUMP JUMPDEST PUSH1 0x1F DUP3 GT ISZERO PUSH2 0x16E1 JUMPI PUSH2 0x16B2 DUP2 PUSH2 0x1581 JUMP JUMPDEST PUSH2 0x16BB DUP5 PUSH2 0x1596 JUMP JUMPDEST DUP2 ADD PUSH1 0x20 DUP6 LT ISZERO PUSH2 0x16CA JUMPI DUP2 SWAP1 POP JUMPDEST PUSH2 0x16DE PUSH2 0x16D6 DUP6 PUSH2 0x1596 JUMP JUMPDEST DUP4 ADD DUP3 PUSH2 0x167D JUMP JUMPDEST POP POP JUMPDEST POP POP POP JUMP JUMPDEST PUSH1 0x0 DUP3 DUP3 SHR SWAP1 POP SWAP3 SWAP2 POP POP JUMP JUMPDEST PUSH1 0x0 PUSH2 0x1704 PUSH1 0x0 NOT DUP5 PUSH1 0x8 MUL PUSH2 0x16E6 JUMP JUMPDEST NOT DUP1 DUP4 AND SWAP2 POP POP SWAP3 SWAP2 POP POP JUMP JUMPDEST PUSH1 0x0 PUSH2 0x171D DUP4 DUP4 PUSH2 0x16F3 JUMP JUMPDEST SWAP2 POP DUP3 PUSH1 0x2 MUL DUP3 OR SWAP1 POP SWAP3 SWAP2 POP POP JUMP JUMPDEST PUSH2 0x1736 DUP3 PUSH2 0x1239 JUMP JUMPDEST PUSH8 0xFFFFFFFFFFFFFFFF DUP2 GT ISZERO PUSH2 0x174F JUMPI PUSH2 0x174E PUSH2 0xFCE JUMP JUMPDEST JUMPDEST PUSH2 0x1759 DUP3 SLOAD PUSH2 0x14D9 JUMP JUMPDEST PUSH2 0x1764 DUP3 DUP3 DUP6 PUSH2 0x16A0 JUMP JUMPDEST PUSH1 0x0 PUSH1 0x20 SWAP1 POP PUSH1 0x1F DUP4 GT PUSH1 0x1 DUP2 EQ PUSH2 0x1797 JUMPI PUSH1 0x0 DUP5 ISZERO PUSH2 0x1785 JUMPI DUP3 DUP8 ADD MLOAD SWAP1 POP JUMPDEST PUSH2 0x178F DUP6 DUP3 PUSH2 0x1711 JUMP JUMPDEST DUP7 SSTORE POP PUSH2 0x17F7 JUMP JUMPDEST PUSH1 0x1F NOT DUP5 AND PUSH2 0x17A5 DUP7 PUSH2 0x1581 JUMP JUMPDEST PUSH1 0x0 JUMPDEST DUP3 DUP2 LT ISZERO PUSH2 0x17CD JUMPI DUP5 DUP10 ADD MLOAD DUP3 SSTORE PUSH1 0x1 DUP3 ADD SWAP2 POP PUSH1 0x20 DUP6 ADD SWAP5 POP PUSH1 0x20 DUP2 ADD SWAP1 POP PUSH2 0x17A8 JUMP JUMPDEST DUP7 DUP4 LT ISZERO PUSH2 0x17EA JUMPI DUP5 DUP10 ADD MLOAD PUSH2 0x17E6 PUSH1 0x1F DUP10 AND DUP3 PUSH2 0x16F3 JUMP JUMPDEST DUP4 SSTORE POP JUMPDEST PUSH1 0x1 PUSH1 0x2 DUP9 MUL ADD DUP9 SSTORE POP POP POP JUMPDEST POP POP POP POP POP POP JUMP JUMPDEST PUSH32 0x4E487B7100000000000000000000000000000000000000000000000000000000 PUSH1 0x0 MSTORE PUSH1 0x32 PUSH1 0x4 MSTORE PUSH1 0x24 PUSH1 0x0 REVERT INVALID LOG2 PUSH5 0x6970667358 0x22 SLT KECCAK256 SWAP8 PUSH22 0xD7D64CA1ED16EC27CCAFE5D384553216CB3158280FD 0x4C SIGNEXTEND 0xCE PUSH13 0xA648420764736F6C6343000811 STOP CALLER "
				},
				"gasEstimates": {
					"creation": {
						"codeDepositCost": "1248800",
						"executionCost": "infinite",
						"totalCost": "infinite"
					},
					"external": {
						"balances(address)": "2940",
						"currentStatus()": "2623",
						"getPayment(address,uint256)": "infinite",
						"items(uint256,uint256)": "infinite",
						"itemsAdd()": "66684",
						"itemsDynamic(uint256)": "infinite",
						"itemsDynamicAdd()": "163679",
						"itemsMatrixAdd()": "infinite",
						"itemsOne(uint256)": "infinite",
						"itemsTwo(uint256)": "infinite",
						"len()": "2518",
						"lengthBytesArray()": "2594",
						"myDynKirilVar()": "infinite",
						"myDynVar()": "infinite",
						"myVar()": "2451",
						"pay()": "24499",
						"pay(string)": "infinite",
						"recieve()": "24476",
						"sampleMemory()": "infinite",
						"transferTo()": "24477"
					}
				},
				"methodIdentifiers": {
					"balances(address)": "27e235e3",
					"currentStatus()": "ef8a9235",
					"getPayment(address,uint256)": "977a767c",
					"items(uint256,uint256)": "31e838dd",
					"itemsAdd()": "c354cef3",
					"itemsDynamic(uint256)": "aae08573",
					"itemsDynamicAdd()": "d9d7d170",
					"itemsMatrixAdd()": "f81e919f",
					"itemsOne(uint256)": "4206a43d",
					"itemsTwo(uint256)": "b48329c1",
					"len()": "56d88e27",
					"lengthBytesArray()": "09f8c2e5",
					"myDynKirilVar()": "209ba484",
					"myDynVar()": "ffb1e210",
					"myVar()": "c6b91540",
					"pay()": "1b9265b8",
					"pay(string)": "2b66d72e",
					"recieve()": "a9e10bf2",
					"sampleMemory()": "a34343c9",
					"transferTo()": "1ab5d260"
				}
			},
			"storageLayout": {
				"storage": [
					{
						"astId": 9,
						"contract": "lesson_4_enum_array_byte_struct/Demo.sol:Demo",
						"label": "currentStatus",
						"offset": 0,
						"slot": "0",
						"type": "t_enum(Status)6"
					},
					{
						"astId": 40,
						"contract": "lesson_4_enum_array_byte_struct/Demo.sol:Demo",
						"label": "itemsOne",
						"offset": 0,
						"slot": "1",
						"type": "t_array(t_uint256)7_storage"
					},
					{
						"astId": 49,
						"contract": "lesson_4_enum_array_byte_struct/Demo.sol:Demo",
						"label": "itemsTwo",
						"offset": 0,
						"slot": "8",
						"type": "t_array(t_uint256)7_storage"
					},
					{
						"astId": 55,
						"contract": "lesson_4_enum_array_byte_struct/Demo.sol:Demo",
						"label": "items",
						"offset": 0,
						"slot": "15",
						"type": "t_array(t_array(t_uint256)5_storage)6_storage"
					},
					{
						"astId": 124,
						"contract": "lesson_4_enum_array_byte_struct/Demo.sol:Demo",
						"label": "itemsDynamic",
						"offset": 0,
						"slot": "45",
						"type": "t_array(t_uint256)dyn_storage"
					},
					{
						"astId": 126,
						"contract": "lesson_4_enum_array_byte_struct/Demo.sol:Demo",
						"label": "len",
						"offset": 0,
						"slot": "46",
						"type": "t_uint256"
					},
					{
						"astId": 188,
						"contract": "lesson_4_enum_array_byte_struct/Demo.sol:Demo",
						"label": "myVar",
						"offset": 0,
						"slot": "47",
						"type": "t_bytes32"
					},
					{
						"astId": 191,
						"contract": "lesson_4_enum_array_byte_struct/Demo.sol:Demo",
						"label": "myDynVar",
						"offset": 0,
						"slot": "48",
						"type": "t_bytes_storage"
					},
					{
						"astId": 194,
						"contract": "lesson_4_enum_array_byte_struct/Demo.sol:Demo",
						"label": "myDynKirilVar",
						"offset": 0,
						"slot": "49",
						"type": "t_bytes_storage"
					},
					{
						"astId": 225,
						"contract": "lesson_4_enum_array_byte_struct/Demo.sol:Demo",
						"label": "balances",
						"offset": 0,
						"slot": "50",
						"type": "t_mapping(t_address,t_struct(Balance)220_storage)"
					}
				],
				"types": {
					"t_address": {
						"encoding": "inplace",
						"label": "address",
						"numberOfBytes": "20"
					},
					"t_array(t_array(t_uint256)5_storage)6_storage": {
						"base": "t_array(t_uint256)5_storage",
						"encoding": "inplace",
						"label": "uint256[5][6]",
						"numberOfBytes": "960"
					},
					"t_array(t_uint256)5_storage": {
						"base": "t_uint256",
						"encoding": "inplace",
						"label": "uint256[5]",
						"numberOfBytes": "160"
					},
					"t_array(t_uint256)7_storage": {
						"base": "t_uint256",
						"encoding": "inplace",
						"label": "uint256[7]",
						"numberOfBytes": "224"
					},
					"t_array(t_uint256)dyn_storage": {
						"base": "t_uint256",
						"encoding": "dynamic_array",
						"label": "uint256[]",
						"numberOfBytes": "32"
					},
					"t_bytes32": {
						"encoding": "inplace",
						"label": "bytes32",
						"numberOfBytes": "32"
					},
					"t_bytes_storage": {
						"encoding": "bytes",
						"label": "bytes",
						"numberOfBytes": "32"
					},
					"t_enum(Status)6": {
						"encoding": "inplace",
						"label": "enum Demo.Status",
						"numberOfBytes": "1"
					},
					"t_mapping(t_address,t_struct(Balance)220_storage)": {
						"encoding": "mapping",
						"key": "t_address",
						"label": "mapping(address => struct Demo.Balance)",
						"numberOfBytes": "32",
						"value": "t_struct(Balance)220_storage"
					},
					"t_mapping(t_uint256,t_struct(Payment)212_storage)": {
						"encoding": "mapping",
						"key": "t_uint256",
						"label": "mapping(uint256 => struct Demo.Payment)",
						"numberOfBytes": "32",
						"value": "t_struct(Payment)212_storage"
					},
					"t_string_storage": {
						"encoding": "bytes",
						"label": "string",
						"numberOfBytes": "32"
					},
					"t_struct(Balance)220_storage": {
						"encoding": "inplace",
						"label": "struct Demo.Balance",
						"members": [
							{
								"astId": 214,
								"contract": "lesson_4_enum_array_byte_struct/Demo.sol:Demo",
								"label": "totalPayments",
								"offset": 0,
								"slot": "0",
								"type": "t_uint256"
							},
							{
								"astId": 219,
								"contract": "lesson_4_enum_array_byte_struct/Demo.sol:Demo",
								"label": "payments",
								"offset": 0,
								"slot": "1",
								"type": "t_mapping(t_uint256,t_struct(Payment)212_storage)"
							}
						],
						"numberOfBytes": "64"
					},
					"t_struct(Payment)212_storage": {
						"encoding": "inplace",
						"label": "struct Demo.Payment",
						"members": [
							{
								"astId": 205,
								"contract": "lesson_4_enum_array_byte_struct/Demo.sol:Demo",
								"label": "amount",
								"offset": 0,
								"slot": "0",
								"type": "t_uint256"
							},
							{
								"astId": 207,
								"contract": "lesson_4_enum_array_byte_struct/Demo.sol:Demo",
								"label": "timestamp",
								"offset": 0,
								"slot": "1",
								"type": "t_uint256"
							},
							{
								"astId": 209,
								"contract": "lesson_4_enum_array_byte_struct/Demo.sol:Demo",
								"label": "from",
								"offset": 0,
								"slot": "2",
								"type": "t_address"
							},
							{
								"astId": 211,
								"contract": "lesson_4_enum_array_byte_struct/Demo.sol:Demo",
								"label": "message",
								"offset": 0,
								"slot": "3",
								"type": "t_string_storage"
							}
						],
						"numberOfBytes": "128"
					},
					"t_uint256": {
						"encoding": "inplace",
						"label": "uint256",
						"numberOfBytes": "32"
					}
				}
			},
			"userdoc": {
				"kind": "user",
				"methods": {},
				"version": 1
			}
		}
	}
}